{
  "_format": "hh-sol-artifact-1",
  "contractName": "FakeNFT",
  "sourceName": "contracts/FakeNFT.sol",
  "abi": [
    {
      "inputs": [],
      "stateMutability": "nonpayable",
      "type": "constructor"
    },
    {
      "anonymous": false,
      "inputs": [
        {
          "indexed": true,
          "internalType": "address",
          "name": "owner",
          "type": "address"
        },
        {
          "indexed": true,
          "internalType": "address",
          "name": "approved",
          "type": "address"
        },
        {
          "indexed": true,
          "internalType": "uint256",
          "name": "tokenId",
          "type": "uint256"
        }
      ],
      "name": "Approval",
      "type": "event"
    },
    {
      "anonymous": false,
      "inputs": [
        {
          "indexed": true,
          "internalType": "address",
          "name": "owner",
          "type": "address"
        },
        {
          "indexed": true,
          "internalType": "address",
          "name": "operator",
          "type": "address"
        },
        {
          "indexed": false,
          "internalType": "bool",
          "name": "approved",
          "type": "bool"
        }
      ],
      "name": "ApprovalForAll",
      "type": "event"
    },
    {
      "anonymous": false,
      "inputs": [
        {
          "indexed": true,
          "internalType": "address",
          "name": "from",
          "type": "address"
        },
        {
          "indexed": true,
          "internalType": "address",
          "name": "to",
          "type": "address"
        },
        {
          "indexed": true,
          "internalType": "uint256",
          "name": "tokenId",
          "type": "uint256"
        }
      ],
      "name": "Transfer",
      "type": "event"
    },
    {
      "inputs": [
        {
          "internalType": "address",
          "name": "to",
          "type": "address"
        },
        {
          "internalType": "uint256",
          "name": "tokenId",
          "type": "uint256"
        }
      ],
      "name": "approve",
      "outputs": [],
      "stateMutability": "nonpayable",
      "type": "function"
    },
    {
      "inputs": [
        {
          "internalType": "address",
          "name": "owner",
          "type": "address"
        }
      ],
      "name": "balanceOf",
      "outputs": [
        {
          "internalType": "uint256",
          "name": "",
          "type": "uint256"
        }
      ],
      "stateMutability": "view",
      "type": "function"
    },
    {
      "inputs": [
        {
          "internalType": "uint256",
          "name": "tokenId",
          "type": "uint256"
        }
      ],
      "name": "getApproved",
      "outputs": [
        {
          "internalType": "address",
          "name": "",
          "type": "address"
        }
      ],
      "stateMutability": "view",
      "type": "function"
    },
    {
      "inputs": [
        {
          "internalType": "address",
          "name": "owner",
          "type": "address"
        },
        {
          "internalType": "address",
          "name": "operator",
          "type": "address"
        }
      ],
      "name": "isApprovedForAll",
      "outputs": [
        {
          "internalType": "bool",
          "name": "",
          "type": "bool"
        }
      ],
      "stateMutability": "view",
      "type": "function"
    },
    {
      "inputs": [
        {
          "internalType": "uint256",
          "name": "number",
          "type": "uint256"
        }
      ],
      "name": "mint",
      "outputs": [],
      "stateMutability": "nonpayable",
      "type": "function"
    },
    {
      "inputs": [],
      "name": "name",
      "outputs": [
        {
          "internalType": "string",
          "name": "",
          "type": "string"
        }
      ],
      "stateMutability": "view",
      "type": "function"
    },
    {
      "inputs": [
        {
          "internalType": "uint256",
          "name": "tokenId",
          "type": "uint256"
        }
      ],
      "name": "ownerOf",
      "outputs": [
        {
          "internalType": "address",
          "name": "",
          "type": "address"
        }
      ],
      "stateMutability": "view",
      "type": "function"
    },
    {
      "inputs": [
        {
          "internalType": "address",
          "name": "from",
          "type": "address"
        },
        {
          "internalType": "address",
          "name": "to",
          "type": "address"
        },
        {
          "internalType": "uint256",
          "name": "tokenId",
          "type": "uint256"
        }
      ],
      "name": "safeTransferFrom",
      "outputs": [],
      "stateMutability": "nonpayable",
      "type": "function"
    },
    {
      "inputs": [
        {
          "internalType": "address",
          "name": "from",
          "type": "address"
        },
        {
          "internalType": "address",
          "name": "to",
          "type": "address"
        },
        {
          "internalType": "uint256",
          "name": "tokenId",
          "type": "uint256"
        },
        {
          "internalType": "bytes",
          "name": "_data",
          "type": "bytes"
        }
      ],
      "name": "safeTransferFrom",
      "outputs": [],
      "stateMutability": "nonpayable",
      "type": "function"
    },
    {
      "inputs": [
        {
          "internalType": "address",
          "name": "operator",
          "type": "address"
        },
        {
          "internalType": "bool",
          "name": "approved",
          "type": "bool"
        }
      ],
      "name": "setApprovalForAll",
      "outputs": [],
      "stateMutability": "nonpayable",
      "type": "function"
    },
    {
      "inputs": [
        {
          "internalType": "bytes4",
          "name": "interfaceId",
          "type": "bytes4"
        }
      ],
      "name": "supportsInterface",
      "outputs": [
        {
          "internalType": "bool",
          "name": "",
          "type": "bool"
        }
      ],
      "stateMutability": "view",
      "type": "function"
    },
    {
      "inputs": [],
      "name": "symbol",
      "outputs": [
        {
          "internalType": "string",
          "name": "",
          "type": "string"
        }
      ],
      "stateMutability": "view",
      "type": "function"
    },
    {
      "inputs": [
        {
          "internalType": "uint256",
          "name": "index",
          "type": "uint256"
        }
      ],
      "name": "tokenByIndex",
      "outputs": [
        {
          "internalType": "uint256",
          "name": "",
          "type": "uint256"
        }
      ],
      "stateMutability": "view",
      "type": "function"
    },
    {
      "inputs": [
        {
          "internalType": "address",
          "name": "owner",
          "type": "address"
        },
        {
          "internalType": "uint256",
          "name": "index",
          "type": "uint256"
        }
      ],
      "name": "tokenOfOwnerByIndex",
      "outputs": [
        {
          "internalType": "uint256",
          "name": "",
          "type": "uint256"
        }
      ],
      "stateMutability": "view",
      "type": "function"
    },
    {
      "inputs": [
        {
          "internalType": "uint256",
          "name": "tokenId",
          "type": "uint256"
        }
      ],
      "name": "tokenURI",
      "outputs": [
        {
          "internalType": "string",
          "name": "",
          "type": "string"
        }
      ],
      "stateMutability": "view",
      "type": "function"
    },
    {
      "inputs": [],
      "name": "totalSupply",
      "outputs": [
        {
          "internalType": "uint256",
          "name": "",
          "type": "uint256"
        }
      ],
      "stateMutability": "view",
      "type": "function"
    },
    {
      "inputs": [
        {
          "internalType": "address",
          "name": "from",
          "type": "address"
        },
        {
          "internalType": "address",
          "name": "to",
          "type": "address"
        },
        {
          "internalType": "uint256",
          "name": "tokenId",
          "type": "uint256"
        }
      ],
      "name": "transferFrom",
      "outputs": [],
      "stateMutability": "nonpayable",
      "type": "function"
    }
  ],
  "bytecode": "0x60806040526001600a553480156200001657600080fd5b506040518060400160405280600d81526020017f436869636b656e204b61747375000000000000000000000000000000000000008152506040518060400160405280600481526020017f4b4153550000000000000000000000000000000000000000000000000000000081525081600090805190602001906200009b929190620000bd565b508060019080519060200190620000b4929190620000bd565b505050620001d2565b828054620000cb906200016d565b90600052602060002090601f016020900481019282620000ef57600085556200013b565b82601f106200010a57805160ff19168380011785556200013b565b828001600101855582156200013b579182015b828111156200013a5782518255916020019190600101906200011d565b5b5090506200014a91906200014e565b5090565b5b80821115620001695760008160009055506001016200014f565b5090565b600060028204905060018216806200018657607f821691505b602082108114156200019d576200019c620001a3565b5b50919050565b7f4e487b7100000000000000000000000000000000000000000000000000000000600052602260045260246000fd5b612e6b80620001e26000396000f3fe608060405234801561001057600080fd5b506004361061010b5760003560e01c80634f6ccce7116100a2578063a0712d6811610071578063a0712d68146102de578063a22cb465146102fa578063b88d4fde14610316578063c87b56dd14610332578063e985e9c5146103625761010b565b80634f6ccce7146102305780636352211e1461026057806370a082311461029057806395d89b41146102c05761010b565b806318160ddd116100de57806318160ddd146101aa57806323b872dd146101c85780632f745c59146101e457806342842e0e146102145761010b565b806301ffc9a71461011057806306fdde0314610140578063081812fc1461015e578063095ea7b31461018e575b600080fd5b61012a6004803603810190610125919061202f565b610392565b60405161013791906127f3565b60405180910390f35b61014861040c565b604051610155919061280e565b60405180910390f35b61017860048036038101906101739190612081565b61049e565b604051610185919061278c565b60405180910390f35b6101a860048036038101906101a39190611ff3565b610523565b005b6101b261063b565b6040516101bf9190612a30565b60405180910390f35b6101e260048036038101906101dd9190611eed565b610648565b005b6101fe60048036038101906101f99190611ff3565b6106a8565b60405161020b9190612a30565b60405180910390f35b61022e60048036038101906102299190611eed565b61074d565b005b61024a60048036038101906102459190612081565b61076d565b6040516102579190612a30565b60405180910390f35b61027a60048036038101906102759190612081565b610804565b604051610287919061278c565b60405180910390f35b6102aa60048036038101906102a59190611e88565b6108b6565b6040516102b79190612a30565b60405180910390f35b6102c861096e565b6040516102d5919061280e565b60405180910390f35b6102f860048036038101906102f39190612081565b610a00565b005b610314600480360381019061030f9190611fb7565b610a42565b005b610330600480360381019061032b9190611f3c565b610a58565b005b61034c60048036038101906103479190612081565b610aba565b604051610359919061280e565b60405180910390f35b61037c60048036038101906103779190611eb1565b610b61565b60405161038991906127f3565b60405180910390f35b60007f780e9d63000000000000000000000000000000000000000000000000000000007bffffffffffffffffffffffffffffffffffffffffffffffffffffffff1916827bffffffffffffffffffffffffffffffffffffffffffffffffffffffff19161480610405575061040482610bf5565b5b9050919050565b60606000805461041b90612c60565b80601f016020809104026020016040519081016040528092919081815260200182805461044790612c60565b80156104945780601f1061046957610100808354040283529160200191610494565b820191906000526020600020905b81548152906001019060200180831161047757829003601f168201915b5050505050905090565b60006104a982610cd7565b6104e8576040517f08c379a00000000000000000000000000000000000000000000000000000000081526004016104df90612970565b60405180910390fd5b6004600083815260200190815260200160002060009054906101000a900473ffffffffffffffffffffffffffffffffffffffff169050919050565b600061052e82610804565b90508073ffffffffffffffffffffffffffffffffffffffff168373ffffffffffffffffffffffffffffffffffffffff16141561059f576040517f08c379a0000000000000000000000000000000000000000000000000000000008152600401610596906129d0565b60405180910390fd5b8073ffffffffffffffffffffffffffffffffffffffff166105be610d43565b73ffffffffffffffffffffffffffffffffffffffff1614806105ed57506105ec816105e7610d43565b610b61565b5b61062c576040517f08c379a0000000000000000000000000000000000000000000000000000000008152600401610623906128f0565b60405180910390fd5b6106368383610d4b565b505050565b6000600880549050905090565b610659610653610d43565b82610e04565b610698576040517f08c379a000000000000000000000000000000000000000000000000000000000815260040161068f906129f0565b60405180910390fd5b6106a3838383610ee2565b505050565b60006106b3836108b6565b82106106f4576040517f08c379a00000000000000000000000000000000000000000000000000000000081526004016106eb90612830565b60405180910390fd5b600660008473ffffffffffffffffffffffffffffffffffffffff1673ffffffffffffffffffffffffffffffffffffffff168152602001908152602001600020600083815260200190815260200160002054905092915050565b61076883838360405180602001604052806000815250610a58565b505050565b600061077761063b565b82106107b8576040517f08c379a00000000000000000000000000000000000000000000000000000000081526004016107af90612a10565b60405180910390fd5b600882815481106107f2577f4e487b7100000000000000000000000000000000000000000000000000000000600052603260045260246000fd5b90600052602060002001549050919050565b6000806002600084815260200190815260200160002060009054906101000a900473ffffffffffffffffffffffffffffffffffffffff169050600073ffffffffffffffffffffffffffffffffffffffff168173ffffffffffffffffffffffffffffffffffffffff1614156108ad576040517f08c379a00000000000000000000000000000000000000000000000000000000081526004016108a490612930565b60405180910390fd5b80915050919050565b60008073ffffffffffffffffffffffffffffffffffffffff168273ffffffffffffffffffffffffffffffffffffffff161415610927576040517f08c379a000000000000000000000000000000000000000000000000000000000815260040161091e90612910565b60405180910390fd5b600360008373ffffffffffffffffffffffffffffffffffffffff1673ffffffffffffffffffffffffffffffffffffffff168152602001908152602001600020549050919050565b60606001805461097d90612c60565b80601f01602080910402602001604051908101604052809291908181526020018280546109a990612c60565b80156109f65780601f106109cb576101008083540402835291602001916109f6565b820191906000526020600020905b8154815290600101906020018083116109d957829003601f168201915b5050505050905090565b60005b81811015610a3e57610a2b33600a6000815480929190610a2290612c92565b9190505561113e565b8080610a3690612c92565b915050610a03565b5050565b610a54610a4d610d43565b838361115c565b5050565b610a69610a63610d43565b83610e04565b610aa8576040517f08c379a0000000000000000000000000000000000000000000000000000000008152600401610a9f906129f0565b60405180910390fd5b610ab4848484846112c9565b50505050565b6060610ac582610cd7565b610b04576040517f08c379a0000000000000000000000000000000000000000000000000000000008152600401610afb906129b0565b60405180910390fd5b6000610b0e611325565b90506000815111610b2e5760405180602001604052806000815250610b59565b80610b388461133c565b604051602001610b49929190612768565b6040516020818303038152906040525b915050919050565b6000600560008473ffffffffffffffffffffffffffffffffffffffff1673ffffffffffffffffffffffffffffffffffffffff16815260200190815260200160002060008373ffffffffffffffffffffffffffffffffffffffff1673ffffffffffffffffffffffffffffffffffffffff16815260200190815260200160002060009054906101000a900460ff16905092915050565b60007f80ac58cd000000000000000000000000000000000000000000000000000000007bffffffffffffffffffffffffffffffffffffffffffffffffffffffff1916827bffffffffffffffffffffffffffffffffffffffffffffffffffffffff19161480610cc057507f5b5e139f000000000000000000000000000000000000000000000000000000007bffffffffffffffffffffffffffffffffffffffffffffffffffffffff1916827bffffffffffffffffffffffffffffffffffffffffffffffffffffffff1916145b80610cd05750610ccf826114e9565b5b9050919050565b60008073ffffffffffffffffffffffffffffffffffffffff166002600084815260200190815260200160002060009054906101000a900473ffffffffffffffffffffffffffffffffffffffff1673ffffffffffffffffffffffffffffffffffffffff1614159050919050565b600033905090565b816004600083815260200190815260200160002060006101000a81548173ffffffffffffffffffffffffffffffffffffffff021916908373ffffffffffffffffffffffffffffffffffffffff160217905550808273ffffffffffffffffffffffffffffffffffffffff16610dbe83610804565b73ffffffffffffffffffffffffffffffffffffffff167f8c5be1e5ebec7d5bd14f71427d1e84f3dd0314c0f7b2291e5b200ac8c7c3b92560405160405180910390a45050565b6000610e0f82610cd7565b610e4e576040517f08c379a0000000000000000000000000000000000000000000000000000000008152600401610e45906128d0565b60405180910390fd5b6000610e5983610804565b90508073ffffffffffffffffffffffffffffffffffffffff168473ffffffffffffffffffffffffffffffffffffffff161480610ec857508373ffffffffffffffffffffffffffffffffffffffff16610eb08461049e565b73ffffffffffffffffffffffffffffffffffffffff16145b80610ed95750610ed88185610b61565b5b91505092915050565b8273ffffffffffffffffffffffffffffffffffffffff16610f0282610804565b73ffffffffffffffffffffffffffffffffffffffff1614610f58576040517f08c379a0000000000000000000000000000000000000000000000000000000008152600401610f4f90612990565b60405180910390fd5b600073ffffffffffffffffffffffffffffffffffffffff168273ffffffffffffffffffffffffffffffffffffffff161415610fc8576040517f08c379a0000000000000000000000000000000000000000000000000000000008152600401610fbf90612890565b60405180910390fd5b610fd3838383611553565b610fde600082610d4b565b6001600360008573ffffffffffffffffffffffffffffffffffffffff1673ffffffffffffffffffffffffffffffffffffffff168152602001908152602001600020600082825461102e9190612b76565b925050819055506001600360008473ffffffffffffffffffffffffffffffffffffffff1673ffffffffffffffffffffffffffffffffffffffff16815260200190815260200160002060008282546110859190612aef565b92505081905550816002600083815260200190815260200160002060006101000a81548173ffffffffffffffffffffffffffffffffffffffff021916908373ffffffffffffffffffffffffffffffffffffffff160217905550808273ffffffffffffffffffffffffffffffffffffffff168473ffffffffffffffffffffffffffffffffffffffff167fddf252ad1be2c89b69c2b068fc378daa952ba7f163c4a11628f55a4df523b3ef60405160405180910390a4505050565b611158828260405180602001604052806000815250611667565b5050565b8173ffffffffffffffffffffffffffffffffffffffff168373ffffffffffffffffffffffffffffffffffffffff1614156111cb576040517f08c379a00000000000000000000000000000000000000000000000000000000081526004016111c2906128b0565b60405180910390fd5b80600560008573ffffffffffffffffffffffffffffffffffffffff1673ffffffffffffffffffffffffffffffffffffffff16815260200190815260200160002060008473ffffffffffffffffffffffffffffffffffffffff1673ffffffffffffffffffffffffffffffffffffffff16815260200190815260200160002060006101000a81548160ff0219169083151502179055508173ffffffffffffffffffffffffffffffffffffffff168373ffffffffffffffffffffffffffffffffffffffff167f17307eab39ab6107e8899845ad3d59bd9653f200f220920489ca2b5937696c31836040516112bc91906127f3565b60405180910390a3505050565b6112d4848484610ee2565b6112e0848484846116c2565b61131f576040517f08c379a000000000000000000000000000000000000000000000000000000000815260040161131690612850565b60405180910390fd5b50505050565b606060405180602001604052806000815250905090565b60606000821415611384576040518060400160405280600181526020017f300000000000000000000000000000000000000000000000000000000000000081525090506114e4565b600082905060005b600082146113b657808061139f90612c92565b915050600a826113af9190612b45565b915061138c565b60008167ffffffffffffffff8111156113f8577f4e487b7100000000000000000000000000000000000000000000000000000000600052604160045260246000fd5b6040519080825280601f01601f19166020018201604052801561142a5781602001600182028036833780820191505090505b5090505b600085146114dd576001826114439190612b76565b9150600a856114529190612cdb565b603061145e9190612aef565b60f81b81838151811061149a577f4e487b7100000000000000000000000000000000000000000000000000000000600052603260045260246000fd5b60200101907effffffffffffffffffffffffffffffffffffffffffffffffffffffffffffff1916908160001a905350600a856114d69190612b45565b945061142e565b8093505050505b919050565b60007f01ffc9a7000000000000000000000000000000000000000000000000000000007bffffffffffffffffffffffffffffffffffffffffffffffffffffffff1916827bffffffffffffffffffffffffffffffffffffffffffffffffffffffff1916149050919050565b61155e838383611859565b600073ffffffffffffffffffffffffffffffffffffffff168373ffffffffffffffffffffffffffffffffffffffff1614156115a15761159c8161185e565b6115e0565b8173ffffffffffffffffffffffffffffffffffffffff168373ffffffffffffffffffffffffffffffffffffffff16146115df576115de83826118a7565b5b5b600073ffffffffffffffffffffffffffffffffffffffff168273ffffffffffffffffffffffffffffffffffffffff1614156116235761161e81611a14565b611662565b8273ffffffffffffffffffffffffffffffffffffffff168273ffffffffffffffffffffffffffffffffffffffff1614611661576116608282611b57565b5b5b505050565b6116718383611bd6565b61167e60008484846116c2565b6116bd576040517f08c379a00000000000000000000000000000000000000000000000000000000081526004016116b490612850565b60405180910390fd5b505050565b60006116e38473ffffffffffffffffffffffffffffffffffffffff16611da4565b1561184c578373ffffffffffffffffffffffffffffffffffffffff1663150b7a0261170c610d43565b8786866040518563ffffffff1660e01b815260040161172e94939291906127a7565b602060405180830381600087803b15801561174857600080fd5b505af192505050801561177957506040513d601f19601f820116820180604052508101906117769190612058565b60015b6117fc573d80600081146117a9576040519150601f19603f3d011682016040523d82523d6000602084013e6117ae565b606091505b506000815114156117f4576040517f08c379a00000000000000000000000000000000000000000000000000000000081526004016117eb90612850565b60405180910390fd5b805181602001fd5b63150b7a0260e01b7bffffffffffffffffffffffffffffffffffffffffffffffffffffffff1916817bffffffffffffffffffffffffffffffffffffffffffffffffffffffff191614915050611851565b600190505b949350505050565b505050565b6008805490506009600083815260200190815260200160002081905550600881908060018154018082558091505060019003906000526020600020016000909190919091505550565b600060016118b4846108b6565b6118be9190612b76565b90506000600760008481526020019081526020016000205490508181146119a3576000600660008673ffffffffffffffffffffffffffffffffffffffff1673ffffffffffffffffffffffffffffffffffffffff168152602001908152602001600020600084815260200190815260200160002054905080600660008773ffffffffffffffffffffffffffffffffffffffff1673ffffffffffffffffffffffffffffffffffffffff168152602001908152602001600020600084815260200190815260200160002081905550816007600083815260200190815260200160002081905550505b6007600084815260200190815260200160002060009055600660008573ffffffffffffffffffffffffffffffffffffffff1673ffffffffffffffffffffffffffffffffffffffff16815260200190815260200160002060008381526020019081526020016000206000905550505050565b60006001600880549050611a289190612b76565b9050600060096000848152602001908152602001600020549050600060088381548110611a7e577f4e487b7100000000000000000000000000000000000000000000000000000000600052603260045260246000fd5b906000526020600020015490508060088381548110611ac6577f4e487b7100000000000000000000000000000000000000000000000000000000600052603260045260246000fd5b906000526020600020018190555081600960008381526020019081526020016000208190555060096000858152602001908152602001600020600090556008805480611b3b577f4e487b7100000000000000000000000000000000000000000000000000000000600052603160045260246000fd5b6001900381819060005260206000200160009055905550505050565b6000611b62836108b6565b905081600660008573ffffffffffffffffffffffffffffffffffffffff1673ffffffffffffffffffffffffffffffffffffffff168152602001908152602001600020600083815260200190815260200160002081905550806007600084815260200190815260200160002081905550505050565b600073ffffffffffffffffffffffffffffffffffffffff168273ffffffffffffffffffffffffffffffffffffffff161415611c46576040517f08c379a0000000000000000000000000000000000000000000000000000000008152600401611c3d90612950565b60405180910390fd5b611c4f81610cd7565b15611c8f576040517f08c379a0000000000000000000000000000000000000000000000000000000008152600401611c8690612870565b60405180910390fd5b611c9b60008383611553565b6001600360008473ffffffffffffffffffffffffffffffffffffffff1673ffffffffffffffffffffffffffffffffffffffff1681526020019081526020016000206000828254611ceb9190612aef565b92505081905550816002600083815260200190815260200160002060006101000a81548173ffffffffffffffffffffffffffffffffffffffff021916908373ffffffffffffffffffffffffffffffffffffffff160217905550808273ffffffffffffffffffffffffffffffffffffffff16600073ffffffffffffffffffffffffffffffffffffffff167fddf252ad1be2c89b69c2b068fc378daa952ba7f163c4a11628f55a4df523b3ef60405160405180910390a45050565b600080823b905060008111915050919050565b6000611dca611dc584612a7c565b612a4b565b905082815260208101848484011115611de257600080fd5b611ded848285612c1e565b509392505050565b600081359050611e0481612dd9565b92915050565b600081359050611e1981612df0565b92915050565b600081359050611e2e81612e07565b92915050565b600081519050611e4381612e07565b92915050565b600082601f830112611e5a57600080fd5b8135611e6a848260208601611db7565b91505092915050565b600081359050611e8281612e1e565b92915050565b600060208284031215611e9a57600080fd5b6000611ea884828501611df5565b91505092915050565b60008060408385031215611ec457600080fd5b6000611ed285828601611df5565b9250506020611ee385828601611df5565b9150509250929050565b600080600060608486031215611f0257600080fd5b6000611f1086828701611df5565b9350506020611f2186828701611df5565b9250506040611f3286828701611e73565b9150509250925092565b60008060008060808587031215611f5257600080fd5b6000611f6087828801611df5565b9450506020611f7187828801611df5565b9350506040611f8287828801611e73565b925050606085013567ffffffffffffffff811115611f9f57600080fd5b611fab87828801611e49565b91505092959194509250565b60008060408385031215611fca57600080fd5b6000611fd885828601611df5565b9250506020611fe985828601611e0a565b9150509250929050565b6000806040838503121561200657600080fd5b600061201485828601611df5565b925050602061202585828601611e73565b9150509250929050565b60006020828403121561204157600080fd5b600061204f84828501611e1f565b91505092915050565b60006020828403121561206a57600080fd5b600061207884828501611e34565b91505092915050565b60006020828403121561209357600080fd5b60006120a184828501611e73565b91505092915050565b6120b381612baa565b82525050565b6120c281612bbc565b82525050565b60006120d382612aac565b6120dd8185612ac2565b93506120ed818560208601612c2d565b6120f681612dc8565b840191505092915050565b600061210c82612ab7565b6121168185612ad3565b9350612126818560208601612c2d565b61212f81612dc8565b840191505092915050565b600061214582612ab7565b61214f8185612ae4565b935061215f818560208601612c2d565b80840191505092915050565b6000612178602b83612ad3565b91507f455243373231456e756d657261626c653a206f776e657220696e646578206f7560008301527f74206f6620626f756e64730000000000000000000000000000000000000000006020830152604082019050919050565b60006121de603283612ad3565b91507f4552433732313a207472616e7366657220746f206e6f6e20455243373231526560008301527f63656976657220696d706c656d656e74657200000000000000000000000000006020830152604082019050919050565b6000612244601c83612ad3565b91507f4552433732313a20746f6b656e20616c7265616479206d696e746564000000006000830152602082019050919050565b6000612284602483612ad3565b91507f4552433732313a207472616e7366657220746f20746865207a65726f2061646460008301527f72657373000000000000000000000000000000000000000000000000000000006020830152604082019050919050565b60006122ea601983612ad3565b91507f4552433732313a20617070726f766520746f2063616c6c6572000000000000006000830152602082019050919050565b600061232a602c83612ad3565b91507f4552433732313a206f70657261746f7220717565727920666f72206e6f6e657860008301527f697374656e7420746f6b656e00000000000000000000000000000000000000006020830152604082019050919050565b6000612390603883612ad3565b91507f4552433732313a20617070726f76652063616c6c6572206973206e6f74206f7760008301527f6e6572206e6f7220617070726f76656420666f7220616c6c00000000000000006020830152604082019050919050565b60006123f6602a83612ad3565b91507f4552433732313a2062616c616e636520717565727920666f7220746865207a6560008301527f726f2061646472657373000000000000000000000000000000000000000000006020830152604082019050919050565b600061245c602983612ad3565b91507f4552433732313a206f776e657220717565727920666f72206e6f6e657869737460008301527f656e7420746f6b656e00000000000000000000000000000000000000000000006020830152604082019050919050565b60006124c2602083612ad3565b91507f4552433732313a206d696e7420746f20746865207a65726f20616464726573736000830152602082019050919050565b6000612502602c83612ad3565b91507f4552433732313a20617070726f76656420717565727920666f72206e6f6e657860008301527f697374656e7420746f6b656e00000000000000000000000000000000000000006020830152604082019050919050565b6000612568602983612ad3565b91507f4552433732313a207472616e73666572206f6620746f6b656e2074686174206960008301527f73206e6f74206f776e00000000000000000000000000000000000000000000006020830152604082019050919050565b60006125ce602f83612ad3565b91507f4552433732314d657461646174613a2055524920717565727920666f72206e6f60008301527f6e6578697374656e7420746f6b656e00000000000000000000000000000000006020830152604082019050919050565b6000612634602183612ad3565b91507f4552433732313a20617070726f76616c20746f2063757272656e74206f776e6560008301527f72000000000000000000000000000000000000000000000000000000000000006020830152604082019050919050565b600061269a603183612ad3565b91507f4552433732313a207472616e736665722063616c6c6572206973206e6f74206f60008301527f776e6572206e6f7220617070726f7665640000000000000000000000000000006020830152604082019050919050565b6000612700602c83612ad3565b91507f455243373231456e756d657261626c653a20676c6f62616c20696e646578206f60008301527f7574206f6620626f756e647300000000000000000000000000000000000000006020830152604082019050919050565b61276281612c14565b82525050565b6000612774828561213a565b9150612780828461213a565b91508190509392505050565b60006020820190506127a160008301846120aa565b92915050565b60006080820190506127bc60008301876120aa565b6127c960208301866120aa565b6127d66040830185612759565b81810360608301526127e881846120c8565b905095945050505050565b600060208201905061280860008301846120b9565b92915050565b600060208201905081810360008301526128288184612101565b905092915050565b600060208201905081810360008301526128498161216b565b9050919050565b60006020820190508181036000830152612869816121d1565b9050919050565b6000602082019050818103600083015261288981612237565b9050919050565b600060208201905081810360008301526128a981612277565b9050919050565b600060208201905081810360008301526128c9816122dd565b9050919050565b600060208201905081810360008301526128e98161231d565b9050919050565b6000602082019050818103600083015261290981612383565b9050919050565b60006020820190508181036000830152612929816123e9565b9050919050565b600060208201905081810360008301526129498161244f565b9050919050565b60006020820190508181036000830152612969816124b5565b9050919050565b60006020820190508181036000830152612989816124f5565b9050919050565b600060208201905081810360008301526129a98161255b565b9050919050565b600060208201905081810360008301526129c9816125c1565b9050919050565b600060208201905081810360008301526129e981612627565b9050919050565b60006020820190508181036000830152612a098161268d565b9050919050565b60006020820190508181036000830152612a29816126f3565b9050919050565b6000602082019050612a456000830184612759565b92915050565b6000604051905081810181811067ffffffffffffffff82111715612a7257612a71612d99565b5b8060405250919050565b600067ffffffffffffffff821115612a9757612a96612d99565b5b601f19601f8301169050602081019050919050565b600081519050919050565b600081519050919050565b600082825260208201905092915050565b600082825260208201905092915050565b600081905092915050565b6000612afa82612c14565b9150612b0583612c14565b9250827fffffffffffffffffffffffffffffffffffffffffffffffffffffffffffffffff03821115612b3a57612b39612d0c565b5b828201905092915050565b6000612b5082612c14565b9150612b5b83612c14565b925082612b6b57612b6a612d3b565b5b828204905092915050565b6000612b8182612c14565b9150612b8c83612c14565b925082821015612b9f57612b9e612d0c565b5b828203905092915050565b6000612bb582612bf4565b9050919050565b60008115159050919050565b60007fffffffff0000000000000000000000000000000000000000000000000000000082169050919050565b600073ffffffffffffffffffffffffffffffffffffffff82169050919050565b6000819050919050565b82818337600083830152505050565b60005b83811015612c4b578082015181840152602081019050612c30565b83811115612c5a576000848401525b50505050565b60006002820490506001821680612c7857607f821691505b60208210811415612c8c57612c8b612d6a565b5b50919050565b6000612c9d82612c14565b91507fffffffffffffffffffffffffffffffffffffffffffffffffffffffffffffffff821415612cd057612ccf612d0c565b5b600182019050919050565b6000612ce682612c14565b9150612cf183612c14565b925082612d0157612d00612d3b565b5b828206905092915050565b7f4e487b7100000000000000000000000000000000000000000000000000000000600052601160045260246000fd5b7f4e487b7100000000000000000000000000000000000000000000000000000000600052601260045260246000fd5b7f4e487b7100000000000000000000000000000000000000000000000000000000600052602260045260246000fd5b7f4e487b7100000000000000000000000000000000000000000000000000000000600052604160045260246000fd5b6000601f19601f8301169050919050565b612de281612baa565b8114612ded57600080fd5b50565b612df981612bbc565b8114612e0457600080fd5b50565b612e1081612bc8565b8114612e1b57600080fd5b50565b612e2781612c14565b8114612e3257600080fd5b5056fea26469706673582212202b6e0dc7b634fc4f680f1bf4551588ee9a99f15197619050ea11fedeb45f9bdc64736f6c63430008000033",
  "linkReferences": {},
  "deployedLinkReferences": {}
}