{
  "_format": "hh-sol-artifact-1",
  "contractName": "FakeNFT",
  "sourceName": "contracts/FakeNFT.sol",
  "abi": [
    {
      "inputs": [],
      "stateMutability": "nonpayable",
      "type": "constructor"
    },
    {
      "anonymous": false,
      "inputs": [
        {
          "indexed": true,
          "internalType": "address",
          "name": "owner",
          "type": "address"
        },
        {
          "indexed": true,
          "internalType": "address",
          "name": "approved",
          "type": "address"
        },
        {
          "indexed": true,
          "internalType": "uint256",
          "name": "tokenId",
          "type": "uint256"
        }
      ],
      "name": "Approval",
      "type": "event"
    },
    {
      "anonymous": false,
      "inputs": [
        {
          "indexed": true,
          "internalType": "address",
          "name": "owner",
          "type": "address"
        },
        {
          "indexed": true,
          "internalType": "address",
          "name": "operator",
          "type": "address"
        },
        {
          "indexed": false,
          "internalType": "bool",
          "name": "approved",
          "type": "bool"
        }
      ],
      "name": "ApprovalForAll",
      "type": "event"
    },
    {
      "anonymous": false,
      "inputs": [
        {
          "indexed": true,
          "internalType": "address",
          "name": "from",
          "type": "address"
        },
        {
          "indexed": true,
          "internalType": "address",
          "name": "to",
          "type": "address"
        },
        {
          "indexed": true,
          "internalType": "uint256",
          "name": "tokenId",
          "type": "uint256"
        }
      ],
      "name": "Transfer",
      "type": "event"
    },
    {
      "inputs": [
        {
          "internalType": "address",
          "name": "to",
          "type": "address"
        },
        {
          "internalType": "uint256",
          "name": "tokenId",
          "type": "uint256"
        }
      ],
      "name": "approve",
      "outputs": [],
      "stateMutability": "nonpayable",
      "type": "function"
    },
    {
      "inputs": [
        {
          "internalType": "address",
          "name": "owner",
          "type": "address"
        }
      ],
      "name": "balanceOf",
      "outputs": [
        {
          "internalType": "uint256",
          "name": "",
          "type": "uint256"
        }
      ],
      "stateMutability": "view",
      "type": "function"
    },
    {
      "inputs": [
        {
          "internalType": "uint256",
          "name": "tokenId",
          "type": "uint256"
        }
      ],
      "name": "getApproved",
      "outputs": [
        {
          "internalType": "address",
          "name": "",
          "type": "address"
        }
      ],
      "stateMutability": "view",
      "type": "function"
    },
    {
      "inputs": [
        {
          "internalType": "address",
          "name": "owner",
          "type": "address"
        },
        {
          "internalType": "address",
          "name": "operator",
          "type": "address"
        }
      ],
      "name": "isApprovedForAll",
      "outputs": [
        {
          "internalType": "bool",
          "name": "",
          "type": "bool"
        }
      ],
      "stateMutability": "view",
      "type": "function"
    },
    {
      "inputs": [
        {
          "internalType": "uint256",
          "name": "number",
          "type": "uint256"
        }
      ],
      "name": "mint",
      "outputs": [],
      "stateMutability": "nonpayable",
      "type": "function"
    },
    {
      "inputs": [],
      "name": "name",
      "outputs": [
        {
          "internalType": "string",
          "name": "",
          "type": "string"
        }
      ],
      "stateMutability": "view",
      "type": "function"
    },
    {
      "inputs": [
        {
          "internalType": "uint256",
          "name": "tokenId",
          "type": "uint256"
        }
      ],
      "name": "ownerOf",
      "outputs": [
        {
          "internalType": "address",
          "name": "",
          "type": "address"
        }
      ],
      "stateMutability": "view",
      "type": "function"
    },
    {
      "inputs": [
        {
          "internalType": "address",
          "name": "from",
          "type": "address"
        },
        {
          "internalType": "address",
          "name": "to",
          "type": "address"
        },
        {
          "internalType": "uint256",
          "name": "tokenId",
          "type": "uint256"
        }
      ],
      "name": "safeTransferFrom",
      "outputs": [],
      "stateMutability": "nonpayable",
      "type": "function"
    },
    {
      "inputs": [
        {
          "internalType": "address",
          "name": "from",
          "type": "address"
        },
        {
          "internalType": "address",
          "name": "to",
          "type": "address"
        },
        {
          "internalType": "uint256",
          "name": "tokenId",
          "type": "uint256"
        },
        {
          "internalType": "bytes",
          "name": "_data",
          "type": "bytes"
        }
      ],
      "name": "safeTransferFrom",
      "outputs": [],
      "stateMutability": "nonpayable",
      "type": "function"
    },
    {
      "inputs": [
        {
          "internalType": "address",
          "name": "operator",
          "type": "address"
        },
        {
          "internalType": "bool",
          "name": "approved",
          "type": "bool"
        }
      ],
      "name": "setApprovalForAll",
      "outputs": [],
      "stateMutability": "nonpayable",
      "type": "function"
    },
    {
      "inputs": [
        {
          "internalType": "bytes4",
          "name": "interfaceId",
          "type": "bytes4"
        }
      ],
      "name": "supportsInterface",
      "outputs": [
        {
          "internalType": "bool",
          "name": "",
          "type": "bool"
        }
      ],
      "stateMutability": "view",
      "type": "function"
    },
    {
      "inputs": [],
      "name": "symbol",
      "outputs": [
        {
          "internalType": "string",
          "name": "",
          "type": "string"
        }
      ],
      "stateMutability": "view",
      "type": "function"
    },
    {
      "inputs": [
        {
          "internalType": "uint256",
          "name": "tokenId",
          "type": "uint256"
        }
      ],
      "name": "tokenURI",
      "outputs": [
        {
          "internalType": "string",
          "name": "",
          "type": "string"
        }
      ],
      "stateMutability": "view",
      "type": "function"
    },
    {
      "inputs": [
        {
          "internalType": "address",
          "name": "from",
          "type": "address"
        },
        {
          "internalType": "address",
          "name": "to",
          "type": "address"
        },
        {
          "internalType": "uint256",
          "name": "tokenId",
          "type": "uint256"
        }
      ],
      "name": "transferFrom",
      "outputs": [],
      "stateMutability": "nonpayable",
      "type": "function"
    }
  ],
  "bytecode": "0x608060405260016007553480156200001657600080fd5b506040518060400160405280600d81526020017f436869636b656e204b61747375000000000000000000000000000000000000008152506040518060400160405280600481526020017f4b4153550000000000000000000000000000000000000000000000000000000081525081600090805190602001906200009b929190620000bd565b508060019080519060200190620000b4929190620000bd565b505050620001d2565b828054620000cb906200016d565b90600052602060002090601f016020900481019282620000ef57600085556200013b565b82601f106200010a57805160ff19168380011785556200013b565b828001600101855582156200013b579182015b828111156200013a5782518255916020019190600101906200011d565b5b5090506200014a91906200014e565b5090565b5b80821115620001695760008160009055506001016200014f565b5090565b600060028204905060018216806200018657607f821691505b602082108114156200019d576200019c620001a3565b5b50919050565b7f4e487b7100000000000000000000000000000000000000000000000000000000600052602260045260246000fd5b61284980620001e26000396000f3fe608060405234801561001057600080fd5b50600436106100ea5760003560e01c806370a082311161008c578063a22cb46511610066578063a22cb4651461025b578063b88d4fde14610277578063c87b56dd14610293578063e985e9c5146102c3576100ea565b806370a08231146101f157806395d89b4114610221578063a0712d681461023f576100ea565b8063095ea7b3116100c8578063095ea7b31461016d57806323b872dd1461018957806342842e0e146101a55780636352211e146101c1576100ea565b806301ffc9a7146100ef57806306fdde031461011f578063081812fc1461013d575b600080fd5b61010960048036038101906101049190611a93565b6102f3565b60405161011691906121f1565b60405180910390f35b6101276103d5565b604051610134919061220c565b60405180910390f35b61015760048036038101906101529190611ae5565b610467565b604051610164919061218a565b60405180910390f35b61018760048036038101906101829190611a57565b6104ec565b005b6101a3600480360381019061019e9190611951565b610604565b005b6101bf60048036038101906101ba9190611951565b610664565b005b6101db60048036038101906101d69190611ae5565b610684565b6040516101e8919061218a565b60405180910390f35b61020b600480360381019061020691906118ec565b610736565b604051610218919061240e565b60405180910390f35b6102296107ee565b604051610236919061220c565b60405180910390f35b61025960048036038101906102549190611ae5565b610880565b005b61027560048036038101906102709190611a1b565b6108c2565b005b610291600480360381019061028c91906119a0565b6108d8565b005b6102ad60048036038101906102a89190611ae5565b61093a565b6040516102ba919061220c565b60405180910390f35b6102dd60048036038101906102d89190611915565b610a8c565b6040516102ea91906121f1565b60405180910390f35b60007f80ac58cd000000000000000000000000000000000000000000000000000000007bffffffffffffffffffffffffffffffffffffffffffffffffffffffff1916827bffffffffffffffffffffffffffffffffffffffffffffffffffffffff191614806103be57507f5b5e139f000000000000000000000000000000000000000000000000000000007bffffffffffffffffffffffffffffffffffffffffffffffffffffffff1916827bffffffffffffffffffffffffffffffffffffffffffffffffffffffff1916145b806103ce57506103cd82610b20565b5b9050919050565b6060600080546103e49061263e565b80601f01602080910402602001604051908101604052809291908181526020018280546104109061263e565b801561045d5780601f106104325761010080835404028352916020019161045d565b820191906000526020600020905b81548152906001019060200180831161044057829003601f168201915b5050505050905090565b600061047282610b8a565b6104b1576040517f08c379a00000000000000000000000000000000000000000000000000000000081526004016104a89061236e565b60405180910390fd5b6004600083815260200190815260200160002060009054906101000a900473ffffffffffffffffffffffffffffffffffffffff169050919050565b60006104f782610684565b90508073ffffffffffffffffffffffffffffffffffffffff168373ffffffffffffffffffffffffffffffffffffffff161415610568576040517f08c379a000000000000000000000000000000000000000000000000000000000815260040161055f906123ce565b60405180910390fd5b8073ffffffffffffffffffffffffffffffffffffffff16610587610bf6565b73ffffffffffffffffffffffffffffffffffffffff1614806105b657506105b5816105b0610bf6565b610a8c565b5b6105f5576040517f08c379a00000000000000000000000000000000000000000000000000000000081526004016105ec906122ce565b60405180910390fd5b6105ff8383610bfe565b505050565b61061561060f610bf6565b82610cb7565b610654576040517f08c379a000000000000000000000000000000000000000000000000000000000815260040161064b906123ee565b60405180910390fd5b61065f838383610d95565b505050565b61067f838383604051806020016040528060008152506108d8565b505050565b6000806002600084815260200190815260200160002060009054906101000a900473ffffffffffffffffffffffffffffffffffffffff169050600073ffffffffffffffffffffffffffffffffffffffff168173ffffffffffffffffffffffffffffffffffffffff16141561072d576040517f08c379a00000000000000000000000000000000000000000000000000000000081526004016107249061230e565b60405180910390fd5b80915050919050565b60008073ffffffffffffffffffffffffffffffffffffffff168273ffffffffffffffffffffffffffffffffffffffff1614156107a7576040517f08c379a000000000000000000000000000000000000000000000000000000000815260040161079e906122ee565b60405180910390fd5b600360008373ffffffffffffffffffffffffffffffffffffffff1673ffffffffffffffffffffffffffffffffffffffff168152602001908152602001600020549050919050565b6060600180546107fd9061263e565b80601f01602080910402602001604051908101604052809291908181526020018280546108299061263e565b80156108765780601f1061084b57610100808354040283529160200191610876565b820191906000526020600020905b81548152906001019060200180831161085957829003601f168201915b5050505050905090565b60005b818110156108be576108ab33600760008154809291906108a290612670565b91905055610ff1565b80806108b690612670565b915050610883565b5050565b6108d46108cd610bf6565b838361100f565b5050565b6108e96108e3610bf6565b83610cb7565b610928576040517f08c379a000000000000000000000000000000000000000000000000000000000815260040161091f906123ee565b60405180910390fd5b6109348484848461117c565b50505050565b606061094582610b8a565b610984576040517f08c379a000000000000000000000000000000000000000000000000000000000815260040161097b9061234e565b60405180910390fd5b60006006600084815260200190815260200160002080546109a49061263e565b80601f01602080910402602001604051908101604052809291908181526020018280546109d09061263e565b8015610a1d5780601f106109f257610100808354040283529160200191610a1d565b820191906000526020600020905b815481529060010190602001808311610a0057829003601f168201915b505050505090506000610a2e6111d8565b9050600081511415610a44578192505050610a87565b600082511115610a79578082604051602001610a61929190612166565b60405160208183030381529060405292505050610a87565b610a82846111ef565b925050505b919050565b6000600560008473ffffffffffffffffffffffffffffffffffffffff1673ffffffffffffffffffffffffffffffffffffffff16815260200190815260200160002060008373ffffffffffffffffffffffffffffffffffffffff1673ffffffffffffffffffffffffffffffffffffffff16815260200190815260200160002060009054906101000a900460ff16905092915050565b60007f01ffc9a7000000000000000000000000000000000000000000000000000000007bffffffffffffffffffffffffffffffffffffffffffffffffffffffff1916827bffffffffffffffffffffffffffffffffffffffffffffffffffffffff1916149050919050565b60008073ffffffffffffffffffffffffffffffffffffffff166002600084815260200190815260200160002060009054906101000a900473ffffffffffffffffffffffffffffffffffffffff1673ffffffffffffffffffffffffffffffffffffffff1614159050919050565b600033905090565b816004600083815260200190815260200160002060006101000a81548173ffffffffffffffffffffffffffffffffffffffff021916908373ffffffffffffffffffffffffffffffffffffffff160217905550808273ffffffffffffffffffffffffffffffffffffffff16610c7183610684565b73ffffffffffffffffffffffffffffffffffffffff167f8c5be1e5ebec7d5bd14f71427d1e84f3dd0314c0f7b2291e5b200ac8c7c3b92560405160405180910390a45050565b6000610cc282610b8a565b610d01576040517f08c379a0000000000000000000000000000000000000000000000000000000008152600401610cf8906122ae565b60405180910390fd5b6000610d0c83610684565b90508073ffffffffffffffffffffffffffffffffffffffff168473ffffffffffffffffffffffffffffffffffffffff161480610d7b57508373ffffffffffffffffffffffffffffffffffffffff16610d6384610467565b73ffffffffffffffffffffffffffffffffffffffff16145b80610d8c5750610d8b8185610a8c565b5b91505092915050565b8273ffffffffffffffffffffffffffffffffffffffff16610db582610684565b73ffffffffffffffffffffffffffffffffffffffff1614610e0b576040517f08c379a0000000000000000000000000000000000000000000000000000000008152600401610e029061238e565b60405180910390fd5b600073ffffffffffffffffffffffffffffffffffffffff168273ffffffffffffffffffffffffffffffffffffffff161415610e7b576040517f08c379a0000000000000000000000000000000000000000000000000000000008152600401610e729061226e565b60405180910390fd5b610e86838383611296565b610e91600082610bfe565b6001600360008573ffffffffffffffffffffffffffffffffffffffff1673ffffffffffffffffffffffffffffffffffffffff1681526020019081526020016000206000828254610ee19190612554565b925050819055506001600360008473ffffffffffffffffffffffffffffffffffffffff1673ffffffffffffffffffffffffffffffffffffffff1681526020019081526020016000206000828254610f3891906124cd565b92505081905550816002600083815260200190815260200160002060006101000a81548173ffffffffffffffffffffffffffffffffffffffff021916908373ffffffffffffffffffffffffffffffffffffffff160217905550808273ffffffffffffffffffffffffffffffffffffffff168473ffffffffffffffffffffffffffffffffffffffff167fddf252ad1be2c89b69c2b068fc378daa952ba7f163c4a11628f55a4df523b3ef60405160405180910390a4505050565b61100b82826040518060200160405280600081525061129b565b5050565b8173ffffffffffffffffffffffffffffffffffffffff168373ffffffffffffffffffffffffffffffffffffffff16141561107e576040517f08c379a00000000000000000000000000000000000000000000000000000000081526004016110759061228e565b60405180910390fd5b80600560008573ffffffffffffffffffffffffffffffffffffffff1673ffffffffffffffffffffffffffffffffffffffff16815260200190815260200160002060008473ffffffffffffffffffffffffffffffffffffffff1673ffffffffffffffffffffffffffffffffffffffff16815260200190815260200160002060006101000a81548160ff0219169083151502179055508173ffffffffffffffffffffffffffffffffffffffff168373ffffffffffffffffffffffffffffffffffffffff167f17307eab39ab6107e8899845ad3d59bd9653f200f220920489ca2b5937696c318360405161116f91906121f1565b60405180910390a3505050565b611187848484610d95565b611193848484846112f6565b6111d2576040517f08c379a00000000000000000000000000000000000000000000000000000000081526004016111c99061222e565b60405180910390fd5b50505050565b606060405180602001604052806000815250905090565b60606111fa82610b8a565b611239576040517f08c379a0000000000000000000000000000000000000000000000000000000008152600401611230906123ae565b60405180910390fd5b60006112436111d8565b90506000815111611263576040518060200160405280600081525061128e565b8061126d8461148d565b60405160200161127e929190612166565b6040516020818303038152906040525b915050919050565b505050565b6112a5838361163a565b6112b260008484846112f6565b6112f1576040517f08c379a00000000000000000000000000000000000000000000000000000000081526004016112e89061222e565b60405180910390fd5b505050565b60006113178473ffffffffffffffffffffffffffffffffffffffff16611808565b15611480578373ffffffffffffffffffffffffffffffffffffffff1663150b7a02611340610bf6565b8786866040518563ffffffff1660e01b815260040161136294939291906121a5565b602060405180830381600087803b15801561137c57600080fd5b505af19250505080156113ad57506040513d601f19601f820116820180604052508101906113aa9190611abc565b60015b611430573d80600081146113dd576040519150601f19603f3d011682016040523d82523d6000602084013e6113e2565b606091505b50600081511415611428576040517f08c379a000000000000000000000000000000000000000000000000000000000815260040161141f9061222e565b60405180910390fd5b805181602001fd5b63150b7a0260e01b7bffffffffffffffffffffffffffffffffffffffffffffffffffffffff1916817bffffffffffffffffffffffffffffffffffffffffffffffffffffffff191614915050611485565b600190505b949350505050565b606060008214156114d5576040518060400160405280600181526020017f30000000000000000000000000000000000000000000000000000000000000008152509050611635565b600082905060005b600082146115075780806114f090612670565b915050600a826115009190612523565b91506114dd565b60008167ffffffffffffffff811115611549577f4e487b7100000000000000000000000000000000000000000000000000000000600052604160045260246000fd5b6040519080825280601f01601f19166020018201604052801561157b5781602001600182028036833780820191505090505b5090505b6000851461162e576001826115949190612554565b9150600a856115a391906126b9565b60306115af91906124cd565b60f81b8183815181106115eb577f4e487b7100000000000000000000000000000000000000000000000000000000600052603260045260246000fd5b60200101907effffffffffffffffffffffffffffffffffffffffffffffffffffffffffffff1916908160001a905350600a856116279190612523565b945061157f565b8093505050505b919050565b600073ffffffffffffffffffffffffffffffffffffffff168273ffffffffffffffffffffffffffffffffffffffff1614156116aa576040517f08c379a00000000000000000000000000000000000000000000000000000000081526004016116a19061232e565b60405180910390fd5b6116b381610b8a565b156116f3576040517f08c379a00000000000000000000000000000000000000000000000000000000081526004016116ea9061224e565b60405180910390fd5b6116ff60008383611296565b6001600360008473ffffffffffffffffffffffffffffffffffffffff1673ffffffffffffffffffffffffffffffffffffffff168152602001908152602001600020600082825461174f91906124cd565b92505081905550816002600083815260200190815260200160002060006101000a81548173ffffffffffffffffffffffffffffffffffffffff021916908373ffffffffffffffffffffffffffffffffffffffff160217905550808273ffffffffffffffffffffffffffffffffffffffff16600073ffffffffffffffffffffffffffffffffffffffff167fddf252ad1be2c89b69c2b068fc378daa952ba7f163c4a11628f55a4df523b3ef60405160405180910390a45050565b600080823b905060008111915050919050565b600061182e6118298461245a565b612429565b90508281526020810184848401111561184657600080fd5b6118518482856125fc565b509392505050565b600081359050611868816127b7565b92915050565b60008135905061187d816127ce565b92915050565b600081359050611892816127e5565b92915050565b6000815190506118a7816127e5565b92915050565b600082601f8301126118be57600080fd5b81356118ce84826020860161181b565b91505092915050565b6000813590506118e6816127fc565b92915050565b6000602082840312156118fe57600080fd5b600061190c84828501611859565b91505092915050565b6000806040838503121561192857600080fd5b600061193685828601611859565b925050602061194785828601611859565b9150509250929050565b60008060006060848603121561196657600080fd5b600061197486828701611859565b935050602061198586828701611859565b9250506040611996868287016118d7565b9150509250925092565b600080600080608085870312156119b657600080fd5b60006119c487828801611859565b94505060206119d587828801611859565b93505060406119e6878288016118d7565b925050606085013567ffffffffffffffff811115611a0357600080fd5b611a0f878288016118ad565b91505092959194509250565b60008060408385031215611a2e57600080fd5b6000611a3c85828601611859565b9250506020611a4d8582860161186e565b9150509250929050565b60008060408385031215611a6a57600080fd5b6000611a7885828601611859565b9250506020611a89858286016118d7565b9150509250929050565b600060208284031215611aa557600080fd5b6000611ab384828501611883565b91505092915050565b600060208284031215611ace57600080fd5b6000611adc84828501611898565b91505092915050565b600060208284031215611af757600080fd5b6000611b05848285016118d7565b91505092915050565b611b1781612588565b82525050565b611b268161259a565b82525050565b6000611b378261248a565b611b4181856124a0565b9350611b5181856020860161260b565b611b5a816127a6565b840191505092915050565b6000611b7082612495565b611b7a81856124b1565b9350611b8a81856020860161260b565b611b93816127a6565b840191505092915050565b6000611ba982612495565b611bb381856124c2565b9350611bc381856020860161260b565b80840191505092915050565b6000611bdc6032836124b1565b91507f4552433732313a207472616e7366657220746f206e6f6e20455243373231526560008301527f63656976657220696d706c656d656e74657200000000000000000000000000006020830152604082019050919050565b6000611c42601c836124b1565b91507f4552433732313a20746f6b656e20616c7265616479206d696e746564000000006000830152602082019050919050565b6000611c826024836124b1565b91507f4552433732313a207472616e7366657220746f20746865207a65726f2061646460008301527f72657373000000000000000000000000000000000000000000000000000000006020830152604082019050919050565b6000611ce86019836124b1565b91507f4552433732313a20617070726f766520746f2063616c6c6572000000000000006000830152602082019050919050565b6000611d28602c836124b1565b91507f4552433732313a206f70657261746f7220717565727920666f72206e6f6e657860008301527f697374656e7420746f6b656e00000000000000000000000000000000000000006020830152604082019050919050565b6000611d8e6038836124b1565b91507f4552433732313a20617070726f76652063616c6c6572206973206e6f74206f7760008301527f6e6572206e6f7220617070726f76656420666f7220616c6c00000000000000006020830152604082019050919050565b6000611df4602a836124b1565b91507f4552433732313a2062616c616e636520717565727920666f7220746865207a6560008301527f726f2061646472657373000000000000000000000000000000000000000000006020830152604082019050919050565b6000611e5a6029836124b1565b91507f4552433732313a206f776e657220717565727920666f72206e6f6e657869737460008301527f656e7420746f6b656e00000000000000000000000000000000000000000000006020830152604082019050919050565b6000611ec06020836124b1565b91507f4552433732313a206d696e7420746f20746865207a65726f20616464726573736000830152602082019050919050565b6000611f006031836124b1565b91507f45524337323155524953746f726167653a2055524920717565727920666f722060008301527f6e6f6e6578697374656e7420746f6b656e0000000000000000000000000000006020830152604082019050919050565b6000611f66602c836124b1565b91507f4552433732313a20617070726f76656420717565727920666f72206e6f6e657860008301527f697374656e7420746f6b656e00000000000000000000000000000000000000006020830152604082019050919050565b6000611fcc6029836124b1565b91507f4552433732313a207472616e73666572206f6620746f6b656e2074686174206960008301527f73206e6f74206f776e00000000000000000000000000000000000000000000006020830152604082019050919050565b6000612032602f836124b1565b91507f4552433732314d657461646174613a2055524920717565727920666f72206e6f60008301527f6e6578697374656e7420746f6b656e00000000000000000000000000000000006020830152604082019050919050565b60006120986021836124b1565b91507f4552433732313a20617070726f76616c20746f2063757272656e74206f776e6560008301527f72000000000000000000000000000000000000000000000000000000000000006020830152604082019050919050565b60006120fe6031836124b1565b91507f4552433732313a207472616e736665722063616c6c6572206973206e6f74206f60008301527f776e6572206e6f7220617070726f7665640000000000000000000000000000006020830152604082019050919050565b612160816125f2565b82525050565b60006121728285611b9e565b915061217e8284611b9e565b91508190509392505050565b600060208201905061219f6000830184611b0e565b92915050565b60006080820190506121ba6000830187611b0e565b6121c76020830186611b0e565b6121d46040830185612157565b81810360608301526121e68184611b2c565b905095945050505050565b60006020820190506122066000830184611b1d565b92915050565b600060208201905081810360008301526122268184611b65565b905092915050565b6000602082019050818103600083015261224781611bcf565b9050919050565b6000602082019050818103600083015261226781611c35565b9050919050565b6000602082019050818103600083015261228781611c75565b9050919050565b600060208201905081810360008301526122a781611cdb565b9050919050565b600060208201905081810360008301526122c781611d1b565b9050919050565b600060208201905081810360008301526122e781611d81565b9050919050565b6000602082019050818103600083015261230781611de7565b9050919050565b6000602082019050818103600083015261232781611e4d565b9050919050565b6000602082019050818103600083015261234781611eb3565b9050919050565b6000602082019050818103600083015261236781611ef3565b9050919050565b6000602082019050818103600083015261238781611f59565b9050919050565b600060208201905081810360008301526123a781611fbf565b9050919050565b600060208201905081810360008301526123c781612025565b9050919050565b600060208201905081810360008301526123e78161208b565b9050919050565b60006020820190508181036000830152612407816120f1565b9050919050565b60006020820190506124236000830184612157565b92915050565b6000604051905081810181811067ffffffffffffffff821117156124505761244f612777565b5b8060405250919050565b600067ffffffffffffffff82111561247557612474612777565b5b601f19601f8301169050602081019050919050565b600081519050919050565b600081519050919050565b600082825260208201905092915050565b600082825260208201905092915050565b600081905092915050565b60006124d8826125f2565b91506124e3836125f2565b9250827fffffffffffffffffffffffffffffffffffffffffffffffffffffffffffffffff03821115612518576125176126ea565b5b828201905092915050565b600061252e826125f2565b9150612539836125f2565b92508261254957612548612719565b5b828204905092915050565b600061255f826125f2565b915061256a836125f2565b92508282101561257d5761257c6126ea565b5b828203905092915050565b6000612593826125d2565b9050919050565b60008115159050919050565b60007fffffffff0000000000000000000000000000000000000000000000000000000082169050919050565b600073ffffffffffffffffffffffffffffffffffffffff82169050919050565b6000819050919050565b82818337600083830152505050565b60005b8381101561262957808201518184015260208101905061260e565b83811115612638576000848401525b50505050565b6000600282049050600182168061265657607f821691505b6020821081141561266a57612669612748565b5b50919050565b600061267b826125f2565b91507fffffffffffffffffffffffffffffffffffffffffffffffffffffffffffffffff8214156126ae576126ad6126ea565b5b600182019050919050565b60006126c4826125f2565b91506126cf836125f2565b9250826126df576126de612719565b5b828206905092915050565b7f4e487b7100000000000000000000000000000000000000000000000000000000600052601160045260246000fd5b7f4e487b7100000000000000000000000000000000000000000000000000000000600052601260045260246000fd5b7f4e487b7100000000000000000000000000000000000000000000000000000000600052602260045260246000fd5b7f4e487b7100000000000000000000000000000000000000000000000000000000600052604160045260246000fd5b6000601f19601f8301169050919050565b6127c081612588565b81146127cb57600080fd5b50565b6127d78161259a565b81146127e257600080fd5b50565b6127ee816125a6565b81146127f957600080fd5b50565b612805816125f2565b811461281057600080fd5b5056fea2646970667358221220c502dc3fa8005cad03698912bbd1ab404a2c382ddcb92c0983b96843dde30a8564736f6c63430008000033",
  "linkReferences": {},
  "deployedLinkReferences": {}
}