{
  "_format": "hh-sol-artifact-1",
  "contractName": "Kasu",
  "sourceName": "contracts/Kasu.sol",
  "abi": [
    {
      "anonymous": false,
      "inputs": [
        {
          "indexed": false,
          "internalType": "uint256",
          "name": "listingId",
          "type": "uint256"
        },
        {
          "indexed": true,
          "internalType": "uint256",
          "name": "tokenId",
          "type": "uint256"
        },
        {
          "indexed": true,
          "internalType": "address",
          "name": "tokenAddress",
          "type": "address"
        },
        {
          "indexed": true,
          "internalType": "address",
          "name": "lenderAddress",
          "type": "address"
        },
        {
          "indexed": false,
          "internalType": "uint16",
          "name": "duration",
          "type": "uint16"
        },
        {
          "indexed": false,
          "internalType": "uint16",
          "name": "dailyInterestRate",
          "type": "uint16"
        },
        {
          "indexed": false,
          "internalType": "uint256",
          "name": "collateralRequired",
          "type": "uint256"
        }
      ],
      "name": "ListNFT",
      "type": "event"
    },
    {
      "inputs": [
        {
          "internalType": "uint256",
          "name": "listingId",
          "type": "uint256"
        }
      ],
      "name": "borrow",
      "outputs": [],
      "stateMutability": "nonpayable",
      "type": "function"
    },
    {
      "inputs": [],
      "name": "getListingCount",
      "outputs": [
        {
          "internalType": "uint256",
          "name": "",
          "type": "uint256"
        }
      ],
      "stateMutability": "view",
      "type": "function"
    },
    {
      "inputs": [
        {
          "internalType": "uint256",
          "name": "tokenId",
          "type": "uint256"
        },
        {
          "internalType": "address",
          "name": "tokenAddress",
          "type": "address"
        },
        {
          "internalType": "uint16",
          "name": "duration",
          "type": "uint16"
        },
        {
          "internalType": "uint16",
          "name": "dailyInterestRate",
          "type": "uint16"
        },
        {
          "internalType": "uint256",
          "name": "collateralRequired",
          "type": "uint256"
        }
      ],
      "name": "listNFT",
      "outputs": [],
      "stateMutability": "nonpayable",
      "type": "function"
    },
    {
      "inputs": [
        {
          "internalType": "uint256",
          "name": "listingId",
          "type": "uint256"
        }
      ],
      "name": "returnNFT",
      "outputs": [],
      "stateMutability": "nonpayable",
      "type": "function"
    },
    {
      "inputs": [
        {
          "internalType": "uint256",
          "name": "listingId",
          "type": "uint256"
        }
      ],
      "name": "terminateRental",
      "outputs": [],
      "stateMutability": "nonpayable",
      "type": "function"
    },
    {
      "inputs": [
        {
          "internalType": "uint256",
          "name": "listingId",
          "type": "uint256"
        }
      ],
      "name": "unListNFT",
      "outputs": [],
      "stateMutability": "nonpayable",
      "type": "function"
    },
    {
      "inputs": [],
      "name": "viewAllListings",
      "outputs": [
        {
          "components": [
            {
              "internalType": "uint256",
              "name": "id",
              "type": "uint256"
            },
            {
              "internalType": "uint256",
              "name": "tokenId",
              "type": "uint256"
            },
            {
              "internalType": "address",
              "name": "tokenAddress",
              "type": "address"
            },
            {
              "internalType": "address payable",
              "name": "lenderAddress",
              "type": "address"
            },
            {
              "internalType": "uint16",
              "name": "duration",
              "type": "uint16"
            },
            {
              "internalType": "uint16",
              "name": "dailyInterestRate",
              "type": "uint16"
            },
            {
              "internalType": "uint256",
              "name": "collateralRequired",
              "type": "uint256"
            },
            {
              "components": [
                {
                  "internalType": "address payable",
                  "name": "borrowerAddress",
                  "type": "address"
                },
                {
                  "internalType": "uint16",
                  "name": "rentDuration",
                  "type": "uint16"
                },
                {
                  "internalType": "uint256",
                  "name": "rentedAt",
                  "type": "uint256"
                }
              ],
              "internalType": "struct KasuStorage.Rental",
              "name": "rental",
              "type": "tuple"
            },
            {
              "internalType": "enum KasuStorage.RentalStatus",
              "name": "rentalStatus",
              "type": "uint8"
            }
          ],
          "internalType": "struct KasuStorage.Listing[]",
          "name": "",
          "type": "tuple[]"
        }
      ],
      "stateMutability": "view",
      "type": "function"
    },
    {
      "inputs": [
        {
          "internalType": "address",
          "name": "ownerAddress",
          "type": "address"
        }
      ],
      "name": "viewOwnerListings",
      "outputs": [
        {
          "components": [
            {
              "internalType": "uint256",
              "name": "id",
              "type": "uint256"
            },
            {
              "internalType": "uint256",
              "name": "tokenId",
              "type": "uint256"
            },
            {
              "internalType": "address",
              "name": "tokenAddress",
              "type": "address"
            },
            {
              "internalType": "address payable",
              "name": "lenderAddress",
              "type": "address"
            },
            {
              "internalType": "uint16",
              "name": "duration",
              "type": "uint16"
            },
            {
              "internalType": "uint16",
              "name": "dailyInterestRate",
              "type": "uint16"
            },
            {
              "internalType": "uint256",
              "name": "collateralRequired",
              "type": "uint256"
            },
            {
              "components": [
                {
                  "internalType": "address payable",
                  "name": "borrowerAddress",
                  "type": "address"
                },
                {
                  "internalType": "uint16",
                  "name": "rentDuration",
                  "type": "uint16"
                },
                {
                  "internalType": "uint256",
                  "name": "rentedAt",
                  "type": "uint256"
                }
              ],
              "internalType": "struct KasuStorage.Rental",
              "name": "rental",
              "type": "tuple"
            },
            {
              "internalType": "enum KasuStorage.RentalStatus",
              "name": "rentalStatus",
              "type": "uint8"
            }
          ],
          "internalType": "struct KasuStorage.Listing[]",
          "name": "",
          "type": "tuple[]"
        }
      ],
      "stateMutability": "nonpayable",
      "type": "function"
    },
    {
      "inputs": [
        {
          "internalType": "uint256",
          "name": "listingId",
          "type": "uint256"
        }
      ],
      "name": "viewRentedListings",
      "outputs": [],
      "stateMutability": "nonpayable",
      "type": "function"
    }
  ],
  "bytecode": "0x6080604052600160005534801561001557600080fd5b506115fe806100256000396000f3fe608060405234801561001057600080fd5b50600436106100935760003560e01c806387ed92d71161006657806387ed92d71461011e578063b0cd2aa01461013c578063c5ebeaec14610158578063d12456dd14610174578063f92174191461019057610093565b80630ca2f168146100985780630ed74103146100b45780637ac0da04146100e457806381fab02514610100575b600080fd5b6100b260048036038101906100ad9190610e64565b6101ac565b005b6100ce60048036038101906100c99190610e3b565b6101af565b6040516100db91906112db565b60405180910390f35b6100fe60048036038101906100f99190610e8d565b6101b6565b005b610108610342565b60405161011591906112db565b60405180910390f35b6101266106b5565b604051610133919061139d565b60405180910390f35b61015660048036038101906101519190610e64565b6106c4565b005b610172600480360381019061016d9190610e64565b6106c7565b005b61018e60048036038101906101899190610e64565b6106ca565b005b6101aa60048036038101906101a59190610e64565b6106cd565b005b50565b6060919050565b6000604051806101200160405280600081526020018781526020018673ffffffffffffffffffffffffffffffffffffffff1681526020013373ffffffffffffffffffffffffffffffffffffffff1681526020018561ffff1681526020018461ffff1681526020018381526020016040518060600160405280600073ffffffffffffffffffffffffffffffffffffffff168152602001600061ffff168152602001600081525081526020016001600281111561029a577f4e487b7100000000000000000000000000000000000000000000000000000000600052602160045260246000fd5b81525090506102a8816106d0565b6102b18161086c565b50806060015173ffffffffffffffffffffffffffffffffffffffff16816040015173ffffffffffffffffffffffffffffffffffffffff1682602001517f841156c3a44c81bdf9f2527f8b2db095c699e40a80e28351e3eff33653b88339846000015185608001518660a001518760c0015160405161033294939291906113b8565b60405180910390a4505050505050565b6060600061034e610a95565b90506000815167ffffffffffffffff811115610393577f4e487b7100000000000000000000000000000000000000000000000000000000600052604160045260246000fd5b6040519080825280602002602001820160405280156103cc57816020015b6103b9610d03565b8152602001906001900390816103b15790505b50905060005b82518110156106ac57610424838281518110610417577f4e487b7100000000000000000000000000000000000000000000000000000000600052603260045260246000fd5b6020026020010151610b98565b6040518061012001604052908160008201548152602001600182015481526020016002820160009054906101000a900473ffffffffffffffffffffffffffffffffffffffff1673ffffffffffffffffffffffffffffffffffffffff1673ffffffffffffffffffffffffffffffffffffffff1681526020016003820160009054906101000a900473ffffffffffffffffffffffffffffffffffffffff1673ffffffffffffffffffffffffffffffffffffffff1673ffffffffffffffffffffffffffffffffffffffff1681526020016003820160149054906101000a900461ffff1661ffff1661ffff1681526020016003820160169054906101000a900461ffff1661ffff1661ffff16815260200160048201548152602001600582016040518060600160405290816000820160009054906101000a900473ffffffffffffffffffffffffffffffffffffffff1673ffffffffffffffffffffffffffffffffffffffff1673ffffffffffffffffffffffffffffffffffffffff1681526020016000820160149054906101000a900461ffff1661ffff1661ffff16815260200160018201548152505081526020016007820160009054906101000a900460ff166002811115610619577f4e487b7100000000000000000000000000000000000000000000000000000000600052602160045260246000fd5b6002811115610651577f4e487b7100000000000000000000000000000000000000000000000000000000600052602160045260246000fd5b8152505082828151811061068e577f4e487b7100000000000000000000000000000000000000000000000000000000600052603260045260246000fd5b602002602001018190525080806106a4906114c8565b9150506103d2565b50809250505090565b60006106bf610bb4565b905090565b50565b50565b50565b50565b600081602001511415610718576040517f08c379a000000000000000000000000000000000000000000000000000000000815260040161070f9061133d565b60405180910390fd5b600073ffffffffffffffffffffffffffffffffffffffff16816040015173ffffffffffffffffffffffffffffffffffffffff16141561078c576040517f08c379a00000000000000000000000000000000000000000000000000000000081526004016107839061135d565b60405180910390fd5b6000816080015161ffff16116107d7576040517f08c379a00000000000000000000000000000000000000000000000000000000081526004016107ce9061131d565b60405180910390fd5b60008160a0015161ffff1611610822576040517f08c379a00000000000000000000000000000000000000000000000000000000081526004016108199061137d565b60405180910390fd5b60008160c0015111610869576040517f08c379a0000000000000000000000000000000000000000000000000000000008152600401610860906112fd565b60405180910390fd5b50565b6000806000815480929190610880906114c8565b91905055826000018181525050816001600084600001518152602001908152602001600020600082015181600001556020820151816001015560408201518160020160006101000a81548173ffffffffffffffffffffffffffffffffffffffff021916908373ffffffffffffffffffffffffffffffffffffffff16021790555060608201518160030160006101000a81548173ffffffffffffffffffffffffffffffffffffffff021916908373ffffffffffffffffffffffffffffffffffffffff16021790555060808201518160030160146101000a81548161ffff021916908361ffff16021790555060a08201518160030160166101000a81548161ffff021916908361ffff16021790555060c0820151816004015560e08201518160050160008201518160000160006101000a81548173ffffffffffffffffffffffffffffffffffffffff021916908373ffffffffffffffffffffffffffffffffffffffff16021790555060208201518160000160146101000a81548161ffff021916908361ffff1602179055506040820151816001015550506101008201518160070160006101000a81548160ff02191690836002811115610a68577f4e487b7100000000000000000000000000000000000000000000000000000000600052602160045260246000fd5b0217905550905050610a8882600001516002610bc590919063ffffffff16565b5081600001519050919050565b60606000610aa36002610bdf565b905060008167ffffffffffffffff811115610ae7577f4e487b7100000000000000000000000000000000000000000000000000000000600052604160045260246000fd5b604051908082528060200260200182016040528015610b155781602001602082028036833780820191505090505b50905060005b82811015610b8f57610b37816002610bf490919063ffffffff16565b828281518110610b70577f4e487b7100000000000000000000000000000000000000000000000000000000600052603260045260246000fd5b6020026020010181815250508080610b87906114c8565b915050610b1b565b50809250505090565b6000600160008381526020019081526020016000209050919050565b6000610bc06002610bdf565b905090565b6000610bd7836000018360001b610c0e565b905092915050565b6000610bed82600001610c7e565b9050919050565b6000610c038360000183610c8f565b60001c905092915050565b6000610c1a8383610ce0565b610c73578260000182908060018154018082558091505060019003906000526020600020016000909190919091505582600001805490508360010160008481526020019081526020016000208190555060019050610c78565b600090505b92915050565b600081600001805490509050919050565b6000826000018281548110610ccd577f4e487b7100000000000000000000000000000000000000000000000000000000600052603260045260246000fd5b9060005260206000200154905092915050565b600080836001016000848152602001908152602001600020541415905092915050565b6040518061012001604052806000815260200160008152602001600073ffffffffffffffffffffffffffffffffffffffff168152602001600073ffffffffffffffffffffffffffffffffffffffff168152602001600061ffff168152602001600061ffff16815260200160008152602001610d7c610dc1565b815260200160006002811115610dbb577f4e487b7100000000000000000000000000000000000000000000000000000000600052602160045260246000fd5b81525090565b6040518060600160405280600073ffffffffffffffffffffffffffffffffffffffff168152602001600061ffff168152602001600081525090565b600081359050610e0b81611583565b92915050565b600081359050610e208161159a565b92915050565b600081359050610e35816115b1565b92915050565b600060208284031215610e4d57600080fd5b6000610e5b84828501610dfc565b91505092915050565b600060208284031215610e7657600080fd5b6000610e8484828501610e26565b91505092915050565b600080600080600060a08688031215610ea557600080fd5b6000610eb388828901610e26565b9550506020610ec488828901610dfc565b9450506040610ed588828901610e11565b9350506060610ee688828901610e11565b9250506080610ef788828901610e26565b9150509295509295909350565b6000610f1083836111a6565b6101608301905092915050565b610f2681611459565b82525050565b610f3581611447565b82525050565b6000610f468261140d565b610f508185611425565b9350610f5b836113fd565b8060005b83811015610f8c578151610f738882610f04565b9750610f7e83611418565b925050600181019050610f5f565b5085935050505092915050565b610fa2816114b6565b82525050565b6000610fb5602e83611436565b91507f76616c69646174654c697374696e674e46543a3a20436f6c6c61746572616c2060008301527f63616e6e6f74206265207a65726f0000000000000000000000000000000000006020830152604082019050919050565b600061101b602c83611436565b91507f76616c69646174654c697374696e674e46543a3a204475726174696f6e20636160008301527f6e6e6f74206265207a65726f00000000000000000000000000000000000000006020830152604082019050919050565b6000611081602c83611436565b91507f76616c69646174654c697374696e674e46543a3a20546f6b656e49642063616e60008301527f6e6f7420626520656d70747900000000000000000000000000000000000000006020830152604082019050919050565b60006110e7603183611436565b91507f76616c69646174654c697374696e674e46543a3a20546f6b656e41646472657360008301527f732063616e6e6f7420626520656d7074790000000000000000000000000000006020830152604082019050919050565b600061114d603783611436565b91507f76616c69646174654c697374696e674e46543a3a204461696c7920696e74657260008301527f65737420726174652063616e6e6f74206265207a65726f0000000000000000006020830152604082019050919050565b610160820160008201516111bd60008501826112bd565b5060208201516111d060208501826112bd565b5060408201516111e36040850182610f2c565b5060608201516111f66060850182610f1d565b506080820151611209608085018261129f565b5060a082015161121c60a085018261129f565b5060c082015161122f60c08501826112bd565b5060e082015161124260e085018261125d565b50610100820151611257610140850182610f99565b50505050565b6060820160008201516112736000850182610f1d565b506020820151611286602085018261129f565b50604082015161129960408501826112bd565b50505050565b6112a88161147e565b82525050565b6112b78161147e565b82525050565b6112c6816114ac565b82525050565b6112d5816114ac565b82525050565b600060208201905081810360008301526112f58184610f3b565b905092915050565b6000602082019050818103600083015261131681610fa8565b9050919050565b600060208201905081810360008301526113368161100e565b9050919050565b6000602082019050818103600083015261135681611074565b9050919050565b60006020820190508181036000830152611376816110da565b9050919050565b6000602082019050818103600083015261139681611140565b9050919050565b60006020820190506113b260008301846112cc565b92915050565b60006080820190506113cd60008301876112cc565b6113da60208301866112ae565b6113e760408301856112ae565b6113f460608301846112cc565b95945050505050565b6000819050602082019050919050565b600081519050919050565b6000602082019050919050565b600082825260208201905092915050565b600082825260208201905092915050565b60006114528261148c565b9050919050565b60006114648261148c565b9050919050565b60008190506114798261156f565b919050565b600061ffff82169050919050565b600073ffffffffffffffffffffffffffffffffffffffff82169050919050565b6000819050919050565b60006114c18261146b565b9050919050565b60006114d3826114ac565b91507fffffffffffffffffffffffffffffffffffffffffffffffffffffffffffffffff82141561150657611505611511565b5b600182019050919050565b7f4e487b7100000000000000000000000000000000000000000000000000000000600052601160045260246000fd5b7f4e487b7100000000000000000000000000000000000000000000000000000000600052602160045260246000fd5b600381106115805761157f611540565b5b50565b61158c81611447565b811461159757600080fd5b50565b6115a38161147e565b81146115ae57600080fd5b50565b6115ba816114ac565b81146115c557600080fd5b5056fea26469706673582212201c5c6047bb64dfc0952ef3bc728071613c242505683f57ae5296987d3efee37664736f6c63430008000033",
  "linkReferences": {},
  "deployedLinkReferences": {}
}