{
  "_format": "hh-sol-artifact-1",
  "contractName": "Kasu",
  "sourceName": "contracts/Kasu.sol",
  "abi": [
    {
      "anonymous": false,
      "inputs": [
        {
          "indexed": false,
          "internalType": "uint256",
          "name": "listingId",
          "type": "uint256"
        },
        {
          "indexed": true,
          "internalType": "uint256",
          "name": "tokenId",
          "type": "uint256"
        },
        {
          "indexed": true,
          "internalType": "address",
          "name": "tokenAddress",
          "type": "address"
        },
        {
          "indexed": true,
          "internalType": "address",
          "name": "lenderAddress",
          "type": "address"
        },
        {
          "indexed": false,
          "internalType": "uint16",
          "name": "duration",
          "type": "uint16"
        },
        {
          "indexed": false,
          "internalType": "uint16",
          "name": "dailyInterestRate",
          "type": "uint16"
        },
        {
          "indexed": false,
          "internalType": "uint256",
          "name": "collateralRequired",
          "type": "uint256"
        }
      ],
      "name": "ListNFT",
      "type": "event"
    },
    {
      "inputs": [
        {
          "internalType": "uint256",
          "name": "listingId",
          "type": "uint256"
        }
      ],
      "name": "borrow",
      "outputs": [],
      "stateMutability": "nonpayable",
      "type": "function"
    },
    {
      "inputs": [],
      "name": "getListingCount",
      "outputs": [
        {
          "internalType": "uint256",
          "name": "",
          "type": "uint256"
        }
      ],
      "stateMutability": "view",
      "type": "function"
    },
    {
      "inputs": [
        {
          "internalType": "uint256",
          "name": "tokenId",
          "type": "uint256"
        },
        {
          "internalType": "address",
          "name": "tokenAddress",
          "type": "address"
        },
        {
          "internalType": "uint16",
          "name": "duration",
          "type": "uint16"
        },
        {
          "internalType": "uint16",
          "name": "dailyInterestRate",
          "type": "uint16"
        },
        {
          "internalType": "uint256",
          "name": "collateralRequired",
          "type": "uint256"
        }
      ],
      "name": "listNFT",
      "outputs": [],
      "stateMutability": "nonpayable",
      "type": "function"
    },
    {
      "inputs": [],
      "name": "listingsCount",
      "outputs": [
        {
          "internalType": "uint256",
          "name": "",
          "type": "uint256"
        }
      ],
      "stateMutability": "view",
      "type": "function"
    },
    {
      "inputs": [
        {
          "internalType": "uint256",
          "name": "listingId",
          "type": "uint256"
        }
      ],
      "name": "returnNFT",
      "outputs": [],
      "stateMutability": "nonpayable",
      "type": "function"
    },
    {
      "inputs": [
        {
          "internalType": "uint256",
          "name": "listingId",
          "type": "uint256"
        }
      ],
      "name": "terminateRental",
      "outputs": [],
      "stateMutability": "nonpayable",
      "type": "function"
    },
    {
      "inputs": [
        {
          "internalType": "uint256",
          "name": "listingId",
          "type": "uint256"
        }
      ],
      "name": "unListNFT",
      "outputs": [],
      "stateMutability": "nonpayable",
      "type": "function"
    },
    {
      "inputs": [],
      "name": "viewAllListings",
      "outputs": [
        {
          "components": [
            {
              "internalType": "uint256",
              "name": "id",
              "type": "uint256"
            },
            {
              "internalType": "uint256",
              "name": "tokenId",
              "type": "uint256"
            },
            {
              "internalType": "address",
              "name": "tokenAddress",
              "type": "address"
            },
            {
              "internalType": "address payable",
              "name": "lenderAddress",
              "type": "address"
            },
            {
              "internalType": "uint16",
              "name": "duration",
              "type": "uint16"
            },
            {
              "internalType": "uint16",
              "name": "dailyInterestRate",
              "type": "uint16"
            },
            {
              "internalType": "uint256",
              "name": "collateralRequired",
              "type": "uint256"
            },
            {
              "components": [
                {
                  "internalType": "address payable",
                  "name": "borrowerAddress",
                  "type": "address"
                },
                {
                  "internalType": "uint16",
                  "name": "rentDuration",
                  "type": "uint16"
                },
                {
                  "internalType": "uint256",
                  "name": "rentedAt",
                  "type": "uint256"
                }
              ],
              "internalType": "struct Kasu.Rental",
              "name": "rental",
              "type": "tuple"
            },
            {
              "internalType": "enum Kasu.RentalStatus",
              "name": "rentalStatus",
              "type": "uint8"
            }
          ],
          "internalType": "struct Kasu.Listing[]",
          "name": "",
          "type": "tuple[]"
        }
      ],
      "stateMutability": "nonpayable",
      "type": "function"
    },
    {
      "inputs": [
        {
          "internalType": "address",
          "name": "ownerAddress",
          "type": "address"
        }
      ],
      "name": "viewOwnerListings",
      "outputs": [
        {
          "components": [
            {
              "internalType": "uint256",
              "name": "id",
              "type": "uint256"
            },
            {
              "internalType": "uint256",
              "name": "tokenId",
              "type": "uint256"
            },
            {
              "internalType": "address",
              "name": "tokenAddress",
              "type": "address"
            },
            {
              "internalType": "address payable",
              "name": "lenderAddress",
              "type": "address"
            },
            {
              "internalType": "uint16",
              "name": "duration",
              "type": "uint16"
            },
            {
              "internalType": "uint16",
              "name": "dailyInterestRate",
              "type": "uint16"
            },
            {
              "internalType": "uint256",
              "name": "collateralRequired",
              "type": "uint256"
            },
            {
              "components": [
                {
                  "internalType": "address payable",
                  "name": "borrowerAddress",
                  "type": "address"
                },
                {
                  "internalType": "uint16",
                  "name": "rentDuration",
                  "type": "uint16"
                },
                {
                  "internalType": "uint256",
                  "name": "rentedAt",
                  "type": "uint256"
                }
              ],
              "internalType": "struct Kasu.Rental",
              "name": "rental",
              "type": "tuple"
            },
            {
              "internalType": "enum Kasu.RentalStatus",
              "name": "rentalStatus",
              "type": "uint8"
            }
          ],
          "internalType": "struct Kasu.Listing[]",
          "name": "",
          "type": "tuple[]"
        }
      ],
      "stateMutability": "nonpayable",
      "type": "function"
    },
    {
      "inputs": [
        {
          "internalType": "uint256",
          "name": "listingId",
          "type": "uint256"
        }
      ],
      "name": "viewRentedListings",
      "outputs": [],
      "stateMutability": "nonpayable",
      "type": "function"
    }
  ],
  "bytecode": "0x6080604052600160005534801561001557600080fd5b50610fff806100256000396000f3fe608060405234801561001057600080fd5b506004361061009e5760003560e01c806387ed92d71161006657806387ed92d714610147578063b0cd2aa014610165578063c5ebeaec14610181578063d12456dd1461019d578063f9217419146101b95761009e565b80630ca2f168146100a35780630ed74103146100bf57806346b1df04146100ef5780637ac0da041461010d57806381fab02514610129575b600080fd5b6100bd60048036038101906100b89190610865565b6101d5565b005b6100d960048036038101906100d4919061083c565b6101d8565b6040516100e69190610cdc565b60405180910390f35b6100f76101df565b6040516101049190610d9e565b60405180910390f35b6101276004803603810190610122919061088e565b6101e5565b005b610131610371565b60405161013e9190610cdc565b60405180910390f35b61014f610376565b60405161015c9190610d9e565b60405180910390f35b61017f600480360381019061017a9190610865565b61037f565b005b61019b60048036038101906101969190610865565b610382565b005b6101b760048036038101906101b29190610865565b610385565b005b6101d360048036038101906101ce9190610865565b610388565b005b50565b6060919050565b60005481565b6000604051806101200160405280600081526020018781526020018673ffffffffffffffffffffffffffffffffffffffff1681526020013373ffffffffffffffffffffffffffffffffffffffff1681526020018561ffff1681526020018461ffff1681526020018381526020016040518060600160405280600073ffffffffffffffffffffffffffffffffffffffff168152602001600061ffff16815260200160008152508152602001600160028111156102c9577f4e487b7100000000000000000000000000000000000000000000000000000000600052602160045260246000fd5b81525090506102d78161038b565b6102e081610527565b50806060015173ffffffffffffffffffffffffffffffffffffffff16816040015173ffffffffffffffffffffffffffffffffffffffff1682602001517f841156c3a44c81bdf9f2527f8b2db095c699e40a80e28351e3eff33653b88339846000015185608001518660a001518760c001516040516103619493929190610db9565b60405180910390a4505050505050565b606090565b60008054905090565b50565b50565b50565b50565b6000816020015114156103d3576040517f08c379a00000000000000000000000000000000000000000000000000000000081526004016103ca90610d3e565b60405180910390fd5b600073ffffffffffffffffffffffffffffffffffffffff16816040015173ffffffffffffffffffffffffffffffffffffffff161415610447576040517f08c379a000000000000000000000000000000000000000000000000000000000815260040161043e90610d5e565b60405180910390fd5b6000816080015161ffff1611610492576040517f08c379a000000000000000000000000000000000000000000000000000000000815260040161048990610d1e565b60405180910390fd5b60008160a0015161ffff16116104dd576040517f08c379a00000000000000000000000000000000000000000000000000000000081526004016104d490610d7e565b60405180910390fd5b60008160c0015111610524576040517f08c379a000000000000000000000000000000000000000000000000000000000815260040161051b90610cfe565b60405180910390fd5b50565b600080600081548092919061053b90610ec9565b91905055826000018181525050816001600084600001518152602001908152602001600020600082015181600001556020820151816001015560408201518160020160006101000a81548173ffffffffffffffffffffffffffffffffffffffff021916908373ffffffffffffffffffffffffffffffffffffffff16021790555060608201518160030160006101000a81548173ffffffffffffffffffffffffffffffffffffffff021916908373ffffffffffffffffffffffffffffffffffffffff16021790555060808201518160030160146101000a81548161ffff021916908361ffff16021790555060a08201518160030160166101000a81548161ffff021916908361ffff16021790555060c0820151816004015560e08201518160050160008201518160000160006101000a81548173ffffffffffffffffffffffffffffffffffffffff021916908373ffffffffffffffffffffffffffffffffffffffff16021790555060208201518160000160146101000a81548161ffff021916908361ffff1602179055506040820151816001015550506101008201518160070160006101000a81548160ff02191690836002811115610723577f4e487b7100000000000000000000000000000000000000000000000000000000600052602160045260246000fd5b02179055509050506107438260000151600261075090919063ffffffff16565b5081600001519050919050565b6000610762836000018360001b61076a565b905092915050565b600061077683836107da565b6107cf5782600001829080600181540180825580915050600190039060005260206000200160009091909190915055826000018054905083600101600084815260200190815260200160002081905550600190506107d4565b600090505b92915050565b600080836001016000848152602001908152602001600020541415905092915050565b60008135905061080c81610f84565b92915050565b60008135905061082181610f9b565b92915050565b60008135905061083681610fb2565b92915050565b60006020828403121561084e57600080fd5b600061085c848285016107fd565b91505092915050565b60006020828403121561087757600080fd5b600061088584828501610827565b91505092915050565b600080600080600060a086880312156108a657600080fd5b60006108b488828901610827565b95505060206108c5888289016107fd565b94505060406108d688828901610812565b93505060606108e788828901610812565b92505060806108f888828901610827565b9150509295509295909350565b60006109118383610ba7565b6101608301905092915050565b61092781610e5a565b82525050565b61093681610e48565b82525050565b600061094782610e0e565b6109518185610e26565b935061095c83610dfe565b8060005b8381101561098d5781516109748882610905565b975061097f83610e19565b925050600181019050610960565b5085935050505092915050565b6109a381610eb7565b82525050565b60006109b6602e83610e37565b91507f76616c69646174654c697374696e674e46543a3a20436f6c6c61746572616c2060008301527f63616e6e6f74206265207a65726f0000000000000000000000000000000000006020830152604082019050919050565b6000610a1c602c83610e37565b91507f76616c69646174654c697374696e674e46543a3a204475726174696f6e20636160008301527f6e6e6f74206265207a65726f00000000000000000000000000000000000000006020830152604082019050919050565b6000610a82602c83610e37565b91507f76616c69646174654c697374696e674e46543a3a20546f6b656e49642063616e60008301527f6e6f7420626520656d70747900000000000000000000000000000000000000006020830152604082019050919050565b6000610ae8603183610e37565b91507f76616c69646174654c697374696e674e46543a3a20546f6b656e41646472657360008301527f732063616e6e6f7420626520656d7074790000000000000000000000000000006020830152604082019050919050565b6000610b4e603783610e37565b91507f76616c69646174654c697374696e674e46543a3a204461696c7920696e74657260008301527f65737420726174652063616e6e6f74206265207a65726f0000000000000000006020830152604082019050919050565b61016082016000820151610bbe6000850182610cbe565b506020820151610bd16020850182610cbe565b506040820151610be4604085018261092d565b506060820151610bf7606085018261091e565b506080820151610c0a6080850182610ca0565b5060a0820151610c1d60a0850182610ca0565b5060c0820151610c3060c0850182610cbe565b5060e0820151610c4360e0850182610c5e565b50610100820151610c5861014085018261099a565b50505050565b606082016000820151610c74600085018261091e565b506020820151610c876020850182610ca0565b506040820151610c9a6040850182610cbe565b50505050565b610ca981610e7f565b82525050565b610cb881610e7f565b82525050565b610cc781610ead565b82525050565b610cd681610ead565b82525050565b60006020820190508181036000830152610cf6818461093c565b905092915050565b60006020820190508181036000830152610d17816109a9565b9050919050565b60006020820190508181036000830152610d3781610a0f565b9050919050565b60006020820190508181036000830152610d5781610a75565b9050919050565b60006020820190508181036000830152610d7781610adb565b9050919050565b60006020820190508181036000830152610d9781610b41565b9050919050565b6000602082019050610db36000830184610ccd565b92915050565b6000608082019050610dce6000830187610ccd565b610ddb6020830186610caf565b610de86040830185610caf565b610df56060830184610ccd565b95945050505050565b6000819050602082019050919050565b600081519050919050565b6000602082019050919050565b600082825260208201905092915050565b600082825260208201905092915050565b6000610e5382610e8d565b9050919050565b6000610e6582610e8d565b9050919050565b6000819050610e7a82610f70565b919050565b600061ffff82169050919050565b600073ffffffffffffffffffffffffffffffffffffffff82169050919050565b6000819050919050565b6000610ec282610e6c565b9050919050565b6000610ed482610ead565b91507fffffffffffffffffffffffffffffffffffffffffffffffffffffffffffffffff821415610f0757610f06610f12565b5b600182019050919050565b7f4e487b7100000000000000000000000000000000000000000000000000000000600052601160045260246000fd5b7f4e487b7100000000000000000000000000000000000000000000000000000000600052602160045260246000fd5b60038110610f8157610f80610f41565b5b50565b610f8d81610e48565b8114610f9857600080fd5b50565b610fa481610e7f565b8114610faf57600080fd5b50565b610fbb81610ead565b8114610fc657600080fd5b5056fea26469706673582212208634ef91571e576a678c7378b1a74d13f7ce5e1dda6bdb090daea340006ba8d164736f6c63430008000033",
  "linkReferences": {},
  "deployedLinkReferences": {}
}