{
  "_format": "hh-sol-artifact-1",
  "contractName": "Kasu",
  "sourceName": "contracts/Kasu.sol",
  "abi": [
    {
      "inputs": [],
      "stateMutability": "nonpayable",
      "type": "constructor"
    },
    {
      "inputs": [
        {
          "internalType": "uint256",
          "name": "tokenId",
          "type": "uint256"
        }
      ],
      "name": "borrow",
      "outputs": [],
      "stateMutability": "nonpayable",
      "type": "function"
    },
    {
      "inputs": [],
      "name": "getListingCount",
      "outputs": [
        {
          "internalType": "uint256",
          "name": "",
          "type": "uint256"
        }
      ],
      "stateMutability": "view",
      "type": "function"
    },
    {
      "inputs": [],
      "name": "incrementListingCount",
      "outputs": [],
      "stateMutability": "nonpayable",
      "type": "function"
    },
    {
      "inputs": [
        {
          "internalType": "uint256",
          "name": "tokenId",
          "type": "uint256"
        },
        {
          "internalType": "address",
          "name": "tokenAddress",
          "type": "address"
        },
        {
          "internalType": "uint16",
          "name": "duration",
          "type": "uint16"
        },
        {
          "internalType": "uint16",
          "name": "dailyInterestRate",
          "type": "uint16"
        },
        {
          "internalType": "uint256",
          "name": "collateralRequired",
          "type": "uint256"
        }
      ],
      "name": "listNFT",
      "outputs": [],
      "stateMutability": "nonpayable",
      "type": "function"
    },
    {
      "inputs": [],
      "name": "listingsCount",
      "outputs": [
        {
          "internalType": "uint256",
          "name": "",
          "type": "uint256"
        }
      ],
      "stateMutability": "view",
      "type": "function"
    },
    {
      "inputs": [],
      "name": "owner",
      "outputs": [
        {
          "internalType": "address",
          "name": "",
          "type": "address"
        }
      ],
      "stateMutability": "view",
      "type": "function"
    },
    {
      "inputs": [
        {
          "internalType": "uint256",
          "name": "tokenId",
          "type": "uint256"
        }
      ],
      "name": "returnNFT",
      "outputs": [],
      "stateMutability": "nonpayable",
      "type": "function"
    },
    {
      "inputs": [
        {
          "internalType": "uint256",
          "name": "tokenId",
          "type": "uint256"
        }
      ],
      "name": "terminateRental",
      "outputs": [],
      "stateMutability": "nonpayable",
      "type": "function"
    },
    {
      "inputs": [
        {
          "internalType": "uint256",
          "name": "tokenId",
          "type": "uint256"
        }
      ],
      "name": "unListNFT",
      "outputs": [],
      "stateMutability": "nonpayable",
      "type": "function"
    },
    {
      "inputs": [],
      "name": "viewAllListings",
      "outputs": [
        {
          "components": [
            {
              "internalType": "uint256",
              "name": "id",
              "type": "uint256"
            },
            {
              "internalType": "uint256",
              "name": "tokenId",
              "type": "uint256"
            },
            {
              "internalType": "address",
              "name": "tokenAddress",
              "type": "address"
            },
            {
              "internalType": "address payable",
              "name": "lenderAddress",
              "type": "address"
            },
            {
              "internalType": "uint16",
              "name": "duration",
              "type": "uint16"
            },
            {
              "internalType": "uint16",
              "name": "dailyInterestRate",
              "type": "uint16"
            },
            {
              "internalType": "uint256",
              "name": "collateralRequired",
              "type": "uint256"
            },
            {
              "components": [
                {
                  "internalType": "address payable",
                  "name": "borrowerAddress",
                  "type": "address"
                },
                {
                  "internalType": "uint16",
                  "name": "rentDuration",
                  "type": "uint16"
                },
                {
                  "internalType": "uint256",
                  "name": "rentedAt",
                  "type": "uint256"
                }
              ],
              "internalType": "struct Kasu.Rental",
              "name": "rental",
              "type": "tuple"
            },
            {
              "internalType": "enum Kasu.RentalStatus",
              "name": "rentalStatus",
              "type": "uint8"
            }
          ],
          "internalType": "struct Kasu.Listing[]",
          "name": "",
          "type": "tuple[]"
        }
      ],
      "stateMutability": "nonpayable",
      "type": "function"
    },
    {
      "inputs": [
        {
          "internalType": "address",
          "name": "ownerAddress",
          "type": "address"
        }
      ],
      "name": "viewOwnerListings",
      "outputs": [
        {
          "components": [
            {
              "internalType": "uint256",
              "name": "id",
              "type": "uint256"
            },
            {
              "internalType": "uint256",
              "name": "tokenId",
              "type": "uint256"
            },
            {
              "internalType": "address",
              "name": "tokenAddress",
              "type": "address"
            },
            {
              "internalType": "address payable",
              "name": "lenderAddress",
              "type": "address"
            },
            {
              "internalType": "uint16",
              "name": "duration",
              "type": "uint16"
            },
            {
              "internalType": "uint16",
              "name": "dailyInterestRate",
              "type": "uint16"
            },
            {
              "internalType": "uint256",
              "name": "collateralRequired",
              "type": "uint256"
            },
            {
              "components": [
                {
                  "internalType": "address payable",
                  "name": "borrowerAddress",
                  "type": "address"
                },
                {
                  "internalType": "uint16",
                  "name": "rentDuration",
                  "type": "uint16"
                },
                {
                  "internalType": "uint256",
                  "name": "rentedAt",
                  "type": "uint256"
                }
              ],
              "internalType": "struct Kasu.Rental",
              "name": "rental",
              "type": "tuple"
            },
            {
              "internalType": "enum Kasu.RentalStatus",
              "name": "rentalStatus",
              "type": "uint8"
            }
          ],
          "internalType": "struct Kasu.Listing[]",
          "name": "",
          "type": "tuple[]"
        }
      ],
      "stateMutability": "nonpayable",
      "type": "function"
    },
    {
      "inputs": [
        {
          "internalType": "uint256",
          "name": "tokenId",
          "type": "uint256"
        }
      ],
      "name": "viewRentedListings",
      "outputs": [],
      "stateMutability": "nonpayable",
      "type": "function"
    }
  ],
  "bytecode": "0x608060405234801561001057600080fd5b506000808190555033600160006101000a81548173ffffffffffffffffffffffffffffffffffffffff021916908373ffffffffffffffffffffffffffffffffffffffff160217905550610bce806100686000396000f3fe608060405234801561001057600080fd5b50600436106100b45760003560e01c806387ed92d71161007157806387ed92d7146101675780638da5cb5b14610185578063b0cd2aa0146101a3578063c5ebeaec146101bf578063d12456dd146101db578063f9217419146101f7576100b4565b80630ca2f168146100b95780630ed74103146100d557806346b1df04146101055780636aaf471e146101235780637ac0da041461012d57806381fab02514610149575b600080fd5b6100d360048036038101906100ce91906106b7565b610213565b005b6100ef60048036038101906100ea919061068e565b610216565b6040516100fc919061094b565b60405180910390f35b61010d61021d565b60405161011a919061096d565b60405180910390f35b61012b610223565b005b610147600480360381019061014291906106e0565b61023e565b005b610151610339565b60405161015e919061094b565b60405180910390f35b61016f61033e565b60405161017c919061096d565b60405180910390f35b61018d610347565b60405161019a9190610930565b60405180910390f35b6101bd60048036038101906101b891906106b7565b61036d565b005b6101d960048036038101906101d491906106b7565b610370565b005b6101f560048036038101906101f091906106b7565b610373565b005b610211600480360381019061020c91906106b7565b610376565b005b50565b6060919050565b60005481565b600160008082825461023591906109c1565b92505081905550565b6000604051806101200160405280600081526020018781526020018673ffffffffffffffffffffffffffffffffffffffff1681526020013373ffffffffffffffffffffffffffffffffffffffff1681526020018561ffff1681526020018461ffff1681526020018381526020016040518060600160405280600073ffffffffffffffffffffffffffffffffffffffff168152602001600061ffff1681526020016000815250815260200160016002811115610322577f4e487b7100000000000000000000000000000000000000000000000000000000600052602160045260246000fd5b815250905061033081610379565b50505050505050565b606090565b60008054905090565b600160009054906101000a900473ffffffffffffffffffffffffffffffffffffffff1681565b50565b50565b50565b50565b600080600081548092919061038d90610a98565b91905055826000018181525050816002600084600001518152602001908152602001600020600082015181600001556020820151816001015560408201518160020160006101000a81548173ffffffffffffffffffffffffffffffffffffffff021916908373ffffffffffffffffffffffffffffffffffffffff16021790555060608201518160030160006101000a81548173ffffffffffffffffffffffffffffffffffffffff021916908373ffffffffffffffffffffffffffffffffffffffff16021790555060808201518160030160146101000a81548161ffff021916908361ffff16021790555060a08201518160030160166101000a81548161ffff021916908361ffff16021790555060c0820151816004015560e08201518160050160008201518160000160006101000a81548173ffffffffffffffffffffffffffffffffffffffff021916908373ffffffffffffffffffffffffffffffffffffffff16021790555060208201518160000160146101000a81548161ffff021916908361ffff1602179055506040820151816001015550506101008201518160070160006101000a81548160ff02191690836002811115610575577f4e487b7100000000000000000000000000000000000000000000000000000000600052602160045260246000fd5b0217905550905050610595826000015160036105a290919063ffffffff16565b5081600001519050919050565b60006105b4836000018360001b6105bc565b905092915050565b60006105c8838361062c565b610621578260000182908060018154018082558091505060019003906000526020600020016000909190919091505582600001805490508360010160008481526020019081526020016000208190555060019050610626565b600090505b92915050565b600080836001016000848152602001908152602001600020541415905092915050565b60008135905061065e81610b53565b92915050565b60008135905061067381610b6a565b92915050565b60008135905061068881610b81565b92915050565b6000602082840312156106a057600080fd5b60006106ae8482850161064f565b91505092915050565b6000602082840312156106c957600080fd5b60006106d784828501610679565b91505092915050565b600080600080600060a086880312156106f857600080fd5b600061070688828901610679565b95505060206107178882890161064f565b945050604061072888828901610664565b935050606061073988828901610664565b925050608061074a88828901610679565b9150509295509295909350565b6000610763838361080a565b6101608301905092915050565b61077981610a29565b82525050565b61078881610a17565b82525050565b61079781610a17565b82525050565b60006107a882610998565b6107b281856109b0565b93506107bd83610988565b8060005b838110156107ee5781516107d58882610757565b97506107e0836109a3565b9250506001810190506107c1565b5085935050505092915050565b61080481610a86565b82525050565b610160820160008201516108216000850182610912565b5060208201516108346020850182610912565b506040820151610847604085018261077f565b50606082015161085a6060850182610770565b50608082015161086d6080850182610903565b5060a082015161088060a0850182610903565b5060c082015161089360c0850182610912565b5060e08201516108a660e08501826108c1565b506101008201516108bb6101408501826107fb565b50505050565b6060820160008201516108d76000850182610770565b5060208201516108ea6020850182610903565b5060408201516108fd6040850182610912565b50505050565b61090c81610a4e565b82525050565b61091b81610a7c565b82525050565b61092a81610a7c565b82525050565b6000602082019050610945600083018461078e565b92915050565b60006020820190508181036000830152610965818461079d565b905092915050565b60006020820190506109826000830184610921565b92915050565b6000819050602082019050919050565b600081519050919050565b6000602082019050919050565b600082825260208201905092915050565b60006109cc82610a7c565b91506109d783610a7c565b9250827fffffffffffffffffffffffffffffffffffffffffffffffffffffffffffffffff03821115610a0c57610a0b610ae1565b5b828201905092915050565b6000610a2282610a5c565b9050919050565b6000610a3482610a5c565b9050919050565b6000819050610a4982610b3f565b919050565b600061ffff82169050919050565b600073ffffffffffffffffffffffffffffffffffffffff82169050919050565b6000819050919050565b6000610a9182610a3b565b9050919050565b6000610aa382610a7c565b91507fffffffffffffffffffffffffffffffffffffffffffffffffffffffffffffffff821415610ad657610ad5610ae1565b5b600182019050919050565b7f4e487b7100000000000000000000000000000000000000000000000000000000600052601160045260246000fd5b7f4e487b7100000000000000000000000000000000000000000000000000000000600052602160045260246000fd5b60038110610b5057610b4f610b10565b5b50565b610b5c81610a17565b8114610b6757600080fd5b50565b610b7381610a4e565b8114610b7e57600080fd5b50565b610b8a81610a7c565b8114610b9557600080fd5b5056fea26469706673582212200feac1558662afe43959c444f000dc7e2b51f94e6f4fbc48af7af326863dad8d64736f6c63430008000033",
  "linkReferences": {},
  "deployedLinkReferences": {}
}