{
  "_format": "hh-sol-artifact-1",
  "contractName": "FakeNFT",
  "sourceName": "contracts/FakeNFT.sol",
  "abi": [
    {
      "inputs": [],
      "stateMutability": "nonpayable",
      "type": "constructor"
    },
    {
      "anonymous": false,
      "inputs": [
        {
          "indexed": true,
          "internalType": "address",
          "name": "owner",
          "type": "address"
        },
        {
          "indexed": true,
          "internalType": "address",
          "name": "approved",
          "type": "address"
        },
        {
          "indexed": true,
          "internalType": "uint256",
          "name": "tokenId",
          "type": "uint256"
        }
      ],
      "name": "Approval",
      "type": "event"
    },
    {
      "anonymous": false,
      "inputs": [
        {
          "indexed": true,
          "internalType": "address",
          "name": "owner",
          "type": "address"
        },
        {
          "indexed": true,
          "internalType": "address",
          "name": "operator",
          "type": "address"
        },
        {
          "indexed": false,
          "internalType": "bool",
          "name": "approved",
          "type": "bool"
        }
      ],
      "name": "ApprovalForAll",
      "type": "event"
    },
    {
      "anonymous": false,
      "inputs": [
        {
          "indexed": true,
          "internalType": "address",
          "name": "from",
          "type": "address"
        },
        {
          "indexed": true,
          "internalType": "address",
          "name": "to",
          "type": "address"
        },
        {
          "indexed": true,
          "internalType": "uint256",
          "name": "tokenId",
          "type": "uint256"
        }
      ],
      "name": "Transfer",
      "type": "event"
    },
    {
      "inputs": [
        {
          "internalType": "address",
          "name": "to",
          "type": "address"
        },
        {
          "internalType": "uint256",
          "name": "tokenId",
          "type": "uint256"
        }
      ],
      "name": "approve",
      "outputs": [],
      "stateMutability": "nonpayable",
      "type": "function"
    },
    {
      "inputs": [
        {
          "internalType": "address",
          "name": "owner",
          "type": "address"
        }
      ],
      "name": "balanceOf",
      "outputs": [
        {
          "internalType": "uint256",
          "name": "",
          "type": "uint256"
        }
      ],
      "stateMutability": "view",
      "type": "function"
    },
    {
      "inputs": [
        {
          "internalType": "uint256",
          "name": "tokenId",
          "type": "uint256"
        }
      ],
      "name": "getApproved",
      "outputs": [
        {
          "internalType": "address",
          "name": "",
          "type": "address"
        }
      ],
      "stateMutability": "view",
      "type": "function"
    },
    {
      "inputs": [
        {
          "internalType": "address",
          "name": "owner",
          "type": "address"
        },
        {
          "internalType": "address",
          "name": "operator",
          "type": "address"
        }
      ],
      "name": "isApprovedForAll",
      "outputs": [
        {
          "internalType": "bool",
          "name": "",
          "type": "bool"
        }
      ],
      "stateMutability": "view",
      "type": "function"
    },
    {
      "inputs": [
        {
          "internalType": "uint256",
          "name": "number",
          "type": "uint256"
        }
      ],
      "name": "mint",
      "outputs": [],
      "stateMutability": "nonpayable",
      "type": "function"
    },
    {
      "inputs": [],
      "name": "name",
      "outputs": [
        {
          "internalType": "string",
          "name": "",
          "type": "string"
        }
      ],
      "stateMutability": "view",
      "type": "function"
    },
    {
      "inputs": [
        {
          "internalType": "uint256",
          "name": "tokenId",
          "type": "uint256"
        }
      ],
      "name": "ownerOf",
      "outputs": [
        {
          "internalType": "address",
          "name": "",
          "type": "address"
        }
      ],
      "stateMutability": "view",
      "type": "function"
    },
    {
      "inputs": [
        {
          "internalType": "address",
          "name": "from",
          "type": "address"
        },
        {
          "internalType": "address",
          "name": "to",
          "type": "address"
        },
        {
          "internalType": "uint256",
          "name": "tokenId",
          "type": "uint256"
        }
      ],
      "name": "safeTransferFrom",
      "outputs": [],
      "stateMutability": "nonpayable",
      "type": "function"
    },
    {
      "inputs": [
        {
          "internalType": "address",
          "name": "from",
          "type": "address"
        },
        {
          "internalType": "address",
          "name": "to",
          "type": "address"
        },
        {
          "internalType": "uint256",
          "name": "tokenId",
          "type": "uint256"
        },
        {
          "internalType": "bytes",
          "name": "data",
          "type": "bytes"
        }
      ],
      "name": "safeTransferFrom",
      "outputs": [],
      "stateMutability": "nonpayable",
      "type": "function"
    },
    {
      "inputs": [
        {
          "internalType": "address",
          "name": "operator",
          "type": "address"
        },
        {
          "internalType": "bool",
          "name": "approved",
          "type": "bool"
        }
      ],
      "name": "setApprovalForAll",
      "outputs": [],
      "stateMutability": "nonpayable",
      "type": "function"
    },
    {
      "inputs": [
        {
          "internalType": "bytes4",
          "name": "interfaceId",
          "type": "bytes4"
        }
      ],
      "name": "supportsInterface",
      "outputs": [
        {
          "internalType": "bool",
          "name": "",
          "type": "bool"
        }
      ],
      "stateMutability": "view",
      "type": "function"
    },
    {
      "inputs": [],
      "name": "symbol",
      "outputs": [
        {
          "internalType": "string",
          "name": "",
          "type": "string"
        }
      ],
      "stateMutability": "view",
      "type": "function"
    },
    {
      "inputs": [
        {
          "internalType": "uint256",
          "name": "index",
          "type": "uint256"
        }
      ],
      "name": "tokenByIndex",
      "outputs": [
        {
          "internalType": "uint256",
          "name": "",
          "type": "uint256"
        }
      ],
      "stateMutability": "view",
      "type": "function"
    },
    {
      "inputs": [
        {
          "internalType": "address",
          "name": "owner",
          "type": "address"
        },
        {
          "internalType": "uint256",
          "name": "index",
          "type": "uint256"
        }
      ],
      "name": "tokenOfOwnerByIndex",
      "outputs": [
        {
          "internalType": "uint256",
          "name": "",
          "type": "uint256"
        }
      ],
      "stateMutability": "view",
      "type": "function"
    },
    {
      "inputs": [
        {
          "internalType": "uint256",
          "name": "tokenId",
          "type": "uint256"
        }
      ],
      "name": "tokenURI",
      "outputs": [
        {
          "internalType": "string",
          "name": "",
          "type": "string"
        }
      ],
      "stateMutability": "view",
      "type": "function"
    },
    {
      "inputs": [],
      "name": "totalSupply",
      "outputs": [
        {
          "internalType": "uint256",
          "name": "",
          "type": "uint256"
        }
      ],
      "stateMutability": "view",
      "type": "function"
    },
    {
      "inputs": [
        {
          "internalType": "address",
          "name": "from",
          "type": "address"
        },
        {
          "internalType": "address",
          "name": "to",
          "type": "address"
        },
        {
          "internalType": "uint256",
          "name": "tokenId",
          "type": "uint256"
        }
      ],
      "name": "transferFrom",
      "outputs": [],
      "stateMutability": "nonpayable",
      "type": "function"
    }
  ],
  "bytecode": "0x60806040526001600a553480156200001657600080fd5b506040518060400160405280600d81526020017f436869636b656e204b61747375000000000000000000000000000000000000008152506040518060400160405280600481526020017f4b41535500000000000000000000000000000000000000000000000000000000815250816000908162000094919062000329565b508060019081620000a6919062000329565b50505062000410565b600081519050919050565b7f4e487b7100000000000000000000000000000000000000000000000000000000600052604160045260246000fd5b7f4e487b7100000000000000000000000000000000000000000000000000000000600052602260045260246000fd5b600060028204905060018216806200013157607f821691505b602082108103620001475762000146620000e9565b5b50919050565b60008190508160005260206000209050919050565b60006020601f8301049050919050565b600082821b905092915050565b600060088302620001b17fffffffffffffffffffffffffffffffffffffffffffffffffffffffffffffffff8262000172565b620001bd868362000172565b95508019841693508086168417925050509392505050565b6000819050919050565b6000819050919050565b60006200020a62000204620001fe84620001d5565b620001df565b620001d5565b9050919050565b6000819050919050565b6200022683620001e9565b6200023e620002358262000211565b8484546200017f565b825550505050565b600090565b6200025562000246565b620002628184846200021b565b505050565b5b818110156200028a576200027e6000826200024b565b60018101905062000268565b5050565b601f821115620002d957620002a3816200014d565b620002ae8462000162565b81016020851015620002be578190505b620002d6620002cd8562000162565b83018262000267565b50505b505050565b600082821c905092915050565b6000620002fe60001984600802620002de565b1980831691505092915050565b6000620003198383620002eb565b9150826002028217905092915050565b6200033482620000af565b67ffffffffffffffff81111562000350576200034f620000ba565b5b6200035c825462000118565b620003698282856200028e565b600060209050601f831160018114620003a157600084156200038c578287015190505b6200039885826200030b565b86555062000408565b601f198416620003b1866200014d565b60005b82811015620003db57848901518255600182019150602085019450602081019050620003b4565b86831015620003fb5784890151620003f7601f891682620002eb565b8355505b6001600288020188555050505b505050505050565b612e6680620004206000396000f3fe608060405234801561001057600080fd5b506004361061010b5760003560e01c80634f6ccce7116100a2578063a0712d6811610071578063a0712d68146102de578063a22cb465146102fa578063b88d4fde14610316578063c87b56dd14610332578063e985e9c5146103625761010b565b80634f6ccce7146102305780636352211e1461026057806370a082311461029057806395d89b41146102c05761010b565b806318160ddd116100de57806318160ddd146101aa57806323b872dd146101c85780632f745c59146101e457806342842e0e146102145761010b565b806301ffc9a71461011057806306fdde0314610140578063081812fc1461015e578063095ea7b31461018e575b600080fd5b61012a60048036038101906101259190611ea3565b610392565b6040516101379190611eeb565b60405180910390f35b61014861040c565b6040516101559190611f96565b60405180910390f35b61017860048036038101906101739190611fee565b61049e565b604051610185919061205c565b60405180910390f35b6101a860048036038101906101a391906120a3565b6104e4565b005b6101b26105fb565b6040516101bf91906120f2565b60405180910390f35b6101e260048036038101906101dd919061210d565b610608565b005b6101fe60048036038101906101f991906120a3565b610668565b60405161020b91906120f2565b60405180910390f35b61022e6004803603810190610229919061210d565b61070d565b005b61024a60048036038101906102459190611fee565b61072d565b60405161025791906120f2565b60405180910390f35b61027a60048036038101906102759190611fee565b61079e565b604051610287919061205c565b60405180910390f35b6102aa60048036038101906102a59190612160565b610824565b6040516102b791906120f2565b60405180910390f35b6102c86108db565b6040516102d59190611f96565b60405180910390f35b6102f860048036038101906102f39190611fee565b61096d565b005b610314600480360381019061030f91906121b9565b6109af565b005b610330600480360381019061032b919061232e565b6109c5565b005b61034c60048036038101906103479190611fee565b610a27565b6040516103599190611f96565b60405180910390f35b61037c600480360381019061037791906123b1565b610a8f565b6040516103899190611eeb565b60405180910390f35b60007f780e9d63000000000000000000000000000000000000000000000000000000007bffffffffffffffffffffffffffffffffffffffffffffffffffffffff1916827bffffffffffffffffffffffffffffffffffffffffffffffffffffffff19161480610405575061040482610b23565b5b9050919050565b60606000805461041b90612420565b80601f016020809104026020016040519081016040528092919081815260200182805461044790612420565b80156104945780601f1061046957610100808354040283529160200191610494565b820191906000526020600020905b81548152906001019060200180831161047757829003601f168201915b5050505050905090565b60006104a982610c05565b6004600083815260200190815260200160002060009054906101000a900473ffffffffffffffffffffffffffffffffffffffff169050919050565b60006104ef8261079e565b90508073ffffffffffffffffffffffffffffffffffffffff168373ffffffffffffffffffffffffffffffffffffffff160361055f576040517f08c379a0000000000000000000000000000000000000000000000000000000008152600401610556906124c3565b60405180910390fd5b8073ffffffffffffffffffffffffffffffffffffffff1661057e610c50565b73ffffffffffffffffffffffffffffffffffffffff1614806105ad57506105ac816105a7610c50565b610a8f565b5b6105ec576040517f08c379a00000000000000000000000000000000000000000000000000000000081526004016105e390612555565b60405180910390fd5b6105f68383610c58565b505050565b6000600880549050905090565b610619610613610c50565b82610d11565b610658576040517f08c379a000000000000000000000000000000000000000000000000000000000815260040161064f906125e7565b60405180910390fd5b610663838383610da6565b505050565b600061067383610824565b82106106b4576040517f08c379a00000000000000000000000000000000000000000000000000000000081526004016106ab90612679565b60405180910390fd5b600660008473ffffffffffffffffffffffffffffffffffffffff1673ffffffffffffffffffffffffffffffffffffffff168152602001908152602001600020600083815260200190815260200160002054905092915050565b610728838383604051806020016040528060008152506109c5565b505050565b60006107376105fb565b8210610778576040517f08c379a000000000000000000000000000000000000000000000000000000000815260040161076f9061270b565b60405180910390fd5b6008828154811061078c5761078b61272b565b5b90600052602060002001549050919050565b6000806107aa8361109f565b9050600073ffffffffffffffffffffffffffffffffffffffff168173ffffffffffffffffffffffffffffffffffffffff160361081b576040517f08c379a0000000000000000000000000000000000000000000000000000000008152600401610812906127a6565b60405180910390fd5b80915050919050565b60008073ffffffffffffffffffffffffffffffffffffffff168273ffffffffffffffffffffffffffffffffffffffff1603610894576040517f08c379a000000000000000000000000000000000000000000000000000000000815260040161088b90612838565b60405180910390fd5b600360008373ffffffffffffffffffffffffffffffffffffffff1673ffffffffffffffffffffffffffffffffffffffff168152602001908152602001600020549050919050565b6060600180546108ea90612420565b80601f016020809104026020016040519081016040528092919081815260200182805461091690612420565b80156109635780601f1061093857610100808354040283529160200191610963565b820191906000526020600020905b81548152906001019060200180831161094657829003601f168201915b5050505050905090565b60005b818110156109ab5761099833600a600081548092919061098f90612887565b919050556110dc565b80806109a390612887565b915050610970565b5050565b6109c16109ba610c50565b83836110fa565b5050565b6109d66109d0610c50565b83610d11565b610a15576040517f08c379a0000000000000000000000000000000000000000000000000000000008152600401610a0c906125e7565b60405180910390fd5b610a2184848484611266565b50505050565b6060610a3282610c05565b6000610a3c6112c2565b90506000815111610a5c5760405180602001604052806000815250610a87565b80610a66846112d9565b604051602001610a7792919061290b565b6040516020818303038152906040525b915050919050565b6000600560008473ffffffffffffffffffffffffffffffffffffffff1673ffffffffffffffffffffffffffffffffffffffff16815260200190815260200160002060008373ffffffffffffffffffffffffffffffffffffffff1673ffffffffffffffffffffffffffffffffffffffff16815260200190815260200160002060009054906101000a900460ff16905092915050565b60007f80ac58cd000000000000000000000000000000000000000000000000000000007bffffffffffffffffffffffffffffffffffffffffffffffffffffffff1916827bffffffffffffffffffffffffffffffffffffffffffffffffffffffff19161480610bee57507f5b5e139f000000000000000000000000000000000000000000000000000000007bffffffffffffffffffffffffffffffffffffffffffffffffffffffff1916827bffffffffffffffffffffffffffffffffffffffffffffffffffffffff1916145b80610bfe5750610bfd826113a7565b5b9050919050565b610c0e81611411565b610c4d576040517f08c379a0000000000000000000000000000000000000000000000000000000008152600401610c44906127a6565b60405180910390fd5b50565b600033905090565b816004600083815260200190815260200160002060006101000a81548173ffffffffffffffffffffffffffffffffffffffff021916908373ffffffffffffffffffffffffffffffffffffffff160217905550808273ffffffffffffffffffffffffffffffffffffffff16610ccb8361079e565b73ffffffffffffffffffffffffffffffffffffffff167f8c5be1e5ebec7d5bd14f71427d1e84f3dd0314c0f7b2291e5b200ac8c7c3b92560405160405180910390a45050565b600080610d1d8361079e565b90508073ffffffffffffffffffffffffffffffffffffffff168473ffffffffffffffffffffffffffffffffffffffff161480610d5f5750610d5e8185610a8f565b5b80610d9d57508373ffffffffffffffffffffffffffffffffffffffff16610d858461049e565b73ffffffffffffffffffffffffffffffffffffffff16145b91505092915050565b8273ffffffffffffffffffffffffffffffffffffffff16610dc68261079e565b73ffffffffffffffffffffffffffffffffffffffff1614610e1c576040517f08c379a0000000000000000000000000000000000000000000000000000000008152600401610e13906129a1565b60405180910390fd5b600073ffffffffffffffffffffffffffffffffffffffff168273ffffffffffffffffffffffffffffffffffffffff1603610e8b576040517f08c379a0000000000000000000000000000000000000000000000000000000008152600401610e8290612a33565b60405180910390fd5b610e988383836001611452565b8273ffffffffffffffffffffffffffffffffffffffff16610eb88261079e565b73ffffffffffffffffffffffffffffffffffffffff1614610f0e576040517f08c379a0000000000000000000000000000000000000000000000000000000008152600401610f05906129a1565b60405180910390fd5b6004600082815260200190815260200160002060006101000a81549073ffffffffffffffffffffffffffffffffffffffff02191690556001600360008573ffffffffffffffffffffffffffffffffffffffff1673ffffffffffffffffffffffffffffffffffffffff168152602001908152602001600020600082825403925050819055506001600360008473ffffffffffffffffffffffffffffffffffffffff1673ffffffffffffffffffffffffffffffffffffffff16815260200190815260200160002060008282540192505081905550816002600083815260200190815260200160002060006101000a81548173ffffffffffffffffffffffffffffffffffffffff021916908373ffffffffffffffffffffffffffffffffffffffff160217905550808273ffffffffffffffffffffffffffffffffffffffff168473ffffffffffffffffffffffffffffffffffffffff167fddf252ad1be2c89b69c2b068fc378daa952ba7f163c4a11628f55a4df523b3ef60405160405180910390a461109a83838360016115b0565b505050565b60006002600083815260200190815260200160002060009054906101000a900473ffffffffffffffffffffffffffffffffffffffff169050919050565b6110f68282604051806020016040528060008152506115b6565b5050565b8173ffffffffffffffffffffffffffffffffffffffff168373ffffffffffffffffffffffffffffffffffffffff1603611168576040517f08c379a000000000000000000000000000000000000000000000000000000000815260040161115f90612a9f565b60405180910390fd5b80600560008573ffffffffffffffffffffffffffffffffffffffff1673ffffffffffffffffffffffffffffffffffffffff16815260200190815260200160002060008473ffffffffffffffffffffffffffffffffffffffff1673ffffffffffffffffffffffffffffffffffffffff16815260200190815260200160002060006101000a81548160ff0219169083151502179055508173ffffffffffffffffffffffffffffffffffffffff168373ffffffffffffffffffffffffffffffffffffffff167f17307eab39ab6107e8899845ad3d59bd9653f200f220920489ca2b5937696c31836040516112599190611eeb565b60405180910390a3505050565b611271848484610da6565b61127d84848484611611565b6112bc576040517f08c379a00000000000000000000000000000000000000000000000000000000081526004016112b390612b31565b60405180910390fd5b50505050565b606060405180602001604052806000815250905090565b6060600060016112e884611798565b01905060008167ffffffffffffffff81111561130757611306612203565b5b6040519080825280601f01601f1916602001820160405280156113395781602001600182028036833780820191505090505b509050600082602001820190505b60011561139c578080600190039150507f3031323334353637383961626364656600000000000000000000000000000000600a86061a8153600a85816113905761138f612b51565b5b04945060008503611347575b819350505050919050565b60007f01ffc9a7000000000000000000000000000000000000000000000000000000007bffffffffffffffffffffffffffffffffffffffffffffffffffffffff1916827bffffffffffffffffffffffffffffffffffffffffffffffffffffffff1916149050919050565b60008073ffffffffffffffffffffffffffffffffffffffff166114338361109f565b73ffffffffffffffffffffffffffffffffffffffff1614159050919050565b61145e848484846118eb565b60018111156114a2576040517f08c379a000000000000000000000000000000000000000000000000000000000815260040161149990612bf2565b60405180910390fd5b6000829050600073ffffffffffffffffffffffffffffffffffffffff168573ffffffffffffffffffffffffffffffffffffffff16036114e9576114e4816118f1565b611528565b8373ffffffffffffffffffffffffffffffffffffffff168573ffffffffffffffffffffffffffffffffffffffff161461152757611526858261193a565b5b5b600073ffffffffffffffffffffffffffffffffffffffff168473ffffffffffffffffffffffffffffffffffffffff160361156a5761156581611aa7565b6115a9565b8473ffffffffffffffffffffffffffffffffffffffff168473ffffffffffffffffffffffffffffffffffffffff16146115a8576115a78482611b78565b5b5b5050505050565b50505050565b6115c08383611bf7565b6115cd6000848484611611565b61160c576040517f08c379a000000000000000000000000000000000000000000000000000000000815260040161160390612b31565b60405180910390fd5b505050565b60006116328473ffffffffffffffffffffffffffffffffffffffff16611e14565b1561178b578373ffffffffffffffffffffffffffffffffffffffff1663150b7a0261165b610c50565b8786866040518563ffffffff1660e01b815260040161167d9493929190612c67565b6020604051808303816000875af19250505080156116b957506040513d601f19601f820116820180604052508101906116b69190612cc8565b60015b61173b573d80600081146116e9576040519150601f19603f3d011682016040523d82523d6000602084013e6116ee565b606091505b506000815103611733576040517f08c379a000000000000000000000000000000000000000000000000000000000815260040161172a90612b31565b60405180910390fd5b805181602001fd5b63150b7a0260e01b7bffffffffffffffffffffffffffffffffffffffffffffffffffffffff1916817bffffffffffffffffffffffffffffffffffffffffffffffffffffffff191614915050611790565b600190505b949350505050565b600080600090507a184f03e93ff9f4daa797ed6e38ed64bf6a1f01000000000000000083106117f6577a184f03e93ff9f4daa797ed6e38ed64bf6a1f01000000000000000083816117ec576117eb612b51565b5b0492506040810190505b6d04ee2d6d415b85acef81000000008310611833576d04ee2d6d415b85acef8100000000838161182957611828612b51565b5b0492506020810190505b662386f26fc10000831061186257662386f26fc10000838161185857611857612b51565b5b0492506010810190505b6305f5e100831061188b576305f5e100838161188157611880612b51565b5b0492506008810190505b61271083106118b05761271083816118a6576118a5612b51565b5b0492506004810190505b606483106118d357606483816118c9576118c8612b51565b5b0492506002810190505b600a83106118e2576001810190505b80915050919050565b50505050565b6008805490506009600083815260200190815260200160002081905550600881908060018154018082558091505060019003906000526020600020016000909190919091505550565b6000600161194784610824565b6119519190612cf5565b9050600060076000848152602001908152602001600020549050818114611a36576000600660008673ffffffffffffffffffffffffffffffffffffffff1673ffffffffffffffffffffffffffffffffffffffff168152602001908152602001600020600084815260200190815260200160002054905080600660008773ffffffffffffffffffffffffffffffffffffffff1673ffffffffffffffffffffffffffffffffffffffff168152602001908152602001600020600084815260200190815260200160002081905550816007600083815260200190815260200160002081905550505b6007600084815260200190815260200160002060009055600660008573ffffffffffffffffffffffffffffffffffffffff1673ffffffffffffffffffffffffffffffffffffffff16815260200190815260200160002060008381526020019081526020016000206000905550505050565b60006001600880549050611abb9190612cf5565b9050600060096000848152602001908152602001600020549050600060088381548110611aeb57611aea61272b565b5b906000526020600020015490508060088381548110611b0d57611b0c61272b565b5b906000526020600020018190555081600960008381526020019081526020016000208190555060096000858152602001908152602001600020600090556008805480611b5c57611b5b612d29565b5b6001900381819060005260206000200160009055905550505050565b6000611b8383610824565b905081600660008573ffffffffffffffffffffffffffffffffffffffff1673ffffffffffffffffffffffffffffffffffffffff168152602001908152602001600020600083815260200190815260200160002081905550806007600084815260200190815260200160002081905550505050565b600073ffffffffffffffffffffffffffffffffffffffff168273ffffffffffffffffffffffffffffffffffffffff1603611c66576040517f08c379a0000000000000000000000000000000000000000000000000000000008152600401611c5d90612da4565b60405180910390fd5b611c6f81611411565b15611caf576040517f08c379a0000000000000000000000000000000000000000000000000000000008152600401611ca690612e10565b60405180910390fd5b611cbd600083836001611452565b611cc681611411565b15611d06576040517f08c379a0000000000000000000000000000000000000000000000000000000008152600401611cfd90612e10565b60405180910390fd5b6001600360008473ffffffffffffffffffffffffffffffffffffffff1673ffffffffffffffffffffffffffffffffffffffff16815260200190815260200160002060008282540192505081905550816002600083815260200190815260200160002060006101000a81548173ffffffffffffffffffffffffffffffffffffffff021916908373ffffffffffffffffffffffffffffffffffffffff160217905550808273ffffffffffffffffffffffffffffffffffffffff16600073ffffffffffffffffffffffffffffffffffffffff167fddf252ad1be2c89b69c2b068fc378daa952ba7f163c4a11628f55a4df523b3ef60405160405180910390a4611e106000838360016115b0565b5050565b6000808273ffffffffffffffffffffffffffffffffffffffff163b119050919050565b6000604051905090565b600080fd5b600080fd5b60007fffffffff0000000000000000000000000000000000000000000000000000000082169050919050565b611e8081611e4b565b8114611e8b57600080fd5b50565b600081359050611e9d81611e77565b92915050565b600060208284031215611eb957611eb8611e41565b5b6000611ec784828501611e8e565b91505092915050565b60008115159050919050565b611ee581611ed0565b82525050565b6000602082019050611f006000830184611edc565b92915050565b600081519050919050565b600082825260208201905092915050565b60005b83811015611f40578082015181840152602081019050611f25565b60008484015250505050565b6000601f19601f8301169050919050565b6000611f6882611f06565b611f728185611f11565b9350611f82818560208601611f22565b611f8b81611f4c565b840191505092915050565b60006020820190508181036000830152611fb08184611f5d565b905092915050565b6000819050919050565b611fcb81611fb8565b8114611fd657600080fd5b50565b600081359050611fe881611fc2565b92915050565b60006020828403121561200457612003611e41565b5b600061201284828501611fd9565b91505092915050565b600073ffffffffffffffffffffffffffffffffffffffff82169050919050565b60006120468261201b565b9050919050565b6120568161203b565b82525050565b6000602082019050612071600083018461204d565b92915050565b6120808161203b565b811461208b57600080fd5b50565b60008135905061209d81612077565b92915050565b600080604083850312156120ba576120b9611e41565b5b60006120c88582860161208e565b92505060206120d985828601611fd9565b9150509250929050565b6120ec81611fb8565b82525050565b600060208201905061210760008301846120e3565b92915050565b60008060006060848603121561212657612125611e41565b5b60006121348682870161208e565b93505060206121458682870161208e565b925050604061215686828701611fd9565b9150509250925092565b60006020828403121561217657612175611e41565b5b60006121848482850161208e565b91505092915050565b61219681611ed0565b81146121a157600080fd5b50565b6000813590506121b38161218d565b92915050565b600080604083850312156121d0576121cf611e41565b5b60006121de8582860161208e565b92505060206121ef858286016121a4565b9150509250929050565b600080fd5b600080fd5b7f4e487b7100000000000000000000000000000000000000000000000000000000600052604160045260246000fd5b61223b82611f4c565b810181811067ffffffffffffffff8211171561225a57612259612203565b5b80604052505050565b600061226d611e37565b90506122798282612232565b919050565b600067ffffffffffffffff82111561229957612298612203565b5b6122a282611f4c565b9050602081019050919050565b82818337600083830152505050565b60006122d16122cc8461227e565b612263565b9050828152602081018484840111156122ed576122ec6121fe565b5b6122f88482856122af565b509392505050565b600082601f830112612315576123146121f9565b5b81356123258482602086016122be565b91505092915050565b6000806000806080858703121561234857612347611e41565b5b60006123568782880161208e565b94505060206123678782880161208e565b935050604061237887828801611fd9565b925050606085013567ffffffffffffffff81111561239957612398611e46565b5b6123a587828801612300565b91505092959194509250565b600080604083850312156123c8576123c7611e41565b5b60006123d68582860161208e565b92505060206123e78582860161208e565b9150509250929050565b7f4e487b7100000000000000000000000000000000000000000000000000000000600052602260045260246000fd5b6000600282049050600182168061243857607f821691505b60208210810361244b5761244a6123f1565b5b50919050565b7f4552433732313a20617070726f76616c20746f2063757272656e74206f776e6560008201527f7200000000000000000000000000000000000000000000000000000000000000602082015250565b60006124ad602183611f11565b91506124b882612451565b604082019050919050565b600060208201905081810360008301526124dc816124a0565b9050919050565b7f4552433732313a20617070726f76652063616c6c6572206973206e6f7420746f60008201527f6b656e206f776e6572206f7220617070726f76656420666f7220616c6c000000602082015250565b600061253f603d83611f11565b915061254a826124e3565b604082019050919050565b6000602082019050818103600083015261256e81612532565b9050919050565b7f4552433732313a2063616c6c6572206973206e6f7420746f6b656e206f776e6560008201527f72206f7220617070726f76656400000000000000000000000000000000000000602082015250565b60006125d1602d83611f11565b91506125dc82612575565b604082019050919050565b60006020820190508181036000830152612600816125c4565b9050919050565b7f455243373231456e756d657261626c653a206f776e657220696e646578206f7560008201527f74206f6620626f756e6473000000000000000000000000000000000000000000602082015250565b6000612663602b83611f11565b915061266e82612607565b604082019050919050565b6000602082019050818103600083015261269281612656565b9050919050565b7f455243373231456e756d657261626c653a20676c6f62616c20696e646578206f60008201527f7574206f6620626f756e64730000000000000000000000000000000000000000602082015250565b60006126f5602c83611f11565b915061270082612699565b604082019050919050565b60006020820190508181036000830152612724816126e8565b9050919050565b7f4e487b7100000000000000000000000000000000000000000000000000000000600052603260045260246000fd5b7f4552433732313a20696e76616c696420746f6b656e2049440000000000000000600082015250565b6000612790601883611f11565b915061279b8261275a565b602082019050919050565b600060208201905081810360008301526127bf81612783565b9050919050565b7f4552433732313a2061646472657373207a65726f206973206e6f74206120766160008201527f6c6964206f776e65720000000000000000000000000000000000000000000000602082015250565b6000612822602983611f11565b915061282d826127c6565b604082019050919050565b6000602082019050818103600083015261285181612815565b9050919050565b7f4e487b7100000000000000000000000000000000000000000000000000000000600052601160045260246000fd5b600061289282611fb8565b91507fffffffffffffffffffffffffffffffffffffffffffffffffffffffffffffffff82036128c4576128c3612858565b5b600182019050919050565b600081905092915050565b60006128e582611f06565b6128ef81856128cf565b93506128ff818560208601611f22565b80840191505092915050565b600061291782856128da565b915061292382846128da565b91508190509392505050565b7f4552433732313a207472616e736665722066726f6d20696e636f72726563742060008201527f6f776e6572000000000000000000000000000000000000000000000000000000602082015250565b600061298b602583611f11565b91506129968261292f565b604082019050919050565b600060208201905081810360008301526129ba8161297e565b9050919050565b7f4552433732313a207472616e7366657220746f20746865207a65726f2061646460008201527f7265737300000000000000000000000000000000000000000000000000000000602082015250565b6000612a1d602483611f11565b9150612a28826129c1565b604082019050919050565b60006020820190508181036000830152612a4c81612a10565b9050919050565b7f4552433732313a20617070726f766520746f2063616c6c657200000000000000600082015250565b6000612a89601983611f11565b9150612a9482612a53565b602082019050919050565b60006020820190508181036000830152612ab881612a7c565b9050919050565b7f4552433732313a207472616e7366657220746f206e6f6e20455243373231526560008201527f63656976657220696d706c656d656e7465720000000000000000000000000000602082015250565b6000612b1b603283611f11565b9150612b2682612abf565b604082019050919050565b60006020820190508181036000830152612b4a81612b0e565b9050919050565b7f4e487b7100000000000000000000000000000000000000000000000000000000600052601260045260246000fd5b7f455243373231456e756d657261626c653a20636f6e736563757469766520747260008201527f616e7366657273206e6f7420737570706f727465640000000000000000000000602082015250565b6000612bdc603583611f11565b9150612be782612b80565b604082019050919050565b60006020820190508181036000830152612c0b81612bcf565b9050919050565b600081519050919050565b600082825260208201905092915050565b6000612c3982612c12565b612c438185612c1d565b9350612c53818560208601611f22565b612c5c81611f4c565b840191505092915050565b6000608082019050612c7c600083018761204d565b612c89602083018661204d565b612c9660408301856120e3565b8181036060830152612ca88184612c2e565b905095945050505050565b600081519050612cc281611e77565b92915050565b600060208284031215612cde57612cdd611e41565b5b6000612cec84828501612cb3565b91505092915050565b6000612d0082611fb8565b9150612d0b83611fb8565b9250828203905081811115612d2357612d22612858565b5b92915050565b7f4e487b7100000000000000000000000000000000000000000000000000000000600052603160045260246000fd5b7f4552433732313a206d696e7420746f20746865207a65726f2061646472657373600082015250565b6000612d8e602083611f11565b9150612d9982612d58565b602082019050919050565b60006020820190508181036000830152612dbd81612d81565b9050919050565b7f4552433732313a20746f6b656e20616c7265616479206d696e74656400000000600082015250565b6000612dfa601c83611f11565b9150612e0582612dc4565b602082019050919050565b60006020820190508181036000830152612e2981612ded565b905091905056fea26469706673582212205c81e18f2e4d7d104b50f0d18e1d1ce89b9aa6edef3d58c9161e3937a6218be764736f6c63430008110033",
  "linkReferences": {},
  "deployedLinkReferences": {}
}