{
  "_format": "hh-sol-artifact-1",
  "contractName": "Kasu",
  "sourceName": "contracts/Kasu.sol",
  "abi": [
    {
      "anonymous": false,
      "inputs": [
        {
          "indexed": false,
          "internalType": "uint256",
          "name": "listingId",
          "type": "uint256"
        },
        {
          "indexed": false,
          "internalType": "uint256",
          "name": "tokenId",
          "type": "uint256"
        }
      ],
      "name": "ListNFT",
      "type": "event"
    },
    {
      "anonymous": false,
      "inputs": [
        {
          "indexed": false,
          "internalType": "uint256",
          "name": "listingId",
          "type": "uint256"
        }
      ],
      "name": "TerminateRental",
      "type": "event"
    },
    {
      "inputs": [
        {
          "internalType": "uint256",
          "name": "listingId",
          "type": "uint256"
        }
      ],
      "name": "borrow",
      "outputs": [],
      "stateMutability": "payable",
      "type": "function"
    },
    {
      "inputs": [],
      "name": "getListingCount",
      "outputs": [
        {
          "internalType": "uint256",
          "name": "",
          "type": "uint256"
        }
      ],
      "stateMutability": "view",
      "type": "function"
    },
    {
      "inputs": [
        {
          "internalType": "uint256",
          "name": "tokenId",
          "type": "uint256"
        },
        {
          "internalType": "address",
          "name": "tokenAddress",
          "type": "address"
        },
        {
          "internalType": "uint16",
          "name": "duration",
          "type": "uint16"
        },
        {
          "internalType": "uint16",
          "name": "dailyInterestRate",
          "type": "uint16"
        },
        {
          "internalType": "uint256",
          "name": "collateralRequired",
          "type": "uint256"
        }
      ],
      "name": "listNFT",
      "outputs": [],
      "stateMutability": "nonpayable",
      "type": "function"
    },
    {
      "inputs": [
        {
          "internalType": "uint256",
          "name": "listingId",
          "type": "uint256"
        }
      ],
      "name": "returnNFT",
      "outputs": [],
      "stateMutability": "nonpayable",
      "type": "function"
    },
    {
      "inputs": [
        {
          "internalType": "uint256",
          "name": "listingId",
          "type": "uint256"
        }
      ],
      "name": "terminateRental",
      "outputs": [],
      "stateMutability": "nonpayable",
      "type": "function"
    },
    {
      "inputs": [
        {
          "internalType": "uint256",
          "name": "listingId",
          "type": "uint256"
        }
      ],
      "name": "unListNFT",
      "outputs": [],
      "stateMutability": "nonpayable",
      "type": "function"
    },
    {
      "inputs": [],
      "name": "viewAllListings",
      "outputs": [
        {
          "components": [
            {
              "internalType": "uint256",
              "name": "id",
              "type": "uint256"
            },
            {
              "internalType": "uint256",
              "name": "tokenId",
              "type": "uint256"
            },
            {
              "internalType": "address",
              "name": "tokenAddress",
              "type": "address"
            },
            {
              "internalType": "address payable",
              "name": "lenderAddress",
              "type": "address"
            },
            {
              "internalType": "uint16",
              "name": "duration",
              "type": "uint16"
            },
            {
              "internalType": "uint16",
              "name": "dailyInterestRate",
              "type": "uint16"
            },
            {
              "internalType": "uint256",
              "name": "collateralRequired",
              "type": "uint256"
            },
            {
              "components": [
                {
                  "internalType": "address payable",
                  "name": "borrowerAddress",
                  "type": "address"
                },
                {
                  "internalType": "uint256",
                  "name": "rentedAt",
                  "type": "uint256"
                }
              ],
              "internalType": "struct KasuStorage.Rental",
              "name": "rental",
              "type": "tuple"
            }
          ],
          "internalType": "struct KasuStorage.Listing[]",
          "name": "",
          "type": "tuple[]"
        }
      ],
      "stateMutability": "view",
      "type": "function"
    },
    {
      "inputs": [],
      "name": "viewOwnedOngoingListingsAndRentals",
      "outputs": [
        {
          "components": [
            {
              "internalType": "uint256",
              "name": "id",
              "type": "uint256"
            },
            {
              "internalType": "uint256",
              "name": "tokenId",
              "type": "uint256"
            },
            {
              "internalType": "address",
              "name": "tokenAddress",
              "type": "address"
            },
            {
              "internalType": "address payable",
              "name": "lenderAddress",
              "type": "address"
            },
            {
              "internalType": "uint16",
              "name": "duration",
              "type": "uint16"
            },
            {
              "internalType": "uint16",
              "name": "dailyInterestRate",
              "type": "uint16"
            },
            {
              "internalType": "uint256",
              "name": "collateralRequired",
              "type": "uint256"
            },
            {
              "components": [
                {
                  "internalType": "address payable",
                  "name": "borrowerAddress",
                  "type": "address"
                },
                {
                  "internalType": "uint256",
                  "name": "rentedAt",
                  "type": "uint256"
                }
              ],
              "internalType": "struct KasuStorage.Rental",
              "name": "rental",
              "type": "tuple"
            }
          ],
          "internalType": "struct KasuStorage.Listing[]",
          "name": "",
          "type": "tuple[]"
        }
      ],
      "stateMutability": "view",
      "type": "function"
    },
    {
      "inputs": [
        {
          "internalType": "uint256",
          "name": "listingId",
          "type": "uint256"
        }
      ],
      "name": "viewRentedListings",
      "outputs": [],
      "stateMutability": "nonpayable",
      "type": "function"
    }
  ],
  "bytecode": "0x6080604052600160005534801561001557600080fd5b5061276f806100256000396000f3fe6080604052600436106100865760003560e01c8063b0cd2aa011610059578063b0cd2aa014610133578063c5ebeaec1461015c578063d12456dd14610178578063e522a8a1146101a1578063f9217419146101cc57610086565b80630ca2f1681461008b5780637ac0da04146100b457806381fab025146100dd57806387ed92d714610108575b600080fd5b34801561009757600080fd5b506100b260048036038101906100ad9190611b38565b6101f5565b005b3480156100c057600080fd5b506100db60048036038101906100d69190611b61565b6101f8565b005b3480156100e957600080fd5b506100f26102f3565b6040516100ff919061221f565b60405180910390f35b34801561011457600080fd5b5061011d6105bf565b60405161012a91906123c1565b60405180910390f35b34801561013f57600080fd5b5061015a60048036038101906101559190611b38565b6105ce565b005b61017660048036038101906101719190611b38565b6105d1565b005b34801561018457600080fd5b5061019f600480360381019061019a9190611b38565b61086a565b005b3480156101ad57600080fd5b506101b661086d565b6040516101c3919061221f565b60405180910390f35b3480156101d857600080fd5b506101f360048036038101906101ee9190611b38565b610d71565b005b50565b6000604051806101000160405280600081526020018781526020018673ffffffffffffffffffffffffffffffffffffffff1681526020013373ffffffffffffffffffffffffffffffffffffffff1681526020018561ffff1681526020018461ffff1681526020018381526020016040518060400160405280600073ffffffffffffffffffffffffffffffffffffffff168152602001600081525081525090506102a081611126565b6102a9816112c2565b507fadc2524c8f93616be9bad3bcab121a8de2a297699e78d4762481efcd6d26a926816000015182602001516040516102e39291906123dc565b60405180910390a1505050505050565b606060006102ff611471565b90506000815167ffffffffffffffff811115610344577f4e487b7100000000000000000000000000000000000000000000000000000000600052604160045260246000fd5b60405190808252806020026020018201604052801561037d57816020015b61036a611a4a565b8152602001906001900390816103625790505b50905060005b82518110156105b6576103d58382815181106103c8577f4e487b7100000000000000000000000000000000000000000000000000000000600052603260045260246000fd5b6020026020010151611574565b6040518061010001604052908160008201548152602001600182015481526020016002820160009054906101000a900473ffffffffffffffffffffffffffffffffffffffff1673ffffffffffffffffffffffffffffffffffffffff1673ffffffffffffffffffffffffffffffffffffffff1681526020016003820160009054906101000a900473ffffffffffffffffffffffffffffffffffffffff1673ffffffffffffffffffffffffffffffffffffffff1673ffffffffffffffffffffffffffffffffffffffff1681526020016003820160149054906101000a900461ffff1661ffff1661ffff1681526020016003820160169054906101000a900461ffff1661ffff1661ffff16815260200160048201548152602001600582016040518060400160405290816000820160009054906101000a900473ffffffffffffffffffffffffffffffffffffffff1673ffffffffffffffffffffffffffffffffffffffff1673ffffffffffffffffffffffffffffffffffffffff16815260200160018201548152505081525050828281518110610598577f4e487b7100000000000000000000000000000000000000000000000000000000600052603260045260246000fd5b602002602001018190525080806105ae9061264d565b915050610383565b50809250505090565b60006105c9611590565b905090565b50565b6105da816115a1565b610619576040517f08c379a0000000000000000000000000000000000000000000000000000000008152600401610610906122e1565b60405180910390fd5b600061062482611574565b90506000816005016001015414610670576040517f08c379a000000000000000000000000000000000000000000000000000000000815260040161066790612341565b60405180910390fd5b3373ffffffffffffffffffffffffffffffffffffffff168160030160009054906101000a900473ffffffffffffffffffffffffffffffffffffffff1673ffffffffffffffffffffffffffffffffffffffff161415610703576040517f08c379a00000000000000000000000000000000000000000000000000000000081526004016106fa906122c1565b60405180910390fd5b600061070e826115be565b9050803414610752576040517f08c379a0000000000000000000000000000000000000000000000000000000008152600401610749906123a1565b60405180910390fd5b338260050160000160006101000a81548173ffffffffffffffffffffffffffffffffffffffff021916908373ffffffffffffffffffffffffffffffffffffffff16021790555042826005016001018190555060008260020160009054906101000a900473ffffffffffffffffffffffffffffffffffffffff1690508073ffffffffffffffffffffffffffffffffffffffff166342842e0e8460030160009054906101000a900473ffffffffffffffffffffffffffffffffffffffff163386600101546040518463ffffffff1660e01b8152600401610832939291906121e8565b600060405180830381600087803b15801561084c57600080fd5b505af1158015610860573d6000803e3d6000fd5b5050505050505050565b50565b60606000805b61087d6002611609565b811015610a895760006108a261089d83600261161e90919063ffffffff16565b611574565b6040518061010001604052908160008201548152602001600182015481526020016002820160009054906101000a900473ffffffffffffffffffffffffffffffffffffffff1673ffffffffffffffffffffffffffffffffffffffff1673ffffffffffffffffffffffffffffffffffffffff1681526020016003820160009054906101000a900473ffffffffffffffffffffffffffffffffffffffff1673ffffffffffffffffffffffffffffffffffffffff1673ffffffffffffffffffffffffffffffffffffffff1681526020016003820160149054906101000a900461ffff1661ffff1661ffff1681526020016003820160169054906101000a900461ffff1661ffff1661ffff16815260200160048201548152602001600582016040518060400160405290816000820160009054906101000a900473ffffffffffffffffffffffffffffffffffffffff1673ffffffffffffffffffffffffffffffffffffffff1673ffffffffffffffffffffffffffffffffffffffff1681526020016001820154815250508152505090503373ffffffffffffffffffffffffffffffffffffffff16816060015173ffffffffffffffffffffffffffffffffffffffff161415610a75578280610a719061264d565b9350505b508080610a819061264d565b915050610873565b5060008167ffffffffffffffff811115610acc577f4e487b7100000000000000000000000000000000000000000000000000000000600052604160045260246000fd5b604051908082528060200260200182016040528015610b0557816020015b610af2611a4a565b815260200190600190039081610aea5790505b5090506000805b610b166002611609565b811015610d67576000610b3b610b3683600261161e90919063ffffffff16565b611574565b6040518061010001604052908160008201548152602001600182015481526020016002820160009054906101000a900473ffffffffffffffffffffffffffffffffffffffff1673ffffffffffffffffffffffffffffffffffffffff1673ffffffffffffffffffffffffffffffffffffffff1681526020016003820160009054906101000a900473ffffffffffffffffffffffffffffffffffffffff1673ffffffffffffffffffffffffffffffffffffffff1673ffffffffffffffffffffffffffffffffffffffff1681526020016003820160149054906101000a900461ffff1661ffff1661ffff1681526020016003820160169054906101000a900461ffff1661ffff1661ffff16815260200160048201548152602001600582016040518060400160405290816000820160009054906101000a900473ffffffffffffffffffffffffffffffffffffffff1673ffffffffffffffffffffffffffffffffffffffff1673ffffffffffffffffffffffffffffffffffffffff1681526020016001820154815250508152505090503373ffffffffffffffffffffffffffffffffffffffff16816060015173ffffffffffffffffffffffffffffffffffffffff161415610d535780848481518110610d39577f4e487b7100000000000000000000000000000000000000000000000000000000600052603260045260246000fd5b60200260200101819052508280610d4f9061264d565b9350505b508080610d5f9061264d565b915050610b0c565b5081935050505090565b6000610d7c82611574565b9050610f11816040518061010001604052908160008201548152602001600182015481526020016002820160009054906101000a900473ffffffffffffffffffffffffffffffffffffffff1673ffffffffffffffffffffffffffffffffffffffff1673ffffffffffffffffffffffffffffffffffffffff1681526020016003820160009054906101000a900473ffffffffffffffffffffffffffffffffffffffff1673ffffffffffffffffffffffffffffffffffffffff1673ffffffffffffffffffffffffffffffffffffffff1681526020016003820160149054906101000a900461ffff1661ffff1661ffff1681526020016003820160169054906101000a900461ffff1661ffff1661ffff16815260200160048201548152602001600582016040518060400160405290816000820160009054906101000a900473ffffffffffffffffffffffffffffffffffffffff1673ffffffffffffffffffffffffffffffffffffffff1673ffffffffffffffffffffffffffffffffffffffff16815260200160018201548152505081525050611126565b3373ffffffffffffffffffffffffffffffffffffffff168160030160009054906101000a900473ffffffffffffffffffffffffffffffffffffffff1673ffffffffffffffffffffffffffffffffffffffff1614610fa3576040517f08c379a0000000000000000000000000000000000000000000000000000000008152600401610f9a90612321565b60405180910390fd5b6000620151808260030160149054906101000a900461ffff1661ffff16610fca91906124e1565b62ffffff168260050160010154610fe1919061245a565b905080421015611026576040517f08c379a000000000000000000000000000000000000000000000000000000000815260040161101d906122a1565b60405180910390fd5b6000611031836115be565b905061103c84611638565b60003373ffffffffffffffffffffffffffffffffffffffff1682604051611062906121d3565b60006040518083038185875af1925050503d806000811461109f576040519150601f19603f3d011682016040523d82523d6000602084013e6110a4565b606091505b50509050806110e8576040517f08c379a00000000000000000000000000000000000000000000000000000000081526004016110df90612381565b60405180910390fd5b7ff4b6d8e6d67e89eda2471635f9ba22585be1274f88e88143a6f0454aff128c158560405161111791906123c1565b60405180910390a15050505050565b60008160200151141561116e576040517f08c379a000000000000000000000000000000000000000000000000000000000815260040161116590612281565b60405180910390fd5b600073ffffffffffffffffffffffffffffffffffffffff16816040015173ffffffffffffffffffffffffffffffffffffffff1614156111e2576040517f08c379a00000000000000000000000000000000000000000000000000000000081526004016111d990612301565b60405180910390fd5b6000816080015161ffff161161122d576040517f08c379a000000000000000000000000000000000000000000000000000000000815260040161122490612261565b60405180910390fd5b60008160a0015161ffff1611611278576040517f08c379a000000000000000000000000000000000000000000000000000000000815260040161126f90612361565b60405180910390fd5b60008160c00151116112bf576040517f08c379a00000000000000000000000000000000000000000000000000000000081526004016112b690612241565b60405180910390fd5b50565b60008060008154809291906112d69061264d565b91905055826000018181525050816001600084600001518152602001908152602001600020600082015181600001556020820151816001015560408201518160020160006101000a81548173ffffffffffffffffffffffffffffffffffffffff021916908373ffffffffffffffffffffffffffffffffffffffff16021790555060608201518160030160006101000a81548173ffffffffffffffffffffffffffffffffffffffff021916908373ffffffffffffffffffffffffffffffffffffffff16021790555060808201518160030160146101000a81548161ffff021916908361ffff16021790555060a08201518160030160166101000a81548161ffff021916908361ffff16021790555060c0820151816004015560e08201518160050160008201518160000160006101000a81548173ffffffffffffffffffffffffffffffffffffffff021916908373ffffffffffffffffffffffffffffffffffffffff1602179055506020820151816001015550509050506114648260000151600261172c90919063ffffffff16565b5081600001519050919050565b6060600061147f6002611609565b905060008167ffffffffffffffff8111156114c3577f4e487b7100000000000000000000000000000000000000000000000000000000600052604160045260246000fd5b6040519080825280602002602001820160405280156114f15781602001602082028036833780820191505090505b50905060005b8281101561156b5761151381600261161e90919063ffffffff16565b82828151811061154c577f4e487b7100000000000000000000000000000000000000000000000000000000600052603260045260246000fd5b60200260200101818152505080806115639061264d565b9150506114f7565b50809250505090565b6000600160008381526020019081526020016000209050919050565b600061159c6002611609565b905090565b60006115b782600261174690919063ffffffff16565b9050919050565b60006115f382620151808460030160149054906101000a900461ffff1661ffff166115e991906124e1565b62ffffff16611760565b8260040154611602919061245a565b9050919050565b6000611617826000016117b5565b9050919050565b600061162d83600001836117c6565b60001c905092915050565b6001600082815260200190815260200160002060008082016000905560018201600090556002820160006101000a81549073ffffffffffffffffffffffffffffffffffffffff02191690556003820160006101000a81549073ffffffffffffffffffffffffffffffffffffffff02191690556003820160146101000a81549061ffff02191690556003820160166101000a81549061ffff0219169055600482016000905560058201600080820160006101000a81549073ffffffffffffffffffffffffffffffffffffffff021916905560018201600090555050505061172881600261181790919063ffffffff16565b5050565b600061173e836000018360001b611831565b905092915050565b6000611758836000018360001b6118a1565b905092915050565b60006064620151808385600401548660030160169054906101000a900461ffff1661ffff1661178f919061251e565b611799919061251e565b6117a391906124b0565b6117ad91906124b0565b905092915050565b600081600001805490509050919050565b6000826000018281548110611804577f4e487b7100000000000000000000000000000000000000000000000000000000600052603260045260246000fd5b9060005260206000200154905092915050565b6000611829836000018360001b6118c4565b905092915050565b600061183d83836118a1565b61189657826000018290806001815401808255809150506001900390600052602060002001600090919091909150558260000180549050836001016000848152602001908152602001600020819055506001905061189b565b600090505b92915050565b600080836001016000848152602001908152602001600020541415905092915050565b60008083600101600084815260200190815260200160002054905060008114611a3e5760006001826118f69190612578565b905060006001866000018054905061190e9190612578565b90508181146119c9576000866000018281548110611955577f4e487b7100000000000000000000000000000000000000000000000000000000600052603260045260246000fd5b906000526020600020015490508087600001848154811061199f577f4e487b7100000000000000000000000000000000000000000000000000000000600052603260045260246000fd5b90600052602060002001819055508387600101600083815260200190815260200160002081905550505b85600001805480611a03577f4e487b7100000000000000000000000000000000000000000000000000000000600052603160045260246000fd5b600190038181906000526020600020016000905590558560010160008681526020019081526020016000206000905560019350505050611a44565b60009150505b92915050565b6040518061010001604052806000815260200160008152602001600073ffffffffffffffffffffffffffffffffffffffff168152602001600073ffffffffffffffffffffffffffffffffffffffff168152602001600061ffff168152602001600061ffff16815260200160008152602001611ac3611ac9565b81525090565b6040518060400160405280600073ffffffffffffffffffffffffffffffffffffffff168152602001600081525090565b600081359050611b08816126f4565b92915050565b600081359050611b1d8161270b565b92915050565b600081359050611b3281612722565b92915050565b600060208284031215611b4a57600080fd5b6000611b5884828501611b23565b91505092915050565b600080600080600060a08688031215611b7957600080fd5b6000611b8788828901611b23565b9550506020611b9888828901611af9565b9450506040611ba988828901611b0e565b9350506060611bba88828901611b0e565b9250506080611bcb88828901611b23565b9150509295509295909350565b6000611be483836120d5565b6101208301905092915050565b611bfa81612617565b82525050565b611c09816125be565b82525050565b611c18816125ac565b82525050565b611c27816125ac565b82525050565b6000611c3882612415565b611c42818561242d565b9350611c4d83612405565b8060005b83811015611c7e578151611c658882611bd8565b9750611c7083612420565b925050600181019050611c51565b5085935050505092915050565b6000611c98602e83612449565b91507f76616c69646174654c697374696e674e46543a3a20436f6c6c61746572616c2060008301527f63616e6e6f74206265207a65726f0000000000000000000000000000000000006020830152604082019050919050565b6000611cfe602c83612449565b91507f76616c69646174654c697374696e674e46543a3a204475726174696f6e20636160008301527f6e6e6f74206265207a65726f00000000000000000000000000000000000000006020830152604082019050919050565b6000611d64602c83612449565b91507f76616c69646174654c697374696e674e46543a3a20546f6b656e49642063616e60008301527f6e6f7420626520656d70747900000000000000000000000000000000000000006020830152604082019050919050565b6000611dca602b83612449565b91507f63616e6e6f74207465726d696e6174652072656e74616c20746861742069732060008301527f6e6f7420796574206475650000000000000000000000000000000000000000006020830152604082019050919050565b6000611e30601a83612449565b91507f63616e6e6f742072656e7420796f7572206f776e20746f6b656e0000000000006000830152602082019050919050565b6000611e70601683612449565b91507f6c697374696e6720646f6573206e6f74206578697374000000000000000000006000830152602082019050919050565b6000611eb0603183612449565b91507f76616c69646174654c697374696e674e46543a3a20546f6b656e41646472657360008301527f732063616e6e6f7420626520656d7074790000000000000000000000000000006020830152604082019050919050565b6000611f16602883612449565b91507f6f6e6c7920746865206c656e6465722063616e207465726d696e61746520746860008301527f652072656e74616c0000000000000000000000000000000000000000000000006020830152604082019050919050565b6000611f7c601883612449565b91507f6e6f7420616e20617661696c61626c65206c697374696e6700000000000000006000830152602082019050919050565b6000611fbc603783612449565b91507f76616c69646174654c697374696e674e46543a3a204461696c7920696e74657260008301527f65737420726174652063616e6e6f74206265207a65726f0000000000000000006020830152604082019050919050565b6000612022602883612449565b91507f6661696c656420746f2073656e6420636f6c6c61746572616c206261636b207460008301527f6f206c656e6465720000000000000000000000000000000000000000000000006020830152604082019050919050565b600061208860008361243e565b9150600082019050919050565b60006120a2601b83612449565b91507f6d7573742073656e6420746865206578616374207061796d656e7400000000006000830152602082019050919050565b610120820160008201516120ec60008501826121b5565b5060208201516120ff60208501826121b5565b5060408201516121126040850182611c0f565b5060608201516121256060850182611c00565b50608082015161213860808501826121a6565b5060a082015161214b60a08501826121a6565b5060c082015161215e60c08501826121b5565b5060e082015161217160e0850182612177565b50505050565b60408201600082015161218d6000850182611c00565b5060208201516121a060208501826121b5565b50505050565b6121af816125d0565b82525050565b6121be8161260d565b82525050565b6121cd8161260d565b82525050565b60006121de8261207b565b9150819050919050565b60006060820190506121fd6000830186611bf1565b61220a6020830185611c1e565b61221760408301846121c4565b949350505050565b600060208201905081810360008301526122398184611c2d565b905092915050565b6000602082019050818103600083015261225a81611c8b565b9050919050565b6000602082019050818103600083015261227a81611cf1565b9050919050565b6000602082019050818103600083015261229a81611d57565b9050919050565b600060208201905081810360008301526122ba81611dbd565b9050919050565b600060208201905081810360008301526122da81611e23565b9050919050565b600060208201905081810360008301526122fa81611e63565b9050919050565b6000602082019050818103600083015261231a81611ea3565b9050919050565b6000602082019050818103600083015261233a81611f09565b9050919050565b6000602082019050818103600083015261235a81611f6f565b9050919050565b6000602082019050818103600083015261237a81611faf565b9050919050565b6000602082019050818103600083015261239a81612015565b9050919050565b600060208201905081810360008301526123ba81612095565b9050919050565b60006020820190506123d660008301846121c4565b92915050565b60006040820190506123f160008301856121c4565b6123fe60208301846121c4565b9392505050565b6000819050602082019050919050565b600081519050919050565b6000602082019050919050565b600082825260208201905092915050565b600081905092915050565b600082825260208201905092915050565b60006124658261260d565b91506124708361260d565b9250827fffffffffffffffffffffffffffffffffffffffffffffffffffffffffffffffff038211156124a5576124a4612696565b5b828201905092915050565b60006124bb8261260d565b91506124c68361260d565b9250826124d6576124d56126c5565b5b828204905092915050565b60006124ec826125fe565b91506124f7836125fe565b92508162ffffff048311821515161561251357612512612696565b5b828202905092915050565b60006125298261260d565b91506125348361260d565b9250817fffffffffffffffffffffffffffffffffffffffffffffffffffffffffffffffff048311821515161561256d5761256c612696565b5b828202905092915050565b60006125838261260d565b915061258e8361260d565b9250828210156125a1576125a0612696565b5b828203905092915050565b60006125b7826125de565b9050919050565b60006125c9826125de565b9050919050565b600061ffff82169050919050565b600073ffffffffffffffffffffffffffffffffffffffff82169050919050565b600062ffffff82169050919050565b6000819050919050565b600061262282612629565b9050919050565b60006126348261263b565b9050919050565b6000612646826125de565b9050919050565b60006126588261260d565b91507fffffffffffffffffffffffffffffffffffffffffffffffffffffffffffffffff82141561268b5761268a612696565b5b600182019050919050565b7f4e487b7100000000000000000000000000000000000000000000000000000000600052601160045260246000fd5b7f4e487b7100000000000000000000000000000000000000000000000000000000600052601260045260246000fd5b6126fd816125ac565b811461270857600080fd5b50565b612714816125d0565b811461271f57600080fd5b50565b61272b8161260d565b811461273657600080fd5b5056fea26469706673582212201ad10aa98b823e5e36e4879563250f76c1bd565acb28310b8c69270e0ec3345864736f6c63430008000033",
  "linkReferences": {},
  "deployedLinkReferences": {}
}