{
  "_format": "hh-sol-artifact-1",
  "contractName": "Kasu",
  "sourceName": "contracts/Kasu.sol",
  "abi": [
    {
      "anonymous": false,
      "inputs": [
        {
          "indexed": false,
          "internalType": "uint256",
          "name": "tokenId",
          "type": "uint256"
        }
      ],
      "name": "ListNFT",
      "type": "event"
    },
    {
      "anonymous": false,
      "inputs": [
        {
          "indexed": false,
          "internalType": "uint256",
          "name": "listingId",
          "type": "uint256"
        }
      ],
      "name": "TerminateRental",
      "type": "event"
    },
    {
      "inputs": [
        {
          "internalType": "uint256",
          "name": "listingId",
          "type": "uint256"
        }
      ],
      "name": "borrow",
      "outputs": [],
      "stateMutability": "payable",
      "type": "function"
    },
    {
      "inputs": [],
      "name": "getListingCount",
      "outputs": [
        {
          "internalType": "uint256",
          "name": "",
          "type": "uint256"
        }
      ],
      "stateMutability": "view",
      "type": "function"
    },
    {
      "inputs": [
        {
          "internalType": "uint256",
          "name": "tokenId",
          "type": "uint256"
        },
        {
          "internalType": "address",
          "name": "tokenAddress",
          "type": "address"
        },
        {
          "internalType": "uint16",
          "name": "duration",
          "type": "uint16"
        },
        {
          "internalType": "uint16",
          "name": "dailyInterestRate",
          "type": "uint16"
        },
        {
          "internalType": "uint256",
          "name": "collateralRequired",
          "type": "uint256"
        }
      ],
      "name": "listNFT",
      "outputs": [],
      "stateMutability": "nonpayable",
      "type": "function"
    },
    {
      "inputs": [
        {
          "internalType": "uint256",
          "name": "listingId",
          "type": "uint256"
        }
      ],
      "name": "returnNFT",
      "outputs": [],
      "stateMutability": "nonpayable",
      "type": "function"
    },
    {
      "inputs": [
        {
          "internalType": "uint256",
          "name": "listingId",
          "type": "uint256"
        }
      ],
      "name": "terminateRental",
      "outputs": [],
      "stateMutability": "nonpayable",
      "type": "function"
    },
    {
      "inputs": [
        {
          "internalType": "uint256",
          "name": "listingId",
          "type": "uint256"
        }
      ],
      "name": "unListNFT",
      "outputs": [],
      "stateMutability": "nonpayable",
      "type": "function"
    },
    {
      "inputs": [],
      "name": "viewAllListings",
      "outputs": [
        {
          "components": [
            {
              "internalType": "uint256",
              "name": "id",
              "type": "uint256"
            },
            {
              "internalType": "uint256",
              "name": "tokenId",
              "type": "uint256"
            },
            {
              "internalType": "address",
              "name": "tokenAddress",
              "type": "address"
            },
            {
              "internalType": "address payable",
              "name": "lenderAddress",
              "type": "address"
            },
            {
              "internalType": "uint16",
              "name": "duration",
              "type": "uint16"
            },
            {
              "internalType": "uint16",
              "name": "dailyInterestRate",
              "type": "uint16"
            },
            {
              "internalType": "uint256",
              "name": "collateralRequired",
              "type": "uint256"
            },
            {
              "components": [
                {
                  "internalType": "address payable",
                  "name": "borrowerAddress",
                  "type": "address"
                },
                {
                  "internalType": "uint256",
                  "name": "rentedAt",
                  "type": "uint256"
                }
              ],
              "internalType": "struct KasuStorage.Rental",
              "name": "rental",
              "type": "tuple"
            }
          ],
          "internalType": "struct KasuStorage.Listing[]",
          "name": "",
          "type": "tuple[]"
        }
      ],
      "stateMutability": "view",
      "type": "function"
    },
    {
      "inputs": [],
      "name": "viewOwnedOngoingListingsAndRentals",
      "outputs": [
        {
          "components": [
            {
              "internalType": "uint256",
              "name": "id",
              "type": "uint256"
            },
            {
              "internalType": "uint256",
              "name": "tokenId",
              "type": "uint256"
            },
            {
              "internalType": "address",
              "name": "tokenAddress",
              "type": "address"
            },
            {
              "internalType": "address payable",
              "name": "lenderAddress",
              "type": "address"
            },
            {
              "internalType": "uint16",
              "name": "duration",
              "type": "uint16"
            },
            {
              "internalType": "uint16",
              "name": "dailyInterestRate",
              "type": "uint16"
            },
            {
              "internalType": "uint256",
              "name": "collateralRequired",
              "type": "uint256"
            },
            {
              "components": [
                {
                  "internalType": "address payable",
                  "name": "borrowerAddress",
                  "type": "address"
                },
                {
                  "internalType": "uint256",
                  "name": "rentedAt",
                  "type": "uint256"
                }
              ],
              "internalType": "struct KasuStorage.Rental",
              "name": "rental",
              "type": "tuple"
            }
          ],
          "internalType": "struct KasuStorage.Listing[]",
          "name": "",
          "type": "tuple[]"
        }
      ],
      "stateMutability": "view",
      "type": "function"
    },
    {
      "inputs": [
        {
          "internalType": "uint256",
          "name": "listingId",
          "type": "uint256"
        }
      ],
      "name": "viewRentedListings",
      "outputs": [],
      "stateMutability": "nonpayable",
      "type": "function"
    }
  ],
  "bytecode": "0x6080604052600160005534801561001557600080fd5b50612740806100256000396000f3fe6080604052600436106100865760003560e01c8063b0cd2aa011610059578063b0cd2aa014610133578063c5ebeaec1461015c578063d12456dd14610178578063e522a8a1146101a1578063f9217419146101cc57610086565b80630ca2f1681461008b5780637ac0da04146100b457806381fab025146100dd57806387ed92d714610108575b600080fd5b34801561009757600080fd5b506100b260048036038101906100ad9190611b32565b6101f5565b005b3480156100c057600080fd5b506100db60048036038101906100d69190611b5b565b6101f8565b005b3480156100e957600080fd5b506100f26102ed565b6040516100ff9190612219565b60405180910390f35b34801561011457600080fd5b5061011d6105b9565b60405161012a91906123bb565b60405180910390f35b34801561013f57600080fd5b5061015a60048036038101906101559190611b32565b6105c8565b005b61017660048036038101906101719190611b32565b6105cb565b005b34801561018457600080fd5b5061019f600480360381019061019a9190611b32565b610864565b005b3480156101ad57600080fd5b506101b6610867565b6040516101c39190612219565b60405180910390f35b3480156101d857600080fd5b506101f360048036038101906101ee9190611b32565b610d6b565b005b50565b6000604051806101000160405280600081526020018781526020018673ffffffffffffffffffffffffffffffffffffffff1681526020013373ffffffffffffffffffffffffffffffffffffffff1681526020018561ffff1681526020018461ffff1681526020018381526020016040518060400160405280600073ffffffffffffffffffffffffffffffffffffffff168152602001600081525081525090506102a081611120565b6102a9816112bc565b507ffb3c9be84e060b16665f2ed71b9e1f625d2104e176926bbe34b79f4382dbb44881602001516040516102dd91906123bb565b60405180910390a1505050505050565b606060006102f961146b565b90506000815167ffffffffffffffff81111561033e577f4e487b7100000000000000000000000000000000000000000000000000000000600052604160045260246000fd5b60405190808252806020026020018201604052801561037757816020015b610364611a44565b81526020019060019003908161035c5790505b50905060005b82518110156105b0576103cf8382815181106103c2577f4e487b7100000000000000000000000000000000000000000000000000000000600052603260045260246000fd5b602002602001015161156e565b6040518061010001604052908160008201548152602001600182015481526020016002820160009054906101000a900473ffffffffffffffffffffffffffffffffffffffff1673ffffffffffffffffffffffffffffffffffffffff1673ffffffffffffffffffffffffffffffffffffffff1681526020016003820160009054906101000a900473ffffffffffffffffffffffffffffffffffffffff1673ffffffffffffffffffffffffffffffffffffffff1673ffffffffffffffffffffffffffffffffffffffff1681526020016003820160149054906101000a900461ffff1661ffff1661ffff1681526020016003820160169054906101000a900461ffff1661ffff1661ffff16815260200160048201548152602001600582016040518060400160405290816000820160009054906101000a900473ffffffffffffffffffffffffffffffffffffffff1673ffffffffffffffffffffffffffffffffffffffff1673ffffffffffffffffffffffffffffffffffffffff16815260200160018201548152505081525050828281518110610592577f4e487b7100000000000000000000000000000000000000000000000000000000600052603260045260246000fd5b602002602001018190525080806105a89061261e565b91505061037d565b50809250505090565b60006105c361158a565b905090565b50565b6105d48161159b565b610613576040517f08c379a000000000000000000000000000000000000000000000000000000000815260040161060a906122db565b60405180910390fd5b600061061e8261156e565b9050600081600501600101541461066a576040517f08c379a00000000000000000000000000000000000000000000000000000000081526004016106619061233b565b60405180910390fd5b3373ffffffffffffffffffffffffffffffffffffffff168160030160009054906101000a900473ffffffffffffffffffffffffffffffffffffffff1673ffffffffffffffffffffffffffffffffffffffff1614156106fd576040517f08c379a00000000000000000000000000000000000000000000000000000000081526004016106f4906122bb565b60405180910390fd5b6000610708826115b8565b905080341461074c576040517f08c379a00000000000000000000000000000000000000000000000000000000081526004016107439061239b565b60405180910390fd5b338260050160000160006101000a81548173ffffffffffffffffffffffffffffffffffffffff021916908373ffffffffffffffffffffffffffffffffffffffff16021790555042826005016001018190555060008260020160009054906101000a900473ffffffffffffffffffffffffffffffffffffffff1690508073ffffffffffffffffffffffffffffffffffffffff166342842e0e8460030160009054906101000a900473ffffffffffffffffffffffffffffffffffffffff163386600101546040518463ffffffff1660e01b815260040161082c939291906121e2565b600060405180830381600087803b15801561084657600080fd5b505af115801561085a573d6000803e3d6000fd5b5050505050505050565b50565b60606000805b6108776002611603565b811015610a8357600061089c61089783600261161890919063ffffffff16565b61156e565b6040518061010001604052908160008201548152602001600182015481526020016002820160009054906101000a900473ffffffffffffffffffffffffffffffffffffffff1673ffffffffffffffffffffffffffffffffffffffff1673ffffffffffffffffffffffffffffffffffffffff1681526020016003820160009054906101000a900473ffffffffffffffffffffffffffffffffffffffff1673ffffffffffffffffffffffffffffffffffffffff1673ffffffffffffffffffffffffffffffffffffffff1681526020016003820160149054906101000a900461ffff1661ffff1661ffff1681526020016003820160169054906101000a900461ffff1661ffff1661ffff16815260200160048201548152602001600582016040518060400160405290816000820160009054906101000a900473ffffffffffffffffffffffffffffffffffffffff1673ffffffffffffffffffffffffffffffffffffffff1673ffffffffffffffffffffffffffffffffffffffff1681526020016001820154815250508152505090503373ffffffffffffffffffffffffffffffffffffffff16816060015173ffffffffffffffffffffffffffffffffffffffff161415610a6f578280610a6b9061261e565b9350505b508080610a7b9061261e565b91505061086d565b5060008167ffffffffffffffff811115610ac6577f4e487b7100000000000000000000000000000000000000000000000000000000600052604160045260246000fd5b604051908082528060200260200182016040528015610aff57816020015b610aec611a44565b815260200190600190039081610ae45790505b5090506000805b610b106002611603565b811015610d61576000610b35610b3083600261161890919063ffffffff16565b61156e565b6040518061010001604052908160008201548152602001600182015481526020016002820160009054906101000a900473ffffffffffffffffffffffffffffffffffffffff1673ffffffffffffffffffffffffffffffffffffffff1673ffffffffffffffffffffffffffffffffffffffff1681526020016003820160009054906101000a900473ffffffffffffffffffffffffffffffffffffffff1673ffffffffffffffffffffffffffffffffffffffff1673ffffffffffffffffffffffffffffffffffffffff1681526020016003820160149054906101000a900461ffff1661ffff1661ffff1681526020016003820160169054906101000a900461ffff1661ffff1661ffff16815260200160048201548152602001600582016040518060400160405290816000820160009054906101000a900473ffffffffffffffffffffffffffffffffffffffff1673ffffffffffffffffffffffffffffffffffffffff1673ffffffffffffffffffffffffffffffffffffffff1681526020016001820154815250508152505090503373ffffffffffffffffffffffffffffffffffffffff16816060015173ffffffffffffffffffffffffffffffffffffffff161415610d4d5780848481518110610d33577f4e487b7100000000000000000000000000000000000000000000000000000000600052603260045260246000fd5b60200260200101819052508280610d499061261e565b9350505b508080610d599061261e565b915050610b06565b5081935050505090565b6000610d768261156e565b9050610f0b816040518061010001604052908160008201548152602001600182015481526020016002820160009054906101000a900473ffffffffffffffffffffffffffffffffffffffff1673ffffffffffffffffffffffffffffffffffffffff1673ffffffffffffffffffffffffffffffffffffffff1681526020016003820160009054906101000a900473ffffffffffffffffffffffffffffffffffffffff1673ffffffffffffffffffffffffffffffffffffffff1673ffffffffffffffffffffffffffffffffffffffff1681526020016003820160149054906101000a900461ffff1661ffff1661ffff1681526020016003820160169054906101000a900461ffff1661ffff1661ffff16815260200160048201548152602001600582016040518060400160405290816000820160009054906101000a900473ffffffffffffffffffffffffffffffffffffffff1673ffffffffffffffffffffffffffffffffffffffff1673ffffffffffffffffffffffffffffffffffffffff16815260200160018201548152505081525050611120565b3373ffffffffffffffffffffffffffffffffffffffff168160030160009054906101000a900473ffffffffffffffffffffffffffffffffffffffff1673ffffffffffffffffffffffffffffffffffffffff1614610f9d576040517f08c379a0000000000000000000000000000000000000000000000000000000008152600401610f949061231b565b60405180910390fd5b6000620151808260030160149054906101000a900461ffff1661ffff16610fc491906124b2565b62ffffff168260050160010154610fdb919061242b565b905080421015611020576040517f08c379a00000000000000000000000000000000000000000000000000000000081526004016110179061229b565b60405180910390fd5b600061102b836115b8565b905061103684611632565b60003373ffffffffffffffffffffffffffffffffffffffff168260405161105c906121cd565b60006040518083038185875af1925050503d8060008114611099576040519150601f19603f3d011682016040523d82523d6000602084013e61109e565b606091505b50509050806110e2576040517f08c379a00000000000000000000000000000000000000000000000000000000081526004016110d99061237b565b60405180910390fd5b7ff4b6d8e6d67e89eda2471635f9ba22585be1274f88e88143a6f0454aff128c158560405161111191906123bb565b60405180910390a15050505050565b600081602001511415611168576040517f08c379a000000000000000000000000000000000000000000000000000000000815260040161115f9061227b565b60405180910390fd5b600073ffffffffffffffffffffffffffffffffffffffff16816040015173ffffffffffffffffffffffffffffffffffffffff1614156111dc576040517f08c379a00000000000000000000000000000000000000000000000000000000081526004016111d3906122fb565b60405180910390fd5b6000816080015161ffff1611611227576040517f08c379a000000000000000000000000000000000000000000000000000000000815260040161121e9061225b565b60405180910390fd5b60008160a0015161ffff1611611272576040517f08c379a00000000000000000000000000000000000000000000000000000000081526004016112699061235b565b60405180910390fd5b60008160c00151116112b9576040517f08c379a00000000000000000000000000000000000000000000000000000000081526004016112b09061223b565b60405180910390fd5b50565b60008060008154809291906112d09061261e565b91905055826000018181525050816001600084600001518152602001908152602001600020600082015181600001556020820151816001015560408201518160020160006101000a81548173ffffffffffffffffffffffffffffffffffffffff021916908373ffffffffffffffffffffffffffffffffffffffff16021790555060608201518160030160006101000a81548173ffffffffffffffffffffffffffffffffffffffff021916908373ffffffffffffffffffffffffffffffffffffffff16021790555060808201518160030160146101000a81548161ffff021916908361ffff16021790555060a08201518160030160166101000a81548161ffff021916908361ffff16021790555060c0820151816004015560e08201518160050160008201518160000160006101000a81548173ffffffffffffffffffffffffffffffffffffffff021916908373ffffffffffffffffffffffffffffffffffffffff16021790555060208201518160010155505090505061145e8260000151600261172690919063ffffffff16565b5081600001519050919050565b606060006114796002611603565b905060008167ffffffffffffffff8111156114bd577f4e487b7100000000000000000000000000000000000000000000000000000000600052604160045260246000fd5b6040519080825280602002602001820160405280156114eb5781602001602082028036833780820191505090505b50905060005b828110156115655761150d81600261161890919063ffffffff16565b828281518110611546577f4e487b7100000000000000000000000000000000000000000000000000000000600052603260045260246000fd5b602002602001018181525050808061155d9061261e565b9150506114f1565b50809250505090565b6000600160008381526020019081526020016000209050919050565b60006115966002611603565b905090565b60006115b182600261174090919063ffffffff16565b9050919050565b60006115ed82620151808460030160149054906101000a900461ffff1661ffff166115e391906124b2565b62ffffff1661175a565b82600401546115fc919061242b565b9050919050565b6000611611826000016117af565b9050919050565b600061162783600001836117c0565b60001c905092915050565b6001600082815260200190815260200160002060008082016000905560018201600090556002820160006101000a81549073ffffffffffffffffffffffffffffffffffffffff02191690556003820160006101000a81549073ffffffffffffffffffffffffffffffffffffffff02191690556003820160146101000a81549061ffff02191690556003820160166101000a81549061ffff0219169055600482016000905560058201600080820160006101000a81549073ffffffffffffffffffffffffffffffffffffffff021916905560018201600090555050505061172281600261181190919063ffffffff16565b5050565b6000611738836000018360001b61182b565b905092915050565b6000611752836000018360001b61189b565b905092915050565b60006064620151808385600401548660030160169054906101000a900461ffff1661ffff1661178991906124ef565b61179391906124ef565b61179d9190612481565b6117a79190612481565b905092915050565b600081600001805490509050919050565b60008260000182815481106117fe577f4e487b7100000000000000000000000000000000000000000000000000000000600052603260045260246000fd5b9060005260206000200154905092915050565b6000611823836000018360001b6118be565b905092915050565b6000611837838361189b565b611890578260000182908060018154018082558091505060019003906000526020600020016000909190919091505582600001805490508360010160008481526020019081526020016000208190555060019050611895565b600090505b92915050565b600080836001016000848152602001908152602001600020541415905092915050565b60008083600101600084815260200190815260200160002054905060008114611a385760006001826118f09190612549565b90506000600186600001805490506119089190612549565b90508181146119c357600086600001828154811061194f577f4e487b7100000000000000000000000000000000000000000000000000000000600052603260045260246000fd5b9060005260206000200154905080876000018481548110611999577f4e487b7100000000000000000000000000000000000000000000000000000000600052603260045260246000fd5b90600052602060002001819055508387600101600083815260200190815260200160002081905550505b856000018054806119fd577f4e487b7100000000000000000000000000000000000000000000000000000000600052603160045260246000fd5b600190038181906000526020600020016000905590558560010160008681526020019081526020016000206000905560019350505050611a3e565b60009150505b92915050565b6040518061010001604052806000815260200160008152602001600073ffffffffffffffffffffffffffffffffffffffff168152602001600073ffffffffffffffffffffffffffffffffffffffff168152602001600061ffff168152602001600061ffff16815260200160008152602001611abd611ac3565b81525090565b6040518060400160405280600073ffffffffffffffffffffffffffffffffffffffff168152602001600081525090565b600081359050611b02816126c5565b92915050565b600081359050611b17816126dc565b92915050565b600081359050611b2c816126f3565b92915050565b600060208284031215611b4457600080fd5b6000611b5284828501611b1d565b91505092915050565b600080600080600060a08688031215611b7357600080fd5b6000611b8188828901611b1d565b9550506020611b9288828901611af3565b9450506040611ba388828901611b08565b9350506060611bb488828901611b08565b9250506080611bc588828901611b1d565b9150509295509295909350565b6000611bde83836120cf565b6101208301905092915050565b611bf4816125e8565b82525050565b611c038161258f565b82525050565b611c128161257d565b82525050565b611c218161257d565b82525050565b6000611c32826123e6565b611c3c81856123fe565b9350611c47836123d6565b8060005b83811015611c78578151611c5f8882611bd2565b9750611c6a836123f1565b925050600181019050611c4b565b5085935050505092915050565b6000611c92602e8361241a565b91507f76616c69646174654c697374696e674e46543a3a20436f6c6c61746572616c2060008301527f63616e6e6f74206265207a65726f0000000000000000000000000000000000006020830152604082019050919050565b6000611cf8602c8361241a565b91507f76616c69646174654c697374696e674e46543a3a204475726174696f6e20636160008301527f6e6e6f74206265207a65726f00000000000000000000000000000000000000006020830152604082019050919050565b6000611d5e602c8361241a565b91507f76616c69646174654c697374696e674e46543a3a20546f6b656e49642063616e60008301527f6e6f7420626520656d70747900000000000000000000000000000000000000006020830152604082019050919050565b6000611dc4602b8361241a565b91507f63616e6e6f74207465726d696e6174652072656e74616c20746861742069732060008301527f6e6f7420796574206475650000000000000000000000000000000000000000006020830152604082019050919050565b6000611e2a601a8361241a565b91507f63616e6e6f742072656e7420796f7572206f776e20746f6b656e0000000000006000830152602082019050919050565b6000611e6a60168361241a565b91507f6c697374696e6720646f6573206e6f74206578697374000000000000000000006000830152602082019050919050565b6000611eaa60318361241a565b91507f76616c69646174654c697374696e674e46543a3a20546f6b656e41646472657360008301527f732063616e6e6f7420626520656d7074790000000000000000000000000000006020830152604082019050919050565b6000611f1060288361241a565b91507f6f6e6c7920746865206c656e6465722063616e207465726d696e61746520746860008301527f652072656e74616c0000000000000000000000000000000000000000000000006020830152604082019050919050565b6000611f7660188361241a565b91507f6e6f7420616e20617661696c61626c65206c697374696e6700000000000000006000830152602082019050919050565b6000611fb660378361241a565b91507f76616c69646174654c697374696e674e46543a3a204461696c7920696e74657260008301527f65737420726174652063616e6e6f74206265207a65726f0000000000000000006020830152604082019050919050565b600061201c60288361241a565b91507f6661696c656420746f2073656e6420636f6c6c61746572616c206261636b207460008301527f6f206c656e6465720000000000000000000000000000000000000000000000006020830152604082019050919050565b600061208260008361240f565b9150600082019050919050565b600061209c601b8361241a565b91507f6d7573742073656e6420746865206578616374207061796d656e7400000000006000830152602082019050919050565b610120820160008201516120e660008501826121af565b5060208201516120f960208501826121af565b50604082015161210c6040850182611c09565b50606082015161211f6060850182611bfa565b50608082015161213260808501826121a0565b5060a082015161214560a08501826121a0565b5060c082015161215860c08501826121af565b5060e082015161216b60e0850182612171565b50505050565b6040820160008201516121876000850182611bfa565b50602082015161219a60208501826121af565b50505050565b6121a9816125a1565b82525050565b6121b8816125de565b82525050565b6121c7816125de565b82525050565b60006121d882612075565b9150819050919050565b60006060820190506121f76000830186611beb565b6122046020830185611c18565b61221160408301846121be565b949350505050565b600060208201905081810360008301526122338184611c27565b905092915050565b6000602082019050818103600083015261225481611c85565b9050919050565b6000602082019050818103600083015261227481611ceb565b9050919050565b6000602082019050818103600083015261229481611d51565b9050919050565b600060208201905081810360008301526122b481611db7565b9050919050565b600060208201905081810360008301526122d481611e1d565b9050919050565b600060208201905081810360008301526122f481611e5d565b9050919050565b6000602082019050818103600083015261231481611e9d565b9050919050565b6000602082019050818103600083015261233481611f03565b9050919050565b6000602082019050818103600083015261235481611f69565b9050919050565b6000602082019050818103600083015261237481611fa9565b9050919050565b600060208201905081810360008301526123948161200f565b9050919050565b600060208201905081810360008301526123b48161208f565b9050919050565b60006020820190506123d060008301846121be565b92915050565b6000819050602082019050919050565b600081519050919050565b6000602082019050919050565b600082825260208201905092915050565b600081905092915050565b600082825260208201905092915050565b6000612436826125de565b9150612441836125de565b9250827fffffffffffffffffffffffffffffffffffffffffffffffffffffffffffffffff0382111561247657612475612667565b5b828201905092915050565b600061248c826125de565b9150612497836125de565b9250826124a7576124a6612696565b5b828204905092915050565b60006124bd826125cf565b91506124c8836125cf565b92508162ffffff04831182151516156124e4576124e3612667565b5b828202905092915050565b60006124fa826125de565b9150612505836125de565b9250817fffffffffffffffffffffffffffffffffffffffffffffffffffffffffffffffff048311821515161561253e5761253d612667565b5b828202905092915050565b6000612554826125de565b915061255f836125de565b92508282101561257257612571612667565b5b828203905092915050565b6000612588826125af565b9050919050565b600061259a826125af565b9050919050565b600061ffff82169050919050565b600073ffffffffffffffffffffffffffffffffffffffff82169050919050565b600062ffffff82169050919050565b6000819050919050565b60006125f3826125fa565b9050919050565b60006126058261260c565b9050919050565b6000612617826125af565b9050919050565b6000612629826125de565b91507fffffffffffffffffffffffffffffffffffffffffffffffffffffffffffffffff82141561265c5761265b612667565b5b600182019050919050565b7f4e487b7100000000000000000000000000000000000000000000000000000000600052601160045260246000fd5b7f4e487b7100000000000000000000000000000000000000000000000000000000600052601260045260246000fd5b6126ce8161257d565b81146126d957600080fd5b50565b6126e5816125a1565b81146126f057600080fd5b50565b6126fc816125de565b811461270757600080fd5b5056fea2646970667358221220148b9e2b678325ad51d4aa7b9f92feef8240547aced076b524ab531a261830a664736f6c63430008000033",
  "linkReferences": {},
  "deployedLinkReferences": {}
}