{
  "_format": "hh-sol-artifact-1",
  "contractName": "Kasu",
  "sourceName": "contracts/Kasu.sol",
  "abi": [
    {
      "anonymous": false,
      "inputs": [
        {
          "indexed": false,
          "internalType": "uint256",
          "name": "listingId",
          "type": "uint256"
        },
        {
          "indexed": false,
          "internalType": "uint256",
          "name": "tokenId",
          "type": "uint256"
        }
      ],
      "name": "ListNFT",
      "type": "event"
    },
    {
      "anonymous": false,
      "inputs": [
        {
          "indexed": false,
          "internalType": "uint256",
          "name": "listingId",
          "type": "uint256"
        }
      ],
      "name": "TerminateRental",
      "type": "event"
    },
    {
      "inputs": [
        {
          "internalType": "uint256",
          "name": "listingId",
          "type": "uint256"
        }
      ],
      "name": "borrow",
      "outputs": [],
      "stateMutability": "payable",
      "type": "function"
    },
    {
      "inputs": [],
      "name": "getListingCount",
      "outputs": [
        {
          "internalType": "uint256",
          "name": "",
          "type": "uint256"
        }
      ],
      "stateMutability": "view",
      "type": "function"
    },
    {
      "inputs": [
        {
          "internalType": "uint256",
          "name": "tokenId",
          "type": "uint256"
        },
        {
          "internalType": "address",
          "name": "tokenAddress",
          "type": "address"
        },
        {
          "internalType": "uint16",
          "name": "duration",
          "type": "uint16"
        },
        {
          "internalType": "uint16",
          "name": "dailyInterestRate",
          "type": "uint16"
        },
        {
          "internalType": "uint256",
          "name": "collateralRequired",
          "type": "uint256"
        }
      ],
      "name": "listNFT",
      "outputs": [],
      "stateMutability": "nonpayable",
      "type": "function"
    },
    {
      "inputs": [
        {
          "internalType": "uint256",
          "name": "listingId",
          "type": "uint256"
        }
      ],
      "name": "returnNFT",
      "outputs": [],
      "stateMutability": "nonpayable",
      "type": "function"
    },
    {
      "inputs": [
        {
          "internalType": "uint256",
          "name": "listingId",
          "type": "uint256"
        }
      ],
      "name": "terminateRental",
      "outputs": [],
      "stateMutability": "nonpayable",
      "type": "function"
    },
    {
      "inputs": [
        {
          "internalType": "uint256",
          "name": "listingId",
          "type": "uint256"
        }
      ],
      "name": "unListNFT",
      "outputs": [],
      "stateMutability": "nonpayable",
      "type": "function"
    },
    {
      "inputs": [],
      "name": "viewAllListings",
      "outputs": [
        {
          "components": [
            {
              "internalType": "uint256",
              "name": "id",
              "type": "uint256"
            },
            {
              "internalType": "uint256",
              "name": "tokenId",
              "type": "uint256"
            },
            {
              "internalType": "address",
              "name": "tokenAddress",
              "type": "address"
            },
            {
              "internalType": "address payable",
              "name": "lenderAddress",
              "type": "address"
            },
            {
              "internalType": "uint16",
              "name": "duration",
              "type": "uint16"
            },
            {
              "internalType": "uint16",
              "name": "dailyInterestRate",
              "type": "uint16"
            },
            {
              "internalType": "uint256",
              "name": "collateralRequired",
              "type": "uint256"
            },
            {
              "components": [
                {
                  "internalType": "address payable",
                  "name": "borrowerAddress",
                  "type": "address"
                },
                {
                  "internalType": "uint256",
                  "name": "rentedAt",
                  "type": "uint256"
                }
              ],
              "internalType": "struct KasuStorage.Rental",
              "name": "rental",
              "type": "tuple"
            }
          ],
          "internalType": "struct KasuStorage.Listing[]",
          "name": "",
          "type": "tuple[]"
        }
      ],
      "stateMutability": "view",
      "type": "function"
    },
    {
      "inputs": [],
      "name": "viewOwnedOngoingListingsAndRentals",
      "outputs": [
        {
          "components": [
            {
              "internalType": "uint256",
              "name": "id",
              "type": "uint256"
            },
            {
              "internalType": "uint256",
              "name": "tokenId",
              "type": "uint256"
            },
            {
              "internalType": "address",
              "name": "tokenAddress",
              "type": "address"
            },
            {
              "internalType": "address payable",
              "name": "lenderAddress",
              "type": "address"
            },
            {
              "internalType": "uint16",
              "name": "duration",
              "type": "uint16"
            },
            {
              "internalType": "uint16",
              "name": "dailyInterestRate",
              "type": "uint16"
            },
            {
              "internalType": "uint256",
              "name": "collateralRequired",
              "type": "uint256"
            },
            {
              "components": [
                {
                  "internalType": "address payable",
                  "name": "borrowerAddress",
                  "type": "address"
                },
                {
                  "internalType": "uint256",
                  "name": "rentedAt",
                  "type": "uint256"
                }
              ],
              "internalType": "struct KasuStorage.Rental",
              "name": "rental",
              "type": "tuple"
            }
          ],
          "internalType": "struct KasuStorage.Listing[]",
          "name": "",
          "type": "tuple[]"
        }
      ],
      "stateMutability": "view",
      "type": "function"
    },
    {
      "inputs": [],
      "name": "viewRentedListings",
      "outputs": [
        {
          "components": [
            {
              "internalType": "uint256",
              "name": "id",
              "type": "uint256"
            },
            {
              "internalType": "uint256",
              "name": "tokenId",
              "type": "uint256"
            },
            {
              "internalType": "address",
              "name": "tokenAddress",
              "type": "address"
            },
            {
              "internalType": "address payable",
              "name": "lenderAddress",
              "type": "address"
            },
            {
              "internalType": "uint16",
              "name": "duration",
              "type": "uint16"
            },
            {
              "internalType": "uint16",
              "name": "dailyInterestRate",
              "type": "uint16"
            },
            {
              "internalType": "uint256",
              "name": "collateralRequired",
              "type": "uint256"
            },
            {
              "components": [
                {
                  "internalType": "address payable",
                  "name": "borrowerAddress",
                  "type": "address"
                },
                {
                  "internalType": "uint256",
                  "name": "rentedAt",
                  "type": "uint256"
                }
              ],
              "internalType": "struct KasuStorage.Rental",
              "name": "rental",
              "type": "tuple"
            }
          ],
          "internalType": "struct KasuStorage.Listing[]",
          "name": "",
          "type": "tuple[]"
        }
      ],
      "stateMutability": "view",
      "type": "function"
    }
  ],
  "bytecode": "0x6080604052600160005534801561001557600080fd5b506130f2806100256000396000f3fe6080604052600436106100865760003560e01c8063b0cd2aa011610059578063b0cd2aa014610133578063bf1b2c3a1461015c578063c5ebeaec14610187578063e522a8a1146101a3578063f9217419146101ce57610086565b80630ca2f1681461008b5780637ac0da04146100b457806381fab025146100dd57806387ed92d714610108575b600080fd5b34801561009757600080fd5b506100b260048036038101906100ad919061239e565b6101f7565b005b3480156100c057600080fd5b506100db60048036038101906100d691906123c7565b6101fa565b005b3480156100e957600080fd5b506100f26102f5565b6040516100ff9190612b62565b60405180910390f35b34801561011457600080fd5b5061011d6105c1565b60405161012a9190612d44565b60405180910390f35b34801561013f57600080fd5b5061015a6004803603810190610155919061239e565b6105d0565b005b34801561016857600080fd5b5061017161092e565b60405161017e9190612b62565b60405180910390f35b6101a1600480360381019061019c919061239e565b610e3a565b005b3480156101af57600080fd5b506101b86110d3565b6040516101c59190612b62565b60405180910390f35b3480156101da57600080fd5b506101f560048036038101906101f0919061239e565b6115d7565b005b50565b6000604051806101000160405280600081526020018781526020018673ffffffffffffffffffffffffffffffffffffffff1681526020013373ffffffffffffffffffffffffffffffffffffffff1681526020018561ffff1681526020018461ffff1681526020018381526020016040518060400160405280600073ffffffffffffffffffffffffffffffffffffffff168152602001600081525081525090506102a28161198c565b6102ab81611b28565b507fadc2524c8f93616be9bad3bcab121a8de2a297699e78d4762481efcd6d26a926816000015182602001516040516102e5929190612d5f565b60405180910390a1505050505050565b60606000610301611cd7565b90506000815167ffffffffffffffff811115610346577f4e487b7100000000000000000000000000000000000000000000000000000000600052604160045260246000fd5b60405190808252806020026020018201604052801561037f57816020015b61036c6122b0565b8152602001906001900390816103645790505b50905060005b82518110156105b8576103d78382815181106103ca577f4e487b7100000000000000000000000000000000000000000000000000000000600052603260045260246000fd5b6020026020010151611dda565b6040518061010001604052908160008201548152602001600182015481526020016002820160009054906101000a900473ffffffffffffffffffffffffffffffffffffffff1673ffffffffffffffffffffffffffffffffffffffff1673ffffffffffffffffffffffffffffffffffffffff1681526020016003820160009054906101000a900473ffffffffffffffffffffffffffffffffffffffff1673ffffffffffffffffffffffffffffffffffffffff1673ffffffffffffffffffffffffffffffffffffffff1681526020016003820160149054906101000a900461ffff1661ffff1661ffff1681526020016003820160169054906101000a900461ffff1661ffff1661ffff16815260200160048201548152602001600582016040518060400160405290816000820160009054906101000a900473ffffffffffffffffffffffffffffffffffffffff1673ffffffffffffffffffffffffffffffffffffffff1673ffffffffffffffffffffffffffffffffffffffff1681526020016001820154815250508152505082828151811061059a577f4e487b7100000000000000000000000000000000000000000000000000000000600052603260045260246000fd5b602002602001018190525080806105b090612fd0565b915050610385565b50809250505090565b60006105cb611df6565b905090565b60006105db82611dda565b6040518061010001604052908160008201548152602001600182015481526020016002820160009054906101000a900473ffffffffffffffffffffffffffffffffffffffff1673ffffffffffffffffffffffffffffffffffffffff1673ffffffffffffffffffffffffffffffffffffffff1681526020016003820160009054906101000a900473ffffffffffffffffffffffffffffffffffffffff1673ffffffffffffffffffffffffffffffffffffffff1673ffffffffffffffffffffffffffffffffffffffff1681526020016003820160149054906101000a900461ffff1661ffff1661ffff1681526020016003820160169054906101000a900461ffff1661ffff1661ffff16815260200160048201548152602001600582016040518060400160405290816000820160009054906101000a900473ffffffffffffffffffffffffffffffffffffffff1673ffffffffffffffffffffffffffffffffffffffff1673ffffffffffffffffffffffffffffffffffffffff1681526020016001820154815250508152505090506000816000015114156107af576040517f08c379a00000000000000000000000000000000000000000000000000000000081526004016107a690612c64565b60405180910390fd5b806040015173ffffffffffffffffffffffffffffffffffffffff166342842e0e8260e0015160000151836060015184602001516040518463ffffffff1660e01b815260040161080093929190612af4565b600060405180830381600087803b15801561081a57600080fd5b505af115801561082e573d6000803e3d6000fd5b5050505060008160e001516000015173ffffffffffffffffffffffffffffffffffffffff168260c0015160405161086490612adf565b60006040518083038185875af1925050503d80600081146108a1576040519150601f19603f3d011682016040523d82523d6000602084013e6108a6565b606091505b50509050806108ea576040517f08c379a00000000000000000000000000000000000000000000000000000000081526004016108e190612d04565b60405180910390fd5b60008260e0015160200151426109009190612efb565b9050600061091661091086611dda565b83611e07565b905083606001515061092785611e5c565b5050505050565b60606000805b61093e6002611f50565b811015610b4e57600061096361095e836002611f6590919063ffffffff16565b611dda565b6040518061010001604052908160008201548152602001600182015481526020016002820160009054906101000a900473ffffffffffffffffffffffffffffffffffffffff1673ffffffffffffffffffffffffffffffffffffffff1673ffffffffffffffffffffffffffffffffffffffff1681526020016003820160009054906101000a900473ffffffffffffffffffffffffffffffffffffffff1673ffffffffffffffffffffffffffffffffffffffff1673ffffffffffffffffffffffffffffffffffffffff1681526020016003820160149054906101000a900461ffff1661ffff1661ffff1681526020016003820160169054906101000a900461ffff1661ffff1661ffff16815260200160048201548152602001600582016040518060400160405290816000820160009054906101000a900473ffffffffffffffffffffffffffffffffffffffff1673ffffffffffffffffffffffffffffffffffffffff1673ffffffffffffffffffffffffffffffffffffffff1681526020016001820154815250508152505090503373ffffffffffffffffffffffffffffffffffffffff168160e001516000015173ffffffffffffffffffffffffffffffffffffffff161415610b3a578280610b3690612fd0565b9350505b508080610b4690612fd0565b915050610934565b5060008167ffffffffffffffff811115610b91577f4e487b7100000000000000000000000000000000000000000000000000000000600052604160045260246000fd5b604051908082528060200260200182016040528015610bca57816020015b610bb76122b0565b815260200190600190039081610baf5790505b5090506000805b610bdb6002611f50565b811015610e30576000610c00610bfb836002611f6590919063ffffffff16565b611dda565b6040518061010001604052908160008201548152602001600182015481526020016002820160009054906101000a900473ffffffffffffffffffffffffffffffffffffffff1673ffffffffffffffffffffffffffffffffffffffff1673ffffffffffffffffffffffffffffffffffffffff1681526020016003820160009054906101000a900473ffffffffffffffffffffffffffffffffffffffff1673ffffffffffffffffffffffffffffffffffffffff1673ffffffffffffffffffffffffffffffffffffffff1681526020016003820160149054906101000a900461ffff1661ffff1661ffff1681526020016003820160169054906101000a900461ffff1661ffff1661ffff16815260200160048201548152602001600582016040518060400160405290816000820160009054906101000a900473ffffffffffffffffffffffffffffffffffffffff1673ffffffffffffffffffffffffffffffffffffffff1673ffffffffffffffffffffffffffffffffffffffff1681526020016001820154815250508152505090503373ffffffffffffffffffffffffffffffffffffffff168160e001516000015173ffffffffffffffffffffffffffffffffffffffff161415610e1c5780848481518110610e02577f4e487b7100000000000000000000000000000000000000000000000000000000600052603260045260246000fd5b60200260200101819052508280610e1890612fd0565b9350505b508080610e2890612fd0565b915050610bd1565b5081935050505090565b610e4381611f7f565b610e82576040517f08c379a0000000000000000000000000000000000000000000000000000000008152600401610e7990612c24565b60405180910390fd5b6000610e8d82611dda565b90506000816005016001015414610ed9576040517f08c379a0000000000000000000000000000000000000000000000000000000008152600401610ed090612ca4565b60405180910390fd5b3373ffffffffffffffffffffffffffffffffffffffff168160030160009054906101000a900473ffffffffffffffffffffffffffffffffffffffff1673ffffffffffffffffffffffffffffffffffffffff161415610f6c576040517f08c379a0000000000000000000000000000000000000000000000000000000008152600401610f6390612c04565b60405180910390fd5b6000610f7782611f9c565b9050803414610fbb576040517f08c379a0000000000000000000000000000000000000000000000000000000008152600401610fb290612d24565b60405180910390fd5b338260050160000160006101000a81548173ffffffffffffffffffffffffffffffffffffffff021916908373ffffffffffffffffffffffffffffffffffffffff16021790555042826005016001018190555060008260020160009054906101000a900473ffffffffffffffffffffffffffffffffffffffff1690508073ffffffffffffffffffffffffffffffffffffffff166342842e0e8460030160009054906101000a900473ffffffffffffffffffffffffffffffffffffffff163386600101546040518463ffffffff1660e01b815260040161109b93929190612b2b565b600060405180830381600087803b1580156110b557600080fd5b505af11580156110c9573d6000803e3d6000fd5b5050505050505050565b60606000805b6110e36002611f50565b8110156112ef576000611108611103836002611f6590919063ffffffff16565b611dda565b6040518061010001604052908160008201548152602001600182015481526020016002820160009054906101000a900473ffffffffffffffffffffffffffffffffffffffff1673ffffffffffffffffffffffffffffffffffffffff1673ffffffffffffffffffffffffffffffffffffffff1681526020016003820160009054906101000a900473ffffffffffffffffffffffffffffffffffffffff1673ffffffffffffffffffffffffffffffffffffffff1673ffffffffffffffffffffffffffffffffffffffff1681526020016003820160149054906101000a900461ffff1661ffff1661ffff1681526020016003820160169054906101000a900461ffff1661ffff1661ffff16815260200160048201548152602001600582016040518060400160405290816000820160009054906101000a900473ffffffffffffffffffffffffffffffffffffffff1673ffffffffffffffffffffffffffffffffffffffff1673ffffffffffffffffffffffffffffffffffffffff1681526020016001820154815250508152505090503373ffffffffffffffffffffffffffffffffffffffff16816060015173ffffffffffffffffffffffffffffffffffffffff1614156112db5782806112d790612fd0565b9350505b5080806112e790612fd0565b9150506110d9565b5060008167ffffffffffffffff811115611332577f4e487b7100000000000000000000000000000000000000000000000000000000600052604160045260246000fd5b60405190808252806020026020018201604052801561136b57816020015b6113586122b0565b8152602001906001900390816113505790505b5090506000805b61137c6002611f50565b8110156115cd5760006113a161139c836002611f6590919063ffffffff16565b611dda565b6040518061010001604052908160008201548152602001600182015481526020016002820160009054906101000a900473ffffffffffffffffffffffffffffffffffffffff1673ffffffffffffffffffffffffffffffffffffffff1673ffffffffffffffffffffffffffffffffffffffff1681526020016003820160009054906101000a900473ffffffffffffffffffffffffffffffffffffffff1673ffffffffffffffffffffffffffffffffffffffff1673ffffffffffffffffffffffffffffffffffffffff1681526020016003820160149054906101000a900461ffff1661ffff1661ffff1681526020016003820160169054906101000a900461ffff1661ffff1661ffff16815260200160048201548152602001600582016040518060400160405290816000820160009054906101000a900473ffffffffffffffffffffffffffffffffffffffff1673ffffffffffffffffffffffffffffffffffffffff1673ffffffffffffffffffffffffffffffffffffffff1681526020016001820154815250508152505090503373ffffffffffffffffffffffffffffffffffffffff16816060015173ffffffffffffffffffffffffffffffffffffffff1614156115b9578084848151811061159f577f4e487b7100000000000000000000000000000000000000000000000000000000600052603260045260246000fd5b602002602001018190525082806115b590612fd0565b9350505b5080806115c590612fd0565b915050611372565b5081935050505090565b60006115e282611dda565b9050611777816040518061010001604052908160008201548152602001600182015481526020016002820160009054906101000a900473ffffffffffffffffffffffffffffffffffffffff1673ffffffffffffffffffffffffffffffffffffffff1673ffffffffffffffffffffffffffffffffffffffff1681526020016003820160009054906101000a900473ffffffffffffffffffffffffffffffffffffffff1673ffffffffffffffffffffffffffffffffffffffff1673ffffffffffffffffffffffffffffffffffffffff1681526020016003820160149054906101000a900461ffff1661ffff1661ffff1681526020016003820160169054906101000a900461ffff1661ffff1661ffff16815260200160048201548152602001600582016040518060400160405290816000820160009054906101000a900473ffffffffffffffffffffffffffffffffffffffff1673ffffffffffffffffffffffffffffffffffffffff1673ffffffffffffffffffffffffffffffffffffffff1681526020016001820154815250508152505061198c565b3373ffffffffffffffffffffffffffffffffffffffff168160030160009054906101000a900473ffffffffffffffffffffffffffffffffffffffff1673ffffffffffffffffffffffffffffffffffffffff1614611809576040517f08c379a000000000000000000000000000000000000000000000000000000000815260040161180090612c84565b60405180910390fd5b6000620151808260030160149054906101000a900461ffff1661ffff166118309190612e64565b62ffffff1682600501600101546118479190612ddd565b90508042101561188c576040517f08c379a000000000000000000000000000000000000000000000000000000000815260040161188390612be4565b60405180910390fd5b600061189783611f9c565b90506118a284611e5c565b60003373ffffffffffffffffffffffffffffffffffffffff16826040516118c890612adf565b60006040518083038185875af1925050503d8060008114611905576040519150601f19603f3d011682016040523d82523d6000602084013e61190a565b606091505b505090508061194e576040517f08c379a000000000000000000000000000000000000000000000000000000000815260040161194590612ce4565b60405180910390fd5b7ff4b6d8e6d67e89eda2471635f9ba22585be1274f88e88143a6f0454aff128c158560405161197d9190612d44565b60405180910390a15050505050565b6000816020015114156119d4576040517f08c379a00000000000000000000000000000000000000000000000000000000081526004016119cb90612bc4565b60405180910390fd5b600073ffffffffffffffffffffffffffffffffffffffff16816040015173ffffffffffffffffffffffffffffffffffffffff161415611a48576040517f08c379a0000000000000000000000000000000000000000000000000000000008152600401611a3f90612c44565b60405180910390fd5b6000816080015161ffff1611611a93576040517f08c379a0000000000000000000000000000000000000000000000000000000008152600401611a8a90612ba4565b60405180910390fd5b60008160a0015161ffff1611611ade576040517f08c379a0000000000000000000000000000000000000000000000000000000008152600401611ad590612cc4565b60405180910390fd5b60008160c0015111611b25576040517f08c379a0000000000000000000000000000000000000000000000000000000008152600401611b1c90612b84565b60405180910390fd5b50565b6000806000815480929190611b3c90612fd0565b91905055826000018181525050816001600084600001518152602001908152602001600020600082015181600001556020820151816001015560408201518160020160006101000a81548173ffffffffffffffffffffffffffffffffffffffff021916908373ffffffffffffffffffffffffffffffffffffffff16021790555060608201518160030160006101000a81548173ffffffffffffffffffffffffffffffffffffffff021916908373ffffffffffffffffffffffffffffffffffffffff16021790555060808201518160030160146101000a81548161ffff021916908361ffff16021790555060a08201518160030160166101000a81548161ffff021916908361ffff16021790555060c0820151816004015560e08201518160050160008201518160000160006101000a81548173ffffffffffffffffffffffffffffffffffffffff021916908373ffffffffffffffffffffffffffffffffffffffff160217905550602082015181600101555050905050611cca82600001516002611fe790919063ffffffff16565b5081600001519050919050565b60606000611ce56002611f50565b905060008167ffffffffffffffff811115611d29577f4e487b7100000000000000000000000000000000000000000000000000000000600052604160045260246000fd5b604051908082528060200260200182016040528015611d575781602001602082028036833780820191505090505b50905060005b82811015611dd157611d79816002611f6590919063ffffffff16565b828281518110611db2577f4e487b7100000000000000000000000000000000000000000000000000000000600052603260045260246000fd5b6020026020010181815250508080611dc990612fd0565b915050611d5d565b50809250505090565b6000600160008381526020019081526020016000209050919050565b6000611e026002611f50565b905090565b60006064620151808385600401548660030160169054906101000a900461ffff1661ffff16611e369190612ea1565b611e409190612ea1565b611e4a9190612e33565b611e549190612e33565b905092915050565b6001600082815260200190815260200160002060008082016000905560018201600090556002820160006101000a81549073ffffffffffffffffffffffffffffffffffffffff02191690556003820160006101000a81549073ffffffffffffffffffffffffffffffffffffffff02191690556003820160146101000a81549061ffff02191690556003820160166101000a81549061ffff0219169055600482016000905560058201600080820160006101000a81549073ffffffffffffffffffffffffffffffffffffffff0219169055600182016000905550505050611f4c81600261200190919063ffffffff16565b5050565b6000611f5e8260000161201b565b9050919050565b6000611f74836000018361202c565b60001c905092915050565b6000611f9582600261207d90919063ffffffff16565b9050919050565b6000611fd182620151808460030160149054906101000a900461ffff1661ffff16611fc79190612e64565b62ffffff16611e07565b8260040154611fe09190612ddd565b9050919050565b6000611ff9836000018360001b612097565b905092915050565b6000612013836000018360001b612107565b905092915050565b600081600001805490509050919050565b600082600001828154811061206a577f4e487b7100000000000000000000000000000000000000000000000000000000600052603260045260246000fd5b9060005260206000200154905092915050565b600061208f836000018360001b61228d565b905092915050565b60006120a3838361228d565b6120fc578260000182908060018154018082558091505060019003906000526020600020016000909190919091505582600001805490508360010160008481526020019081526020016000208190555060019050612101565b600090505b92915050565b600080836001016000848152602001908152602001600020549050600081146122815760006001826121399190612efb565b90506000600186600001805490506121519190612efb565b905081811461220c576000866000018281548110612198577f4e487b7100000000000000000000000000000000000000000000000000000000600052603260045260246000fd5b90600052602060002001549050808760000184815481106121e2577f4e487b7100000000000000000000000000000000000000000000000000000000600052603260045260246000fd5b90600052602060002001819055508387600101600083815260200190815260200160002081905550505b85600001805480612246577f4e487b7100000000000000000000000000000000000000000000000000000000600052603160045260246000fd5b600190038181906000526020600020016000905590558560010160008681526020019081526020016000206000905560019350505050612287565b60009150505b92915050565b600080836001016000848152602001908152602001600020541415905092915050565b6040518061010001604052806000815260200160008152602001600073ffffffffffffffffffffffffffffffffffffffff168152602001600073ffffffffffffffffffffffffffffffffffffffff168152602001600061ffff168152602001600061ffff1681526020016000815260200161232961232f565b81525090565b6040518060400160405280600073ffffffffffffffffffffffffffffffffffffffff168152602001600081525090565b60008135905061236e81613077565b92915050565b6000813590506123838161308e565b92915050565b600081359050612398816130a5565b92915050565b6000602082840312156123b057600080fd5b60006123be84828501612389565b91505092915050565b600080600080600060a086880312156123df57600080fd5b60006123ed88828901612389565b95505060206123fe8882890161235f565b945050604061240f88828901612374565b935050606061242088828901612374565b925050608061243188828901612389565b9150509295509295909350565b600061244a83836129e1565b6101208301905092915050565b61246081612f9a565b82525050565b61246f81612f41565b82525050565b61247e81612f2f565b82525050565b61248d81612f2f565b82525050565b600061249e82612d98565b6124a88185612db0565b93506124b383612d88565b8060005b838110156124e45781516124cb888261243e565b97506124d683612da3565b9250506001810190506124b7565b5085935050505092915050565b60006124fe602e83612dcc565b91507f76616c69646174654c697374696e674e46543a3a20436f6c6c61746572616c2060008301527f63616e6e6f74206265207a65726f0000000000000000000000000000000000006020830152604082019050919050565b6000612564602c83612dcc565b91507f76616c69646174654c697374696e674e46543a3a204475726174696f6e20636160008301527f6e6e6f74206265207a65726f00000000000000000000000000000000000000006020830152604082019050919050565b60006125ca602c83612dcc565b91507f76616c69646174654c697374696e674e46543a3a20546f6b656e49642063616e60008301527f6e6f7420626520656d70747900000000000000000000000000000000000000006020830152604082019050919050565b6000612630602b83612dcc565b91507f63616e6e6f74207465726d696e6174652072656e74616c20746861742069732060008301527f6e6f7420796574206475650000000000000000000000000000000000000000006020830152604082019050919050565b6000612696601a83612dcc565b91507f63616e6e6f742072656e7420796f7572206f776e20746f6b656e0000000000006000830152602082019050919050565b60006126d6601683612dcc565b91507f6c697374696e6720646f6573206e6f74206578697374000000000000000000006000830152602082019050919050565b6000612716603183612dcc565b91507f76616c69646174654c697374696e674e46543a3a20546f6b656e41646472657360008301527f732063616e6e6f7420626520656d7074790000000000000000000000000000006020830152604082019050919050565b600061277c601183612dcc565b91507f496e76616c6964206c697374696e6749640000000000000000000000000000006000830152602082019050919050565b60006127bc602883612dcc565b91507f6f6e6c7920746865206c656e6465722063616e207465726d696e61746520746860008301527f652072656e74616c0000000000000000000000000000000000000000000000006020830152604082019050919050565b6000612822601883612dcc565b91507f6e6f7420616e20617661696c61626c65206c697374696e6700000000000000006000830152602082019050919050565b6000612862603783612dcc565b91507f76616c69646174654c697374696e674e46543a3a204461696c7920696e74657260008301527f65737420726174652063616e6e6f74206265207a65726f0000000000000000006020830152604082019050919050565b60006128c8602883612dcc565b91507f6661696c656420746f2073656e6420636f6c6c61746572616c206261636b207460008301527f6f206c656e6465720000000000000000000000000000000000000000000000006020830152604082019050919050565b600061292e600083612dc1565b9150600082019050919050565b6000612948602a83612dcc565b91507f6661696c656420746f2073656e6420636f6c6c61746572616c206261636b207460008301527f6f20626f72726f776572000000000000000000000000000000000000000000006020830152604082019050919050565b60006129ae601b83612dcc565b91507f6d7573742073656e6420746865206578616374207061796d656e7400000000006000830152602082019050919050565b610120820160008201516129f86000850182612ac1565b506020820151612a0b6020850182612ac1565b506040820151612a1e6040850182612475565b506060820151612a316060850182612466565b506080820151612a446080850182612ab2565b5060a0820151612a5760a0850182612ab2565b5060c0820151612a6a60c0850182612ac1565b5060e0820151612a7d60e0850182612a83565b50505050565b604082016000820151612a996000850182612466565b506020820151612aac6020850182612ac1565b50505050565b612abb81612f53565b82525050565b612aca81612f90565b82525050565b612ad981612f90565b82525050565b6000612aea82612921565b9150819050919050565b6000606082019050612b096000830186612457565b612b166020830185612457565b612b236040830184612ad0565b949350505050565b6000606082019050612b406000830186612457565b612b4d6020830185612484565b612b5a6040830184612ad0565b949350505050565b60006020820190508181036000830152612b7c8184612493565b905092915050565b60006020820190508181036000830152612b9d816124f1565b9050919050565b60006020820190508181036000830152612bbd81612557565b9050919050565b60006020820190508181036000830152612bdd816125bd565b9050919050565b60006020820190508181036000830152612bfd81612623565b9050919050565b60006020820190508181036000830152612c1d81612689565b9050919050565b60006020820190508181036000830152612c3d816126c9565b9050919050565b60006020820190508181036000830152612c5d81612709565b9050919050565b60006020820190508181036000830152612c7d8161276f565b9050919050565b60006020820190508181036000830152612c9d816127af565b9050919050565b60006020820190508181036000830152612cbd81612815565b9050919050565b60006020820190508181036000830152612cdd81612855565b9050919050565b60006020820190508181036000830152612cfd816128bb565b9050919050565b60006020820190508181036000830152612d1d8161293b565b9050919050565b60006020820190508181036000830152612d3d816129a1565b9050919050565b6000602082019050612d596000830184612ad0565b92915050565b6000604082019050612d746000830185612ad0565b612d816020830184612ad0565b9392505050565b6000819050602082019050919050565b600081519050919050565b6000602082019050919050565b600082825260208201905092915050565b600081905092915050565b600082825260208201905092915050565b6000612de882612f90565b9150612df383612f90565b9250827fffffffffffffffffffffffffffffffffffffffffffffffffffffffffffffffff03821115612e2857612e27613019565b5b828201905092915050565b6000612e3e82612f90565b9150612e4983612f90565b925082612e5957612e58613048565b5b828204905092915050565b6000612e6f82612f81565b9150612e7a83612f81565b92508162ffffff0483118215151615612e9657612e95613019565b5b828202905092915050565b6000612eac82612f90565b9150612eb783612f90565b9250817fffffffffffffffffffffffffffffffffffffffffffffffffffffffffffffffff0483118215151615612ef057612eef613019565b5b828202905092915050565b6000612f0682612f90565b9150612f1183612f90565b925082821015612f2457612f23613019565b5b828203905092915050565b6000612f3a82612f61565b9050919050565b6000612f4c82612f61565b9050919050565b600061ffff82169050919050565b600073ffffffffffffffffffffffffffffffffffffffff82169050919050565b600062ffffff82169050919050565b6000819050919050565b6000612fa582612fac565b9050919050565b6000612fb782612fbe565b9050919050565b6000612fc982612f61565b9050919050565b6000612fdb82612f90565b91507fffffffffffffffffffffffffffffffffffffffffffffffffffffffffffffffff82141561300e5761300d613019565b5b600182019050919050565b7f4e487b7100000000000000000000000000000000000000000000000000000000600052601160045260246000fd5b7f4e487b7100000000000000000000000000000000000000000000000000000000600052601260045260246000fd5b61308081612f2f565b811461308b57600080fd5b50565b61309781612f53565b81146130a257600080fd5b50565b6130ae81612f90565b81146130b957600080fd5b5056fea26469706673582212207cfa40a55c16de8bfe3f2f656021b8a31ba9fef2e001b4e4d7a991f595b711fb64736f6c63430008000033",
  "linkReferences": {},
  "deployedLinkReferences": {}
}