{
  "_format": "hh-sol-artifact-1",
  "contractName": "Kasu",
  "sourceName": "contracts/Kasu.sol",
  "abi": [
    {
      "anonymous": false,
      "inputs": [
        {
          "indexed": false,
          "internalType": "uint256",
          "name": "listingId",
          "type": "uint256"
        }
      ],
      "name": "ListNFT",
      "type": "event"
    },
    {
      "anonymous": false,
      "inputs": [
        {
          "indexed": false,
          "internalType": "uint256",
          "name": "listingId",
          "type": "uint256"
        }
      ],
      "name": "TerminateRental",
      "type": "event"
    },
    {
      "inputs": [
        {
          "internalType": "uint256",
          "name": "listingId",
          "type": "uint256"
        }
      ],
      "name": "borrow",
      "outputs": [],
      "stateMutability": "payable",
      "type": "function"
    },
    {
      "inputs": [],
      "name": "getListingCount",
      "outputs": [
        {
          "internalType": "uint256",
          "name": "",
          "type": "uint256"
        }
      ],
      "stateMutability": "view",
      "type": "function"
    },
    {
      "inputs": [
        {
          "internalType": "uint256",
          "name": "tokenId",
          "type": "uint256"
        },
        {
          "internalType": "address",
          "name": "tokenAddress",
          "type": "address"
        },
        {
          "internalType": "uint16",
          "name": "duration",
          "type": "uint16"
        },
        {
          "internalType": "uint16",
          "name": "dailyInterestRate",
          "type": "uint16"
        },
        {
          "internalType": "uint256",
          "name": "collateralRequired",
          "type": "uint256"
        }
      ],
      "name": "listNFT",
      "outputs": [],
      "stateMutability": "nonpayable",
      "type": "function"
    },
    {
      "inputs": [
        {
          "internalType": "uint256",
          "name": "listingId",
          "type": "uint256"
        }
      ],
      "name": "returnNFT",
      "outputs": [],
      "stateMutability": "nonpayable",
      "type": "function"
    },
    {
      "inputs": [
        {
          "internalType": "uint256",
          "name": "listingId",
          "type": "uint256"
        }
      ],
      "name": "terminateRental",
      "outputs": [],
      "stateMutability": "nonpayable",
      "type": "function"
    },
    {
      "inputs": [
        {
          "internalType": "uint256",
          "name": "listingId",
          "type": "uint256"
        }
      ],
      "name": "unListNFT",
      "outputs": [],
      "stateMutability": "nonpayable",
      "type": "function"
    },
    {
      "inputs": [],
      "name": "viewAllListings",
      "outputs": [
        {
          "components": [
            {
              "internalType": "uint256",
              "name": "id",
              "type": "uint256"
            },
            {
              "internalType": "uint256",
              "name": "tokenId",
              "type": "uint256"
            },
            {
              "internalType": "address",
              "name": "tokenAddress",
              "type": "address"
            },
            {
              "internalType": "address payable",
              "name": "lenderAddress",
              "type": "address"
            },
            {
              "internalType": "uint16",
              "name": "duration",
              "type": "uint16"
            },
            {
              "internalType": "uint16",
              "name": "dailyInterestRate",
              "type": "uint16"
            },
            {
              "internalType": "uint256",
              "name": "collateralRequired",
              "type": "uint256"
            },
            {
              "components": [
                {
                  "internalType": "address payable",
                  "name": "borrowerAddress",
                  "type": "address"
                },
                {
                  "internalType": "uint256",
                  "name": "rentedAt",
                  "type": "uint256"
                }
              ],
              "internalType": "struct KasuStorage.Rental",
              "name": "rental",
              "type": "tuple"
            }
          ],
          "internalType": "struct KasuStorage.Listing[]",
          "name": "",
          "type": "tuple[]"
        }
      ],
      "stateMutability": "view",
      "type": "function"
    },
    {
      "inputs": [],
      "name": "viewOwnedOngoingListingsAndRentals",
      "outputs": [
        {
          "components": [
            {
              "internalType": "uint256",
              "name": "id",
              "type": "uint256"
            },
            {
              "internalType": "uint256",
              "name": "tokenId",
              "type": "uint256"
            },
            {
              "internalType": "address",
              "name": "tokenAddress",
              "type": "address"
            },
            {
              "internalType": "address payable",
              "name": "lenderAddress",
              "type": "address"
            },
            {
              "internalType": "uint16",
              "name": "duration",
              "type": "uint16"
            },
            {
              "internalType": "uint16",
              "name": "dailyInterestRate",
              "type": "uint16"
            },
            {
              "internalType": "uint256",
              "name": "collateralRequired",
              "type": "uint256"
            },
            {
              "components": [
                {
                  "internalType": "address payable",
                  "name": "borrowerAddress",
                  "type": "address"
                },
                {
                  "internalType": "uint256",
                  "name": "rentedAt",
                  "type": "uint256"
                }
              ],
              "internalType": "struct KasuStorage.Rental",
              "name": "rental",
              "type": "tuple"
            }
          ],
          "internalType": "struct KasuStorage.Listing[]",
          "name": "",
          "type": "tuple[]"
        }
      ],
      "stateMutability": "view",
      "type": "function"
    },
    {
      "inputs": [
        {
          "internalType": "address",
          "name": "borrowerAddress",
          "type": "address"
        }
      ],
      "name": "viewRentedListings",
      "outputs": [
        {
          "components": [
            {
              "internalType": "uint256",
              "name": "id",
              "type": "uint256"
            },
            {
              "internalType": "uint256",
              "name": "tokenId",
              "type": "uint256"
            },
            {
              "internalType": "address",
              "name": "tokenAddress",
              "type": "address"
            },
            {
              "internalType": "address payable",
              "name": "lenderAddress",
              "type": "address"
            },
            {
              "internalType": "uint16",
              "name": "duration",
              "type": "uint16"
            },
            {
              "internalType": "uint16",
              "name": "dailyInterestRate",
              "type": "uint16"
            },
            {
              "internalType": "uint256",
              "name": "collateralRequired",
              "type": "uint256"
            },
            {
              "components": [
                {
                  "internalType": "address payable",
                  "name": "borrowerAddress",
                  "type": "address"
                },
                {
                  "internalType": "uint256",
                  "name": "rentedAt",
                  "type": "uint256"
                }
              ],
              "internalType": "struct KasuStorage.Rental",
              "name": "rental",
              "type": "tuple"
            }
          ],
          "internalType": "struct KasuStorage.Listing[]",
          "name": "",
          "type": "tuple[]"
        }
      ],
      "stateMutability": "view",
      "type": "function"
    }
  ],
  "bytecode": "0x6080604052600160005534801561001557600080fd5b50612f03806100256000396000f3fe6080604052600436106100865760003560e01c806387ed92d71161005957806387ed92d714610145578063b0cd2aa014610170578063c5ebeaec14610199578063e522a8a1146101b5578063f9217419146101e057610086565b80630262259e1461008b5780630ca2f168146100c85780637ac0da04146100f157806381fab0251461011a575b600080fd5b34801561009757600080fd5b506100b260048036038101906100ad91906121af565b610209565b6040516100bf919061299c565b60405180910390f35b3480156100d457600080fd5b506100ef60048036038101906100ea91906121d8565b61051a565b005b3480156100fd57600080fd5b5061011860048036038101906101139190612201565b61051d565b005b34801561012657600080fd5b5061012f610612565b60405161013c919061299c565b60405180910390f35b34801561015157600080fd5b5061015a6108de565b6040516101679190612b7e565b60405180910390f35b34801561017c57600080fd5b50610197600480360381019061019291906121d8565b6108ed565b005b6101b360048036038101906101ae91906121d8565b610c4b565b005b3480156101c157600080fd5b506101ca610ee4565b6040516101d7919061299c565b60405180910390f35b3480156101ec57600080fd5b50610207600480360381019061020291906121d8565b6113e8565b005b6060600061021561179d565b90506000815167ffffffffffffffff81111561025a577f4e487b7100000000000000000000000000000000000000000000000000000000600052604160045260246000fd5b60405190808252806020026020018201604052801561029357816020015b6102806120c1565b8152602001906001900390816102785790505b50905060005b825181101561050f5760006102ed8483815181106102e0577f4e487b7100000000000000000000000000000000000000000000000000000000600052603260045260246000fd5b60200260200101516118a0565b6040518061010001604052908160008201548152602001600182015481526020016002820160009054906101000a900473ffffffffffffffffffffffffffffffffffffffff1673ffffffffffffffffffffffffffffffffffffffff1673ffffffffffffffffffffffffffffffffffffffff1681526020016003820160009054906101000a900473ffffffffffffffffffffffffffffffffffffffff1673ffffffffffffffffffffffffffffffffffffffff1673ffffffffffffffffffffffffffffffffffffffff1681526020016003820160149054906101000a900461ffff1661ffff1661ffff1681526020016003820160169054906101000a900461ffff1661ffff1661ffff16815260200160048201548152602001600582016040518060400160405290816000820160009054906101000a900473ffffffffffffffffffffffffffffffffffffffff1673ffffffffffffffffffffffffffffffffffffffff1673ffffffffffffffffffffffffffffffffffffffff1681526020016001820154815250508152505090508573ffffffffffffffffffffffffffffffffffffffff168160e001516000015173ffffffffffffffffffffffffffffffffffffffff1614156104fb57808383815181106104ef577f4e487b7100000000000000000000000000000000000000000000000000000000600052603260045260246000fd5b60200260200101819052505b50808061050790612de1565b915050610299565b508092505050919050565b50565b6000604051806101000160405280600081526020018781526020018673ffffffffffffffffffffffffffffffffffffffff1681526020013373ffffffffffffffffffffffffffffffffffffffff1681526020018561ffff1681526020018461ffff1681526020018381526020016040518060400160405280600073ffffffffffffffffffffffffffffffffffffffff168152602001600081525081525090506105c5816118bc565b6105ce81611a58565b507ffb3c9be84e060b16665f2ed71b9e1f625d2104e176926bbe34b79f4382dbb44881600001516040516106029190612b7e565b60405180910390a1505050505050565b6060600061061e61179d565b90506000815167ffffffffffffffff811115610663577f4e487b7100000000000000000000000000000000000000000000000000000000600052604160045260246000fd5b60405190808252806020026020018201604052801561069c57816020015b6106896120c1565b8152602001906001900390816106815790505b50905060005b82518110156108d5576106f48382815181106106e7577f4e487b7100000000000000000000000000000000000000000000000000000000600052603260045260246000fd5b60200260200101516118a0565b6040518061010001604052908160008201548152602001600182015481526020016002820160009054906101000a900473ffffffffffffffffffffffffffffffffffffffff1673ffffffffffffffffffffffffffffffffffffffff1673ffffffffffffffffffffffffffffffffffffffff1681526020016003820160009054906101000a900473ffffffffffffffffffffffffffffffffffffffff1673ffffffffffffffffffffffffffffffffffffffff1673ffffffffffffffffffffffffffffffffffffffff1681526020016003820160149054906101000a900461ffff1661ffff1661ffff1681526020016003820160169054906101000a900461ffff1661ffff1661ffff16815260200160048201548152602001600582016040518060400160405290816000820160009054906101000a900473ffffffffffffffffffffffffffffffffffffffff1673ffffffffffffffffffffffffffffffffffffffff1673ffffffffffffffffffffffffffffffffffffffff168152602001600182015481525050815250508282815181106108b7577f4e487b7100000000000000000000000000000000000000000000000000000000600052603260045260246000fd5b602002602001018190525080806108cd90612de1565b9150506106a2565b50809250505090565b60006108e8611c07565b905090565b60006108f8826118a0565b6040518061010001604052908160008201548152602001600182015481526020016002820160009054906101000a900473ffffffffffffffffffffffffffffffffffffffff1673ffffffffffffffffffffffffffffffffffffffff1673ffffffffffffffffffffffffffffffffffffffff1681526020016003820160009054906101000a900473ffffffffffffffffffffffffffffffffffffffff1673ffffffffffffffffffffffffffffffffffffffff1673ffffffffffffffffffffffffffffffffffffffff1681526020016003820160149054906101000a900461ffff1661ffff1661ffff1681526020016003820160169054906101000a900461ffff1661ffff1661ffff16815260200160048201548152602001600582016040518060400160405290816000820160009054906101000a900473ffffffffffffffffffffffffffffffffffffffff1673ffffffffffffffffffffffffffffffffffffffff1673ffffffffffffffffffffffffffffffffffffffff168152602001600182015481525050815250509050600081600001511415610acc576040517f08c379a0000000000000000000000000000000000000000000000000000000008152600401610ac390612a9e565b60405180910390fd5b806040015173ffffffffffffffffffffffffffffffffffffffff166342842e0e8260e0015160000151836060015184602001516040518463ffffffff1660e01b8152600401610b1d9392919061292e565b600060405180830381600087803b158015610b3757600080fd5b505af1158015610b4b573d6000803e3d6000fd5b5050505060008160e001516000015173ffffffffffffffffffffffffffffffffffffffff168260c00151604051610b8190612919565b60006040518083038185875af1925050503d8060008114610bbe576040519150601f19603f3d011682016040523d82523d6000602084013e610bc3565b606091505b5050905080610c07576040517f08c379a0000000000000000000000000000000000000000000000000000000008152600401610bfe90612b3e565b60405180910390fd5b60008260e001516020015142610c1d9190612d0c565b90506000610c33610c2d866118a0565b83611c18565b9050836060015150610c4485611c6d565b5050505050565b610c5481611d61565b610c93576040517f08c379a0000000000000000000000000000000000000000000000000000000008152600401610c8a90612a5e565b60405180910390fd5b6000610c9e826118a0565b90506000816005016001015414610cea576040517f08c379a0000000000000000000000000000000000000000000000000000000008152600401610ce190612ade565b60405180910390fd5b3373ffffffffffffffffffffffffffffffffffffffff168160030160009054906101000a900473ffffffffffffffffffffffffffffffffffffffff1673ffffffffffffffffffffffffffffffffffffffff161415610d7d576040517f08c379a0000000000000000000000000000000000000000000000000000000008152600401610d7490612a3e565b60405180910390fd5b6000610d8882611d7e565b9050803414610dcc576040517f08c379a0000000000000000000000000000000000000000000000000000000008152600401610dc390612b5e565b60405180910390fd5b338260050160000160006101000a81548173ffffffffffffffffffffffffffffffffffffffff021916908373ffffffffffffffffffffffffffffffffffffffff16021790555042826005016001018190555060008260020160009054906101000a900473ffffffffffffffffffffffffffffffffffffffff1690508073ffffffffffffffffffffffffffffffffffffffff166342842e0e8460030160009054906101000a900473ffffffffffffffffffffffffffffffffffffffff163386600101546040518463ffffffff1660e01b8152600401610eac93929190612965565b600060405180830381600087803b158015610ec657600080fd5b505af1158015610eda573d6000803e3d6000fd5b5050505050505050565b60606000805b610ef46002611dc9565b811015611100576000610f19610f14836002611dde90919063ffffffff16565b6118a0565b6040518061010001604052908160008201548152602001600182015481526020016002820160009054906101000a900473ffffffffffffffffffffffffffffffffffffffff1673ffffffffffffffffffffffffffffffffffffffff1673ffffffffffffffffffffffffffffffffffffffff1681526020016003820160009054906101000a900473ffffffffffffffffffffffffffffffffffffffff1673ffffffffffffffffffffffffffffffffffffffff1673ffffffffffffffffffffffffffffffffffffffff1681526020016003820160149054906101000a900461ffff1661ffff1661ffff1681526020016003820160169054906101000a900461ffff1661ffff1661ffff16815260200160048201548152602001600582016040518060400160405290816000820160009054906101000a900473ffffffffffffffffffffffffffffffffffffffff1673ffffffffffffffffffffffffffffffffffffffff1673ffffffffffffffffffffffffffffffffffffffff1681526020016001820154815250508152505090503373ffffffffffffffffffffffffffffffffffffffff16816060015173ffffffffffffffffffffffffffffffffffffffff1614156110ec5782806110e890612de1565b9350505b5080806110f890612de1565b915050610eea565b5060008167ffffffffffffffff811115611143577f4e487b7100000000000000000000000000000000000000000000000000000000600052604160045260246000fd5b60405190808252806020026020018201604052801561117c57816020015b6111696120c1565b8152602001906001900390816111615790505b5090506000805b61118d6002611dc9565b8110156113de5760006111b26111ad836002611dde90919063ffffffff16565b6118a0565b6040518061010001604052908160008201548152602001600182015481526020016002820160009054906101000a900473ffffffffffffffffffffffffffffffffffffffff1673ffffffffffffffffffffffffffffffffffffffff1673ffffffffffffffffffffffffffffffffffffffff1681526020016003820160009054906101000a900473ffffffffffffffffffffffffffffffffffffffff1673ffffffffffffffffffffffffffffffffffffffff1673ffffffffffffffffffffffffffffffffffffffff1681526020016003820160149054906101000a900461ffff1661ffff1661ffff1681526020016003820160169054906101000a900461ffff1661ffff1661ffff16815260200160048201548152602001600582016040518060400160405290816000820160009054906101000a900473ffffffffffffffffffffffffffffffffffffffff1673ffffffffffffffffffffffffffffffffffffffff1673ffffffffffffffffffffffffffffffffffffffff1681526020016001820154815250508152505090503373ffffffffffffffffffffffffffffffffffffffff16816060015173ffffffffffffffffffffffffffffffffffffffff1614156113ca57808484815181106113b0577f4e487b7100000000000000000000000000000000000000000000000000000000600052603260045260246000fd5b602002602001018190525082806113c690612de1565b9350505b5080806113d690612de1565b915050611183565b5081935050505090565b60006113f3826118a0565b9050611588816040518061010001604052908160008201548152602001600182015481526020016002820160009054906101000a900473ffffffffffffffffffffffffffffffffffffffff1673ffffffffffffffffffffffffffffffffffffffff1673ffffffffffffffffffffffffffffffffffffffff1681526020016003820160009054906101000a900473ffffffffffffffffffffffffffffffffffffffff1673ffffffffffffffffffffffffffffffffffffffff1673ffffffffffffffffffffffffffffffffffffffff1681526020016003820160149054906101000a900461ffff1661ffff1661ffff1681526020016003820160169054906101000a900461ffff1661ffff1661ffff16815260200160048201548152602001600582016040518060400160405290816000820160009054906101000a900473ffffffffffffffffffffffffffffffffffffffff1673ffffffffffffffffffffffffffffffffffffffff1673ffffffffffffffffffffffffffffffffffffffff168152602001600182015481525050815250506118bc565b3373ffffffffffffffffffffffffffffffffffffffff168160030160009054906101000a900473ffffffffffffffffffffffffffffffffffffffff1673ffffffffffffffffffffffffffffffffffffffff161461161a576040517f08c379a000000000000000000000000000000000000000000000000000000000815260040161161190612abe565b60405180910390fd5b6000620151808260030160149054906101000a900461ffff1661ffff166116419190612c75565b62ffffff1682600501600101546116589190612bee565b90508042101561169d576040517f08c379a000000000000000000000000000000000000000000000000000000000815260040161169490612a1e565b60405180910390fd5b60006116a883611d7e565b90506116b384611c6d565b60003373ffffffffffffffffffffffffffffffffffffffff16826040516116d990612919565b60006040518083038185875af1925050503d8060008114611716576040519150601f19603f3d011682016040523d82523d6000602084013e61171b565b606091505b505090508061175f576040517f08c379a000000000000000000000000000000000000000000000000000000000815260040161175690612b1e565b60405180910390fd5b7ff4b6d8e6d67e89eda2471635f9ba22585be1274f88e88143a6f0454aff128c158560405161178e9190612b7e565b60405180910390a15050505050565b606060006117ab6002611dc9565b905060008167ffffffffffffffff8111156117ef577f4e487b7100000000000000000000000000000000000000000000000000000000600052604160045260246000fd5b60405190808252806020026020018201604052801561181d5781602001602082028036833780820191505090505b50905060005b828110156118975761183f816002611dde90919063ffffffff16565b828281518110611878577f4e487b7100000000000000000000000000000000000000000000000000000000600052603260045260246000fd5b602002602001018181525050808061188f90612de1565b915050611823565b50809250505090565b6000600160008381526020019081526020016000209050919050565b600081602001511415611904576040517f08c379a00000000000000000000000000000000000000000000000000000000081526004016118fb906129fe565b60405180910390fd5b600073ffffffffffffffffffffffffffffffffffffffff16816040015173ffffffffffffffffffffffffffffffffffffffff161415611978576040517f08c379a000000000000000000000000000000000000000000000000000000000815260040161196f90612a7e565b60405180910390fd5b6000816080015161ffff16116119c3576040517f08c379a00000000000000000000000000000000000000000000000000000000081526004016119ba906129de565b60405180910390fd5b60008160a0015161ffff1611611a0e576040517f08c379a0000000000000000000000000000000000000000000000000000000008152600401611a0590612afe565b60405180910390fd5b60008160c0015111611a55576040517f08c379a0000000000000000000000000000000000000000000000000000000008152600401611a4c906129be565b60405180910390fd5b50565b6000806000815480929190611a6c90612de1565b91905055826000018181525050816001600084600001518152602001908152602001600020600082015181600001556020820151816001015560408201518160020160006101000a81548173ffffffffffffffffffffffffffffffffffffffff021916908373ffffffffffffffffffffffffffffffffffffffff16021790555060608201518160030160006101000a81548173ffffffffffffffffffffffffffffffffffffffff021916908373ffffffffffffffffffffffffffffffffffffffff16021790555060808201518160030160146101000a81548161ffff021916908361ffff16021790555060a08201518160030160166101000a81548161ffff021916908361ffff16021790555060c0820151816004015560e08201518160050160008201518160000160006101000a81548173ffffffffffffffffffffffffffffffffffffffff021916908373ffffffffffffffffffffffffffffffffffffffff160217905550602082015181600101555050905050611bfa82600001516002611df890919063ffffffff16565b5081600001519050919050565b6000611c136002611dc9565b905090565b60006064620151808385600401548660030160169054906101000a900461ffff1661ffff16611c479190612cb2565b611c519190612cb2565b611c5b9190612c44565b611c659190612c44565b905092915050565b6001600082815260200190815260200160002060008082016000905560018201600090556002820160006101000a81549073ffffffffffffffffffffffffffffffffffffffff02191690556003820160006101000a81549073ffffffffffffffffffffffffffffffffffffffff02191690556003820160146101000a81549061ffff02191690556003820160166101000a81549061ffff0219169055600482016000905560058201600080820160006101000a81549073ffffffffffffffffffffffffffffffffffffffff0219169055600182016000905550505050611d5d816002611e1290919063ffffffff16565b5050565b6000611d77826002611e2c90919063ffffffff16565b9050919050565b6000611db382620151808460030160149054906101000a900461ffff1661ffff16611da99190612c75565b62ffffff16611c18565b8260040154611dc29190612bee565b9050919050565b6000611dd782600001611e46565b9050919050565b6000611ded8360000183611e57565b60001c905092915050565b6000611e0a836000018360001b611ea8565b905092915050565b6000611e24836000018360001b611f18565b905092915050565b6000611e3e836000018360001b61209e565b905092915050565b600081600001805490509050919050565b6000826000018281548110611e95577f4e487b7100000000000000000000000000000000000000000000000000000000600052603260045260246000fd5b9060005260206000200154905092915050565b6000611eb4838361209e565b611f0d578260000182908060018154018082558091505060019003906000526020600020016000909190919091505582600001805490508360010160008481526020019081526020016000208190555060019050611f12565b600090505b92915050565b60008083600101600084815260200190815260200160002054905060008114612092576000600182611f4a9190612d0c565b9050600060018660000180549050611f629190612d0c565b905081811461201d576000866000018281548110611fa9577f4e487b7100000000000000000000000000000000000000000000000000000000600052603260045260246000fd5b9060005260206000200154905080876000018481548110611ff3577f4e487b7100000000000000000000000000000000000000000000000000000000600052603260045260246000fd5b90600052602060002001819055508387600101600083815260200190815260200160002081905550505b85600001805480612057577f4e487b7100000000000000000000000000000000000000000000000000000000600052603160045260246000fd5b600190038181906000526020600020016000905590558560010160008681526020019081526020016000206000905560019350505050612098565b60009150505b92915050565b600080836001016000848152602001908152602001600020541415905092915050565b6040518061010001604052806000815260200160008152602001600073ffffffffffffffffffffffffffffffffffffffff168152602001600073ffffffffffffffffffffffffffffffffffffffff168152602001600061ffff168152602001600061ffff1681526020016000815260200161213a612140565b81525090565b6040518060400160405280600073ffffffffffffffffffffffffffffffffffffffff168152602001600081525090565b60008135905061217f81612e88565b92915050565b60008135905061219481612e9f565b92915050565b6000813590506121a981612eb6565b92915050565b6000602082840312156121c157600080fd5b60006121cf84828501612170565b91505092915050565b6000602082840312156121ea57600080fd5b60006121f88482850161219a565b91505092915050565b600080600080600060a0868803121561221957600080fd5b60006122278882890161219a565b955050602061223888828901612170565b945050604061224988828901612185565b935050606061225a88828901612185565b925050608061226b8882890161219a565b9150509295509295909350565b6000612284838361281b565b6101208301905092915050565b61229a81612dab565b82525050565b6122a981612d52565b82525050565b6122b881612d40565b82525050565b6122c781612d40565b82525050565b60006122d882612ba9565b6122e28185612bc1565b93506122ed83612b99565b8060005b8381101561231e5781516123058882612278565b975061231083612bb4565b9250506001810190506122f1565b5085935050505092915050565b6000612338602e83612bdd565b91507f76616c69646174654c697374696e674e46543a3a20436f6c6c61746572616c2060008301527f63616e6e6f74206265207a65726f0000000000000000000000000000000000006020830152604082019050919050565b600061239e602c83612bdd565b91507f76616c69646174654c697374696e674e46543a3a204475726174696f6e20636160008301527f6e6e6f74206265207a65726f00000000000000000000000000000000000000006020830152604082019050919050565b6000612404602c83612bdd565b91507f76616c69646174654c697374696e674e46543a3a20546f6b656e49642063616e60008301527f6e6f7420626520656d70747900000000000000000000000000000000000000006020830152604082019050919050565b600061246a602b83612bdd565b91507f63616e6e6f74207465726d696e6174652072656e74616c20746861742069732060008301527f6e6f7420796574206475650000000000000000000000000000000000000000006020830152604082019050919050565b60006124d0601a83612bdd565b91507f63616e6e6f742072656e7420796f7572206f776e20746f6b656e0000000000006000830152602082019050919050565b6000612510601683612bdd565b91507f6c697374696e6720646f6573206e6f74206578697374000000000000000000006000830152602082019050919050565b6000612550603183612bdd565b91507f76616c69646174654c697374696e674e46543a3a20546f6b656e41646472657360008301527f732063616e6e6f7420626520656d7074790000000000000000000000000000006020830152604082019050919050565b60006125b6601183612bdd565b91507f496e76616c6964206c697374696e6749640000000000000000000000000000006000830152602082019050919050565b60006125f6602883612bdd565b91507f6f6e6c7920746865206c656e6465722063616e207465726d696e61746520746860008301527f652072656e74616c0000000000000000000000000000000000000000000000006020830152604082019050919050565b600061265c601883612bdd565b91507f6e6f7420616e20617661696c61626c65206c697374696e6700000000000000006000830152602082019050919050565b600061269c603783612bdd565b91507f76616c69646174654c697374696e674e46543a3a204461696c7920696e74657260008301527f65737420726174652063616e6e6f74206265207a65726f0000000000000000006020830152604082019050919050565b6000612702602883612bdd565b91507f6661696c656420746f2073656e6420636f6c6c61746572616c206261636b207460008301527f6f206c656e6465720000000000000000000000000000000000000000000000006020830152604082019050919050565b6000612768600083612bd2565b9150600082019050919050565b6000612782602a83612bdd565b91507f6661696c656420746f2073656e6420636f6c6c61746572616c206261636b207460008301527f6f20626f72726f776572000000000000000000000000000000000000000000006020830152604082019050919050565b60006127e8601b83612bdd565b91507f6d7573742073656e6420746865206578616374207061796d656e7400000000006000830152602082019050919050565b6101208201600082015161283260008501826128fb565b50602082015161284560208501826128fb565b50604082015161285860408501826122af565b50606082015161286b60608501826122a0565b50608082015161287e60808501826128ec565b5060a082015161289160a08501826128ec565b5060c08201516128a460c08501826128fb565b5060e08201516128b760e08501826128bd565b50505050565b6040820160008201516128d360008501826122a0565b5060208201516128e660208501826128fb565b50505050565b6128f581612d64565b82525050565b61290481612da1565b82525050565b61291381612da1565b82525050565b60006129248261275b565b9150819050919050565b60006060820190506129436000830186612291565b6129506020830185612291565b61295d604083018461290a565b949350505050565b600060608201905061297a6000830186612291565b61298760208301856122be565b612994604083018461290a565b949350505050565b600060208201905081810360008301526129b681846122cd565b905092915050565b600060208201905081810360008301526129d78161232b565b9050919050565b600060208201905081810360008301526129f781612391565b9050919050565b60006020820190508181036000830152612a17816123f7565b9050919050565b60006020820190508181036000830152612a378161245d565b9050919050565b60006020820190508181036000830152612a57816124c3565b9050919050565b60006020820190508181036000830152612a7781612503565b9050919050565b60006020820190508181036000830152612a9781612543565b9050919050565b60006020820190508181036000830152612ab7816125a9565b9050919050565b60006020820190508181036000830152612ad7816125e9565b9050919050565b60006020820190508181036000830152612af78161264f565b9050919050565b60006020820190508181036000830152612b178161268f565b9050919050565b60006020820190508181036000830152612b37816126f5565b9050919050565b60006020820190508181036000830152612b5781612775565b9050919050565b60006020820190508181036000830152612b77816127db565b9050919050565b6000602082019050612b93600083018461290a565b92915050565b6000819050602082019050919050565b600081519050919050565b6000602082019050919050565b600082825260208201905092915050565b600081905092915050565b600082825260208201905092915050565b6000612bf982612da1565b9150612c0483612da1565b9250827fffffffffffffffffffffffffffffffffffffffffffffffffffffffffffffffff03821115612c3957612c38612e2a565b5b828201905092915050565b6000612c4f82612da1565b9150612c5a83612da1565b925082612c6a57612c69612e59565b5b828204905092915050565b6000612c8082612d92565b9150612c8b83612d92565b92508162ffffff0483118215151615612ca757612ca6612e2a565b5b828202905092915050565b6000612cbd82612da1565b9150612cc883612da1565b9250817fffffffffffffffffffffffffffffffffffffffffffffffffffffffffffffffff0483118215151615612d0157612d00612e2a565b5b828202905092915050565b6000612d1782612da1565b9150612d2283612da1565b925082821015612d3557612d34612e2a565b5b828203905092915050565b6000612d4b82612d72565b9050919050565b6000612d5d82612d72565b9050919050565b600061ffff82169050919050565b600073ffffffffffffffffffffffffffffffffffffffff82169050919050565b600062ffffff82169050919050565b6000819050919050565b6000612db682612dbd565b9050919050565b6000612dc882612dcf565b9050919050565b6000612dda82612d72565b9050919050565b6000612dec82612da1565b91507fffffffffffffffffffffffffffffffffffffffffffffffffffffffffffffffff821415612e1f57612e1e612e2a565b5b600182019050919050565b7f4e487b7100000000000000000000000000000000000000000000000000000000600052601160045260246000fd5b7f4e487b7100000000000000000000000000000000000000000000000000000000600052601260045260246000fd5b612e9181612d40565b8114612e9c57600080fd5b50565b612ea881612d64565b8114612eb357600080fd5b50565b612ebf81612da1565b8114612eca57600080fd5b5056fea26469706673582212203e66475b53f7fc92a75ac013c3dd8e7b20428fc0b76832420f1baba343eeb3be64736f6c63430008000033",
  "linkReferences": {},
  "deployedLinkReferences": {}
}