{
  "_format": "hh-sol-artifact-1",
  "contractName": "Kasu",
  "sourceName": "contracts/Kasu.sol",
  "abi": [
    {
      "anonymous": false,
      "inputs": [
        {
          "indexed": false,
          "internalType": "uint256",
          "name": "tokenId",
          "type": "uint256"
        }
      ],
      "name": "ListNFT",
      "type": "event"
    },
    {
      "anonymous": false,
      "inputs": [
        {
          "indexed": false,
          "internalType": "uint256",
          "name": "listingId",
          "type": "uint256"
        }
      ],
      "name": "Returned",
      "type": "event"
    },
    {
      "anonymous": false,
      "inputs": [
        {
          "indexed": false,
          "internalType": "uint256",
          "name": "listingId",
          "type": "uint256"
        }
      ],
      "name": "TerminateRental",
      "type": "event"
    },
    {
      "anonymous": false,
      "inputs": [
        {
          "indexed": false,
          "internalType": "uint256",
          "name": "listingId",
          "type": "uint256"
        }
      ],
      "name": "UnlistNFT",
      "type": "event"
    },
    {
      "inputs": [
        {
          "internalType": "uint256",
          "name": "listingId",
          "type": "uint256"
        }
      ],
      "name": "borrow",
      "outputs": [],
      "stateMutability": "payable",
      "type": "function"
    },
    {
      "inputs": [],
      "name": "getListingCount",
      "outputs": [
        {
          "internalType": "uint256",
          "name": "",
          "type": "uint256"
        }
      ],
      "stateMutability": "view",
      "type": "function"
    },
    {
      "inputs": [
        {
          "internalType": "uint256",
          "name": "tokenId",
          "type": "uint256"
        },
        {
          "internalType": "address",
          "name": "tokenAddress",
          "type": "address"
        },
        {
          "internalType": "uint16",
          "name": "duration",
          "type": "uint16"
        },
        {
          "internalType": "uint16",
          "name": "dailyInterestRate",
          "type": "uint16"
        },
        {
          "internalType": "uint256",
          "name": "collateralRequired",
          "type": "uint256"
        }
      ],
      "name": "listNFT",
      "outputs": [],
      "stateMutability": "nonpayable",
      "type": "function"
    },
    {
      "inputs": [
        {
          "internalType": "uint256",
          "name": "listingId",
          "type": "uint256"
        }
      ],
      "name": "returnNFT",
      "outputs": [],
      "stateMutability": "nonpayable",
      "type": "function"
    },
    {
      "inputs": [
        {
          "internalType": "uint256",
          "name": "listingId",
          "type": "uint256"
        }
      ],
      "name": "terminateRental",
      "outputs": [],
      "stateMutability": "nonpayable",
      "type": "function"
    },
    {
      "inputs": [
        {
          "internalType": "uint256",
          "name": "listingId",
          "type": "uint256"
        }
      ],
      "name": "unlistNFT",
      "outputs": [],
      "stateMutability": "nonpayable",
      "type": "function"
    },
    {
      "inputs": [],
      "name": "viewAllListings",
      "outputs": [
        {
          "components": [
            {
              "internalType": "uint256",
              "name": "id",
              "type": "uint256"
            },
            {
              "internalType": "uint256",
              "name": "tokenId",
              "type": "uint256"
            },
            {
              "internalType": "address",
              "name": "tokenAddress",
              "type": "address"
            },
            {
              "internalType": "address payable",
              "name": "lenderAddress",
              "type": "address"
            },
            {
              "internalType": "uint16",
              "name": "duration",
              "type": "uint16"
            },
            {
              "internalType": "uint16",
              "name": "dailyInterestRate",
              "type": "uint16"
            },
            {
              "internalType": "uint256",
              "name": "collateralRequired",
              "type": "uint256"
            },
            {
              "components": [
                {
                  "internalType": "address payable",
                  "name": "borrowerAddress",
                  "type": "address"
                },
                {
                  "internalType": "uint256",
                  "name": "rentedAt",
                  "type": "uint256"
                }
              ],
              "internalType": "struct KasuStorage.Rental",
              "name": "rental",
              "type": "tuple"
            }
          ],
          "internalType": "struct KasuStorage.Listing[]",
          "name": "",
          "type": "tuple[]"
        }
      ],
      "stateMutability": "view",
      "type": "function"
    },
    {
      "inputs": [],
      "name": "viewOwnedOngoingListingsAndRentals",
      "outputs": [
        {
          "components": [
            {
              "internalType": "uint256",
              "name": "id",
              "type": "uint256"
            },
            {
              "internalType": "uint256",
              "name": "tokenId",
              "type": "uint256"
            },
            {
              "internalType": "address",
              "name": "tokenAddress",
              "type": "address"
            },
            {
              "internalType": "address payable",
              "name": "lenderAddress",
              "type": "address"
            },
            {
              "internalType": "uint16",
              "name": "duration",
              "type": "uint16"
            },
            {
              "internalType": "uint16",
              "name": "dailyInterestRate",
              "type": "uint16"
            },
            {
              "internalType": "uint256",
              "name": "collateralRequired",
              "type": "uint256"
            },
            {
              "components": [
                {
                  "internalType": "address payable",
                  "name": "borrowerAddress",
                  "type": "address"
                },
                {
                  "internalType": "uint256",
                  "name": "rentedAt",
                  "type": "uint256"
                }
              ],
              "internalType": "struct KasuStorage.Rental",
              "name": "rental",
              "type": "tuple"
            }
          ],
          "internalType": "struct KasuStorage.Listing[]",
          "name": "",
          "type": "tuple[]"
        }
      ],
      "stateMutability": "view",
      "type": "function"
    },
    {
      "inputs": [],
      "name": "viewRentedListings",
      "outputs": [
        {
          "components": [
            {
              "internalType": "uint256",
              "name": "id",
              "type": "uint256"
            },
            {
              "internalType": "uint256",
              "name": "tokenId",
              "type": "uint256"
            },
            {
              "internalType": "address",
              "name": "tokenAddress",
              "type": "address"
            },
            {
              "internalType": "address payable",
              "name": "lenderAddress",
              "type": "address"
            },
            {
              "internalType": "uint16",
              "name": "duration",
              "type": "uint16"
            },
            {
              "internalType": "uint16",
              "name": "dailyInterestRate",
              "type": "uint16"
            },
            {
              "internalType": "uint256",
              "name": "collateralRequired",
              "type": "uint256"
            },
            {
              "components": [
                {
                  "internalType": "address payable",
                  "name": "borrowerAddress",
                  "type": "address"
                },
                {
                  "internalType": "uint256",
                  "name": "rentedAt",
                  "type": "uint256"
                }
              ],
              "internalType": "struct KasuStorage.Rental",
              "name": "rental",
              "type": "tuple"
            }
          ],
          "internalType": "struct KasuStorage.Listing[]",
          "name": "",
          "type": "tuple[]"
        }
      ],
      "stateMutability": "view",
      "type": "function"
    }
  ],
  "bytecode": "0x6080604052600160005534801561001557600080fd5b506130b9806100256000396000f3fe6080604052600436106100865760003560e01c8063b0cd2aa011610059578063b0cd2aa014610133578063bf1b2c3a1461015c578063c5ebeaec14610187578063e522a8a1146101a3578063f9217419146101ce57610086565b80637ac0da041461008b57806381fab025146100b457806387ed92d7146100df578063961f09441461010a575b600080fd5b34801561009757600080fd5b506100b260048036038101906100ad91906122f5565b6101f7565b005b3480156100c057600080fd5b506100c96102ec565b6040516100d6919061253f565b60405180910390f35b3480156100eb57600080fd5b506100f4610546565b6040516101019190612570565b60405180910390f35b34801561011657600080fd5b50610131600480360381019061012c919061258b565b610555565b005b34801561013f57600080fd5b5061015a6004803603810190610155919061258b565b6105e0565b005b34801561016857600080fd5b50610171610974565b60405161017e919061253f565b60405180910390f35b6101a1600480360381019061019c919061258b565b610e32565b005b3480156101af57600080fd5b506101b86110ca565b6040516101c5919061253f565b60405180910390f35b3480156101da57600080fd5b506101f560048036038101906101f0919061258b565b611580565b005b6000604051806101000160405280600081526020018781526020018673ffffffffffffffffffffffffffffffffffffffff1681526020013373ffffffffffffffffffffffffffffffffffffffff1681526020018561ffff1681526020018461ffff1681526020018381526020016040518060400160405280600073ffffffffffffffffffffffffffffffffffffffff1681526020016000815250815250905061029f81611935565b6102a881611acf565b507ffb3c9be84e060b16665f2ed71b9e1f625d2104e176926bbe34b79f4382dbb44881602001516040516102dc9190612570565b60405180910390a1505050505050565b606060006102f8611c7e565b90506000815167ffffffffffffffff811115610317576103166125b8565b5b60405190808252806020026020018201604052801561035057816020015b61033d612173565b8152602001906001900390816103355790505b50905060005b825181101561053d57610382838281518110610375576103746125e7565b5b6020026020010151611d35565b6040518061010001604052908160008201548152602001600182015481526020016002820160009054906101000a900473ffffffffffffffffffffffffffffffffffffffff1673ffffffffffffffffffffffffffffffffffffffff1673ffffffffffffffffffffffffffffffffffffffff1681526020016003820160009054906101000a900473ffffffffffffffffffffffffffffffffffffffff1673ffffffffffffffffffffffffffffffffffffffff1673ffffffffffffffffffffffffffffffffffffffff1681526020016003820160149054906101000a900461ffff1661ffff1661ffff1681526020016003820160169054906101000a900461ffff1661ffff1661ffff16815260200160048201548152602001600582016040518060400160405290816000820160009054906101000a900473ffffffffffffffffffffffffffffffffffffffff1673ffffffffffffffffffffffffffffffffffffffff1673ffffffffffffffffffffffffffffffffffffffff1681526020016001820154815250508152505082828151811061051f5761051e6125e7565b5b6020026020010181905250808061053590612645565b915050610356565b50809250505090565b6000610550611d51565b905090565b61055e81611d62565b61059d576040517f08c379a0000000000000000000000000000000000000000000000000000000008152600401610594906126ea565b60405180910390fd5b6105a681611d7f565b7fe659a8b2064151c52cf8c07d982ee6619f342d72fda61f98916c2248f5de904f816040516105d59190612570565b60405180910390a150565b60006105eb82611d35565b6040518061010001604052908160008201548152602001600182015481526020016002820160009054906101000a900473ffffffffffffffffffffffffffffffffffffffff1673ffffffffffffffffffffffffffffffffffffffff1673ffffffffffffffffffffffffffffffffffffffff1681526020016003820160009054906101000a900473ffffffffffffffffffffffffffffffffffffffff1673ffffffffffffffffffffffffffffffffffffffff1673ffffffffffffffffffffffffffffffffffffffff1681526020016003820160149054906101000a900461ffff1661ffff1661ffff1681526020016003820160169054906101000a900461ffff1661ffff1661ffff16815260200160048201548152602001600582016040518060400160405290816000820160009054906101000a900473ffffffffffffffffffffffffffffffffffffffff1673ffffffffffffffffffffffffffffffffffffffff1673ffffffffffffffffffffffffffffffffffffffff16815260200160018201548152505081525050905060008160000151036107be576040517f08c379a00000000000000000000000000000000000000000000000000000000081526004016107b590612756565b60405180910390fd5b806040015173ffffffffffffffffffffffffffffffffffffffff166342842e0e8260e0015160000151836060015184602001516040518463ffffffff1660e01b815260040161080f939291906127d5565b600060405180830381600087803b15801561082957600080fd5b505af115801561083d573d6000803e3d6000fd5b5050505060008160e001516000015173ffffffffffffffffffffffffffffffffffffffff168260c001516040516108739061283d565b60006040518083038185875af1925050503d80600081146108b0576040519150601f19603f3d011682016040523d82523d6000602084013e6108b5565b606091505b50509050806108f9576040517f08c379a00000000000000000000000000000000000000000000000000000000081526004016108f0906128c4565b60405180910390fd5b60008260e00151602001514261090f91906128e4565b9050600061092561091f86611d35565b83611e73565b905083606001515061093685611d7f565b7ff8c86c3655fab14dd6996efe90c18eec2193e12c9e41f83d8a7645284f12e91c856040516109659190612570565b60405180910390a15050505050565b60606000805b6109846002611ec8565b811015610b935760006109a96109a4836002611edd90919063ffffffff16565b611d35565b6040518061010001604052908160008201548152602001600182015481526020016002820160009054906101000a900473ffffffffffffffffffffffffffffffffffffffff1673ffffffffffffffffffffffffffffffffffffffff1673ffffffffffffffffffffffffffffffffffffffff1681526020016003820160009054906101000a900473ffffffffffffffffffffffffffffffffffffffff1673ffffffffffffffffffffffffffffffffffffffff1673ffffffffffffffffffffffffffffffffffffffff1681526020016003820160149054906101000a900461ffff1661ffff1661ffff1681526020016003820160169054906101000a900461ffff1661ffff1661ffff16815260200160048201548152602001600582016040518060400160405290816000820160009054906101000a900473ffffffffffffffffffffffffffffffffffffffff1673ffffffffffffffffffffffffffffffffffffffff1673ffffffffffffffffffffffffffffffffffffffff1681526020016001820154815250508152505090503373ffffffffffffffffffffffffffffffffffffffff168160e001516000015173ffffffffffffffffffffffffffffffffffffffff1603610b7f578280610b7b90612645565b9350505b508080610b8b90612645565b91505061097a565b5060008167ffffffffffffffff811115610bb057610baf6125b8565b5b604051908082528060200260200182016040528015610be957816020015b610bd6612173565b815260200190600190039081610bce5790505b5090506000805b610bfa6002611ec8565b811015610e28576000610c1f610c1a836002611edd90919063ffffffff16565b611d35565b6040518061010001604052908160008201548152602001600182015481526020016002820160009054906101000a900473ffffffffffffffffffffffffffffffffffffffff1673ffffffffffffffffffffffffffffffffffffffff1673ffffffffffffffffffffffffffffffffffffffff1681526020016003820160009054906101000a900473ffffffffffffffffffffffffffffffffffffffff1673ffffffffffffffffffffffffffffffffffffffff1673ffffffffffffffffffffffffffffffffffffffff1681526020016003820160149054906101000a900461ffff1661ffff1661ffff1681526020016003820160169054906101000a900461ffff1661ffff1661ffff16815260200160048201548152602001600582016040518060400160405290816000820160009054906101000a900473ffffffffffffffffffffffffffffffffffffffff1673ffffffffffffffffffffffffffffffffffffffff1673ffffffffffffffffffffffffffffffffffffffff1681526020016001820154815250508152505090503373ffffffffffffffffffffffffffffffffffffffff168160e001516000015173ffffffffffffffffffffffffffffffffffffffff1603610e145780848481518110610dfa57610df96125e7565b5b60200260200101819052508280610e1090612645565b9350505b508080610e2090612645565b915050610bf0565b5081935050505090565b610e3b81611d62565b610e7a576040517f08c379a0000000000000000000000000000000000000000000000000000000008152600401610e71906126ea565b60405180910390fd5b6000610e8582611d35565b90506000816005016001015414610ed1576040517f08c379a0000000000000000000000000000000000000000000000000000000008152600401610ec890612964565b60405180910390fd5b3373ffffffffffffffffffffffffffffffffffffffff168160030160009054906101000a900473ffffffffffffffffffffffffffffffffffffffff1673ffffffffffffffffffffffffffffffffffffffff1603610f63576040517f08c379a0000000000000000000000000000000000000000000000000000000008152600401610f5a906129d0565b60405180910390fd5b6000610f6e82611ef7565b9050803414610fb2576040517f08c379a0000000000000000000000000000000000000000000000000000000008152600401610fa990612a3c565b60405180910390fd5b338260050160000160006101000a81548173ffffffffffffffffffffffffffffffffffffffff021916908373ffffffffffffffffffffffffffffffffffffffff16021790555042826005016001018190555060008260020160009054906101000a900473ffffffffffffffffffffffffffffffffffffffff1690508073ffffffffffffffffffffffffffffffffffffffff166342842e0e8460030160009054906101000a900473ffffffffffffffffffffffffffffffffffffffff163386600101546040518463ffffffff1660e01b815260040161109293929190612a6b565b600060405180830381600087803b1580156110ac57600080fd5b505af11580156110c0573d6000803e3d6000fd5b5050505050505050565b60606000805b6110da6002611ec8565b8110156112e55760006110ff6110fa836002611edd90919063ffffffff16565b611d35565b6040518061010001604052908160008201548152602001600182015481526020016002820160009054906101000a900473ffffffffffffffffffffffffffffffffffffffff1673ffffffffffffffffffffffffffffffffffffffff1673ffffffffffffffffffffffffffffffffffffffff1681526020016003820160009054906101000a900473ffffffffffffffffffffffffffffffffffffffff1673ffffffffffffffffffffffffffffffffffffffff1673ffffffffffffffffffffffffffffffffffffffff1681526020016003820160149054906101000a900461ffff1661ffff1661ffff1681526020016003820160169054906101000a900461ffff1661ffff1661ffff16815260200160048201548152602001600582016040518060400160405290816000820160009054906101000a900473ffffffffffffffffffffffffffffffffffffffff1673ffffffffffffffffffffffffffffffffffffffff1673ffffffffffffffffffffffffffffffffffffffff1681526020016001820154815250508152505090503373ffffffffffffffffffffffffffffffffffffffff16816060015173ffffffffffffffffffffffffffffffffffffffff16036112d15782806112cd90612645565b9350505b5080806112dd90612645565b9150506110d0565b5060008167ffffffffffffffff811115611302576113016125b8565b5b60405190808252806020026020018201604052801561133b57816020015b611328612173565b8152602001906001900390816113205790505b5090506000805b61134c6002611ec8565b81101561157657600061137161136c836002611edd90919063ffffffff16565b611d35565b6040518061010001604052908160008201548152602001600182015481526020016002820160009054906101000a900473ffffffffffffffffffffffffffffffffffffffff1673ffffffffffffffffffffffffffffffffffffffff1673ffffffffffffffffffffffffffffffffffffffff1681526020016003820160009054906101000a900473ffffffffffffffffffffffffffffffffffffffff1673ffffffffffffffffffffffffffffffffffffffff1673ffffffffffffffffffffffffffffffffffffffff1681526020016003820160149054906101000a900461ffff1661ffff1661ffff1681526020016003820160169054906101000a900461ffff1661ffff1661ffff16815260200160048201548152602001600582016040518060400160405290816000820160009054906101000a900473ffffffffffffffffffffffffffffffffffffffff1673ffffffffffffffffffffffffffffffffffffffff1673ffffffffffffffffffffffffffffffffffffffff1681526020016001820154815250508152505090503373ffffffffffffffffffffffffffffffffffffffff16816060015173ffffffffffffffffffffffffffffffffffffffff16036115625780848481518110611548576115476125e7565b5b6020026020010181905250828061155e90612645565b9350505b50808061156e90612645565b915050611342565b5081935050505090565b600061158b82611d35565b9050611720816040518061010001604052908160008201548152602001600182015481526020016002820160009054906101000a900473ffffffffffffffffffffffffffffffffffffffff1673ffffffffffffffffffffffffffffffffffffffff1673ffffffffffffffffffffffffffffffffffffffff1681526020016003820160009054906101000a900473ffffffffffffffffffffffffffffffffffffffff1673ffffffffffffffffffffffffffffffffffffffff1673ffffffffffffffffffffffffffffffffffffffff1681526020016003820160149054906101000a900461ffff1661ffff1661ffff1681526020016003820160169054906101000a900461ffff1661ffff1661ffff16815260200160048201548152602001600582016040518060400160405290816000820160009054906101000a900473ffffffffffffffffffffffffffffffffffffffff1673ffffffffffffffffffffffffffffffffffffffff1673ffffffffffffffffffffffffffffffffffffffff16815260200160018201548152505081525050611935565b3373ffffffffffffffffffffffffffffffffffffffff168160030160009054906101000a900473ffffffffffffffffffffffffffffffffffffffff1673ffffffffffffffffffffffffffffffffffffffff16146117b2576040517f08c379a00000000000000000000000000000000000000000000000000000000081526004016117a990612b14565b60405180910390fd5b6000620151808260030160149054906101000a900461ffff1661ffff166117d99190612b43565b62ffffff1682600501600101546117f09190612b80565b905080421015611835576040517f08c379a000000000000000000000000000000000000000000000000000000000815260040161182c90612c26565b60405180910390fd5b600061184083611ef7565b905061184b84611d7f565b60003373ffffffffffffffffffffffffffffffffffffffff16826040516118719061283d565b60006040518083038185875af1925050503d80600081146118ae576040519150601f19603f3d011682016040523d82523d6000602084013e6118b3565b606091505b50509050806118f7576040517f08c379a00000000000000000000000000000000000000000000000000000000081526004016118ee90612cb8565b60405180910390fd5b7ff4b6d8e6d67e89eda2471635f9ba22585be1274f88e88143a6f0454aff128c15856040516119269190612570565b60405180910390a15050505050565b600081602001510361197c576040517f08c379a000000000000000000000000000000000000000000000000000000000815260040161197390612d4a565b60405180910390fd5b600073ffffffffffffffffffffffffffffffffffffffff16816040015173ffffffffffffffffffffffffffffffffffffffff16036119ef576040517f08c379a00000000000000000000000000000000000000000000000000000000081526004016119e690612ddc565b60405180910390fd5b6000816080015161ffff1611611a3a576040517f08c379a0000000000000000000000000000000000000000000000000000000008152600401611a3190612e6e565b60405180910390fd5b60008160a0015161ffff1611611a85576040517f08c379a0000000000000000000000000000000000000000000000000000000008152600401611a7c90612f00565b60405180910390fd5b60008160c0015111611acc576040517f08c379a0000000000000000000000000000000000000000000000000000000008152600401611ac390612f92565b60405180910390fd5b50565b6000806000815480929190611ae390612645565b91905055826000018181525050816001600084600001518152602001908152602001600020600082015181600001556020820151816001015560408201518160020160006101000a81548173ffffffffffffffffffffffffffffffffffffffff021916908373ffffffffffffffffffffffffffffffffffffffff16021790555060608201518160030160006101000a81548173ffffffffffffffffffffffffffffffffffffffff021916908373ffffffffffffffffffffffffffffffffffffffff16021790555060808201518160030160146101000a81548161ffff021916908361ffff16021790555060a08201518160030160166101000a81548161ffff021916908361ffff16021790555060c0820151816004015560e08201518160050160008201518160000160006101000a81548173ffffffffffffffffffffffffffffffffffffffff021916908373ffffffffffffffffffffffffffffffffffffffff160217905550602082015181600101555050905050611c7182600001516002611f4290919063ffffffff16565b5081600001519050919050565b60606000611c8c6002611ec8565b905060008167ffffffffffffffff811115611caa57611ca96125b8565b5b604051908082528060200260200182016040528015611cd85781602001602082028036833780820191505090505b50905060005b82811015611d2c57611cfa816002611edd90919063ffffffff16565b828281518110611d0d57611d0c6125e7565b5b6020026020010181815250508080611d2490612645565b915050611cde565b50809250505090565b6000600160008381526020019081526020016000209050919050565b6000611d5d6002611ec8565b905090565b6000611d78826002611f5c90919063ffffffff16565b9050919050565b6001600082815260200190815260200160002060008082016000905560018201600090556002820160006101000a81549073ffffffffffffffffffffffffffffffffffffffff02191690556003820160006101000a81549073ffffffffffffffffffffffffffffffffffffffff02191690556003820160146101000a81549061ffff02191690556003820160166101000a81549061ffff0219169055600482016000905560058201600080820160006101000a81549073ffffffffffffffffffffffffffffffffffffffff0219169055600182016000905550505050611e6f816002611f7690919063ffffffff16565b5050565b60006064620151808385600401548660030160169054906101000a900461ffff1661ffff16611ea29190612fb2565b611eac9190612fb2565b611eb69190613023565b611ec09190613023565b905092915050565b6000611ed682600001611f90565b9050919050565b6000611eec8360000183611fa1565b60001c905092915050565b6000611f2c82620151808460030160149054906101000a900461ffff1661ffff16611f229190612b43565b62ffffff16611e73565b8260040154611f3b9190612b80565b9050919050565b6000611f54836000018360001b611fcc565b905092915050565b6000611f6e836000018360001b61203c565b905092915050565b6000611f88836000018360001b61205f565b905092915050565b600081600001805490509050919050565b6000826000018281548110611fb957611fb86125e7565b5b9060005260206000200154905092915050565b6000611fd8838361203c565b612031578260000182908060018154018082558091505060019003906000526020600020016000909190919091505582600001805490508360010160008481526020019081526020016000208190555060019050612036565b600090505b92915050565b600080836001016000848152602001908152602001600020541415905092915050565b6000808360010160008481526020019081526020016000205490506000811461216757600060018261209191906128e4565b90506000600186600001805490506120a991906128e4565b90508181146121185760008660000182815481106120ca576120c96125e7565b5b90600052602060002001549050808760000184815481106120ee576120ed6125e7565b5b90600052602060002001819055508387600101600083815260200190815260200160002081905550505b8560000180548061212c5761212b613054565b5b60019003818190600052602060002001600090559055856001016000868152602001908152602001600020600090556001935050505061216d565b60009150505b92915050565b6040518061010001604052806000815260200160008152602001600073ffffffffffffffffffffffffffffffffffffffff168152602001600073ffffffffffffffffffffffffffffffffffffffff168152602001600061ffff168152602001600061ffff168152602001600081526020016121ec6121f2565b81525090565b6040518060400160405280600073ffffffffffffffffffffffffffffffffffffffff168152602001600081525090565b600080fd5b6000819050919050565b61223a81612227565b811461224557600080fd5b50565b60008135905061225781612231565b92915050565b600073ffffffffffffffffffffffffffffffffffffffff82169050919050565b60006122888261225d565b9050919050565b6122988161227d565b81146122a357600080fd5b50565b6000813590506122b58161228f565b92915050565b600061ffff82169050919050565b6122d2816122bb565b81146122dd57600080fd5b50565b6000813590506122ef816122c9565b92915050565b600080600080600060a0868803121561231157612310612222565b5b600061231f88828901612248565b9550506020612330888289016122a6565b9450506040612341888289016122e0565b9350506060612352888289016122e0565b925050608061236388828901612248565b9150509295509295909350565b600081519050919050565b600082825260208201905092915050565b6000819050602082019050919050565b6123a581612227565b82525050565b6123b48161227d565b82525050565b60006123c58261225d565b9050919050565b6123d5816123ba565b82525050565b6123e4816122bb565b82525050565b60408201600082015161240060008501826123cc565b506020820151612413602085018261239c565b50505050565b61012082016000820151612430600085018261239c565b506020820151612443602085018261239c565b50604082015161245660408501826123ab565b50606082015161246960608501826123cc565b50608082015161247c60808501826123db565b5060a082015161248f60a08501826123db565b5060c08201516124a260c085018261239c565b5060e08201516124b560e08501826123ea565b50505050565b60006124c78383612419565b6101208301905092915050565b6000602082019050919050565b60006124ec82612370565b6124f6818561237b565b93506125018361238c565b8060005b8381101561253257815161251988826124bb565b9750612524836124d4565b925050600181019050612505565b5085935050505092915050565b6000602082019050818103600083015261255981846124e1565b905092915050565b61256a81612227565b82525050565b60006020820190506125856000830184612561565b92915050565b6000602082840312156125a1576125a0612222565b5b60006125af84828501612248565b91505092915050565b7f4e487b7100000000000000000000000000000000000000000000000000000000600052604160045260246000fd5b7f4e487b7100000000000000000000000000000000000000000000000000000000600052603260045260246000fd5b7f4e487b7100000000000000000000000000000000000000000000000000000000600052601160045260246000fd5b600061265082612227565b91507fffffffffffffffffffffffffffffffffffffffffffffffffffffffffffffffff820361268257612681612616565b5b600182019050919050565b600082825260208201905092915050565b7f6c697374696e6720646f6573206e6f7420657869737400000000000000000000600082015250565b60006126d460168361268d565b91506126df8261269e565b602082019050919050565b60006020820190508181036000830152612703816126c7565b9050919050565b7f6c697374696e67494420776173206e6f7420666f756e64000000000000000000600082015250565b600061274060178361268d565b915061274b8261270a565b602082019050919050565b6000602082019050818103600083015261276f81612733565b9050919050565b6000819050919050565b600061279b6127966127918461225d565b612776565b61225d565b9050919050565b60006127ad82612780565b9050919050565b60006127bf826127a2565b9050919050565b6127cf816127b4565b82525050565b60006060820190506127ea60008301866127c6565b6127f760208301856127c6565b6128046040830184612561565b949350505050565b600081905092915050565b50565b600061282760008361280c565b915061283282612817565b600082019050919050565b60006128488261281a565b9150819050919050565b7f6661696c656420746f2073656e6420636f6c6c61746572616c206261636b207460008201527f6f20626f72726f77657200000000000000000000000000000000000000000000602082015250565b60006128ae602a8361268d565b91506128b982612852565b604082019050919050565b600060208201905081810360008301526128dd816128a1565b9050919050565b60006128ef82612227565b91506128fa83612227565b925082820390508181111561291257612911612616565b5b92915050565b7f6e6f7420616e20617661696c61626c65206c697374696e670000000000000000600082015250565b600061294e60188361268d565b915061295982612918565b602082019050919050565b6000602082019050818103600083015261297d81612941565b9050919050565b7f63616e6e6f742072656e7420796f7572206f776e20746f6b656e000000000000600082015250565b60006129ba601a8361268d565b91506129c582612984565b602082019050919050565b600060208201905081810360008301526129e9816129ad565b9050919050565b7f6d7573742073656e6420746865206578616374207061796d656e740000000000600082015250565b6000612a26601b8361268d565b9150612a31826129f0565b602082019050919050565b60006020820190508181036000830152612a5581612a19565b9050919050565b612a658161227d565b82525050565b6000606082019050612a8060008301866127c6565b612a8d6020830185612a5c565b612a9a6040830184612561565b949350505050565b7f6f6e6c7920746865206c656e6465722063616e207465726d696e61746520746860008201527f652072656e74616c000000000000000000000000000000000000000000000000602082015250565b6000612afe60288361268d565b9150612b0982612aa2565b604082019050919050565b60006020820190508181036000830152612b2d81612af1565b9050919050565b600062ffffff82169050919050565b6000612b4e82612b34565b9150612b5983612b34565b9250828202612b6781612b34565b9150808214612b7957612b78612616565b5b5092915050565b6000612b8b82612227565b9150612b9683612227565b9250828201905080821115612bae57612bad612616565b5b92915050565b7f63616e6e6f74207465726d696e6174652072656e74616c20746861742069732060008201527f6e6f742079657420647565000000000000000000000000000000000000000000602082015250565b6000612c10602b8361268d565b9150612c1b82612bb4565b604082019050919050565b60006020820190508181036000830152612c3f81612c03565b9050919050565b7f6661696c656420746f2073656e6420636f6c6c61746572616c206261636b207460008201527f6f206c656e646572000000000000000000000000000000000000000000000000602082015250565b6000612ca260288361268d565b9150612cad82612c46565b604082019050919050565b60006020820190508181036000830152612cd181612c95565b9050919050565b7f76616c69646174654c697374696e674e46543a3a20546f6b656e49642063616e60008201527f6e6f7420626520656d7074790000000000000000000000000000000000000000602082015250565b6000612d34602c8361268d565b9150612d3f82612cd8565b604082019050919050565b60006020820190508181036000830152612d6381612d27565b9050919050565b7f76616c69646174654c697374696e674e46543a3a20546f6b656e41646472657360008201527f732063616e6e6f7420626520656d707479000000000000000000000000000000602082015250565b6000612dc660318361268d565b9150612dd182612d6a565b604082019050919050565b60006020820190508181036000830152612df581612db9565b9050919050565b7f76616c69646174654c697374696e674e46543a3a204475726174696f6e20636160008201527f6e6e6f74206265207a65726f0000000000000000000000000000000000000000602082015250565b6000612e58602c8361268d565b9150612e6382612dfc565b604082019050919050565b60006020820190508181036000830152612e8781612e4b565b9050919050565b7f76616c69646174654c697374696e674e46543a3a204461696c7920696e74657260008201527f65737420726174652063616e6e6f74206265207a65726f000000000000000000602082015250565b6000612eea60378361268d565b9150612ef582612e8e565b604082019050919050565b60006020820190508181036000830152612f1981612edd565b9050919050565b7f76616c69646174654c697374696e674e46543a3a20436f6c6c61746572616c2060008201527f63616e6e6f74206265207a65726f000000000000000000000000000000000000602082015250565b6000612f7c602e8361268d565b9150612f8782612f20565b604082019050919050565b60006020820190508181036000830152612fab81612f6f565b9050919050565b6000612fbd82612227565b9150612fc883612227565b9250828202612fd681612227565b91508282048414831517612fed57612fec612616565b5b5092915050565b7f4e487b7100000000000000000000000000000000000000000000000000000000600052601260045260246000fd5b600061302e82612227565b915061303983612227565b92508261304957613048612ff4565b5b828204905092915050565b7f4e487b7100000000000000000000000000000000000000000000000000000000600052603160045260246000fdfea264697066735822122036a82a1ad3df05e7adf2d1486a1ed8fb599adca5d022bd29e8b74c74a38a56c864736f6c63430008110033",
  "linkReferences": {},
  "deployedLinkReferences": {}
}