{
  "_format": "hh-sol-artifact-1",
  "contractName": "Kasu",
  "sourceName": "contracts/Kasu.sol",
  "abi": [
    {
      "anonymous": false,
      "inputs": [
        {
          "indexed": false,
          "internalType": "uint256",
          "name": "tokenId",
          "type": "uint256"
        }
      ],
      "name": "ListNFT",
      "type": "event"
    },
    {
      "anonymous": false,
      "inputs": [
        {
          "indexed": false,
          "internalType": "uint256",
          "name": "listingId",
          "type": "uint256"
        }
      ],
      "name": "Returned",
      "type": "event"
    },
    {
      "anonymous": false,
      "inputs": [
        {
          "indexed": false,
          "internalType": "uint256",
          "name": "listingId",
          "type": "uint256"
        }
      ],
      "name": "TerminateRental",
      "type": "event"
    },
    {
      "inputs": [
        {
          "internalType": "uint256",
          "name": "listingId",
          "type": "uint256"
        }
      ],
      "name": "borrow",
      "outputs": [],
      "stateMutability": "payable",
      "type": "function"
    },
    {
      "inputs": [],
      "name": "getListingCount",
      "outputs": [
        {
          "internalType": "uint256",
          "name": "",
          "type": "uint256"
        }
      ],
      "stateMutability": "view",
      "type": "function"
    },
    {
      "inputs": [
        {
          "internalType": "uint256",
          "name": "tokenId",
          "type": "uint256"
        },
        {
          "internalType": "address",
          "name": "tokenAddress",
          "type": "address"
        },
        {
          "internalType": "uint16",
          "name": "duration",
          "type": "uint16"
        },
        {
          "internalType": "uint16",
          "name": "dailyInterestRate",
          "type": "uint16"
        },
        {
          "internalType": "uint256",
          "name": "collateralRequired",
          "type": "uint256"
        }
      ],
      "name": "listNFT",
      "outputs": [],
      "stateMutability": "nonpayable",
      "type": "function"
    },
    {
      "inputs": [
        {
          "internalType": "uint256",
          "name": "listingId",
          "type": "uint256"
        }
      ],
      "name": "returnNFT",
      "outputs": [],
      "stateMutability": "nonpayable",
      "type": "function"
    },
    {
      "inputs": [
        {
          "internalType": "uint256",
          "name": "listingId",
          "type": "uint256"
        }
      ],
      "name": "terminateRental",
      "outputs": [],
      "stateMutability": "nonpayable",
      "type": "function"
    },
    {
      "inputs": [
        {
          "internalType": "uint256",
          "name": "listingId",
          "type": "uint256"
        }
      ],
      "name": "unListNFT",
      "outputs": [],
      "stateMutability": "nonpayable",
      "type": "function"
    },
    {
      "inputs": [],
      "name": "viewAllListings",
      "outputs": [
        {
          "components": [
            {
              "internalType": "uint256",
              "name": "id",
              "type": "uint256"
            },
            {
              "internalType": "uint256",
              "name": "tokenId",
              "type": "uint256"
            },
            {
              "internalType": "address",
              "name": "tokenAddress",
              "type": "address"
            },
            {
              "internalType": "address payable",
              "name": "lenderAddress",
              "type": "address"
            },
            {
              "internalType": "uint16",
              "name": "duration",
              "type": "uint16"
            },
            {
              "internalType": "uint16",
              "name": "dailyInterestRate",
              "type": "uint16"
            },
            {
              "internalType": "uint256",
              "name": "collateralRequired",
              "type": "uint256"
            },
            {
              "components": [
                {
                  "internalType": "address payable",
                  "name": "borrowerAddress",
                  "type": "address"
                },
                {
                  "internalType": "uint256",
                  "name": "rentedAt",
                  "type": "uint256"
                }
              ],
              "internalType": "struct KasuStorage.Rental",
              "name": "rental",
              "type": "tuple"
            }
          ],
          "internalType": "struct KasuStorage.Listing[]",
          "name": "",
          "type": "tuple[]"
        }
      ],
      "stateMutability": "view",
      "type": "function"
    },
    {
      "inputs": [],
      "name": "viewOwnedOngoingListingsAndRentals",
      "outputs": [
        {
          "components": [
            {
              "internalType": "uint256",
              "name": "id",
              "type": "uint256"
            },
            {
              "internalType": "uint256",
              "name": "tokenId",
              "type": "uint256"
            },
            {
              "internalType": "address",
              "name": "tokenAddress",
              "type": "address"
            },
            {
              "internalType": "address payable",
              "name": "lenderAddress",
              "type": "address"
            },
            {
              "internalType": "uint16",
              "name": "duration",
              "type": "uint16"
            },
            {
              "internalType": "uint16",
              "name": "dailyInterestRate",
              "type": "uint16"
            },
            {
              "internalType": "uint256",
              "name": "collateralRequired",
              "type": "uint256"
            },
            {
              "components": [
                {
                  "internalType": "address payable",
                  "name": "borrowerAddress",
                  "type": "address"
                },
                {
                  "internalType": "uint256",
                  "name": "rentedAt",
                  "type": "uint256"
                }
              ],
              "internalType": "struct KasuStorage.Rental",
              "name": "rental",
              "type": "tuple"
            }
          ],
          "internalType": "struct KasuStorage.Listing[]",
          "name": "",
          "type": "tuple[]"
        }
      ],
      "stateMutability": "view",
      "type": "function"
    },
    {
      "inputs": [],
      "name": "viewRentedListings",
      "outputs": [
        {
          "components": [
            {
              "internalType": "uint256",
              "name": "id",
              "type": "uint256"
            },
            {
              "internalType": "uint256",
              "name": "tokenId",
              "type": "uint256"
            },
            {
              "internalType": "address",
              "name": "tokenAddress",
              "type": "address"
            },
            {
              "internalType": "address payable",
              "name": "lenderAddress",
              "type": "address"
            },
            {
              "internalType": "uint16",
              "name": "duration",
              "type": "uint16"
            },
            {
              "internalType": "uint16",
              "name": "dailyInterestRate",
              "type": "uint16"
            },
            {
              "internalType": "uint256",
              "name": "collateralRequired",
              "type": "uint256"
            },
            {
              "components": [
                {
                  "internalType": "address payable",
                  "name": "borrowerAddress",
                  "type": "address"
                },
                {
                  "internalType": "uint256",
                  "name": "rentedAt",
                  "type": "uint256"
                }
              ],
              "internalType": "struct KasuStorage.Rental",
              "name": "rental",
              "type": "tuple"
            }
          ],
          "internalType": "struct KasuStorage.Listing[]",
          "name": "",
          "type": "tuple[]"
        }
      ],
      "stateMutability": "view",
      "type": "function"
    }
  ],
  "bytecode": "0x6080604052600160005534801561001557600080fd5b506130fa806100256000396000f3fe6080604052600436106100865760003560e01c8063b0cd2aa011610059578063b0cd2aa014610133578063bf1b2c3a1461015c578063c5ebeaec14610187578063e522a8a1146101a3578063f9217419146101ce57610086565b80630ca2f1681461008b5780637ac0da04146100b457806381fab025146100dd57806387ed92d714610108575b600080fd5b34801561009757600080fd5b506100b260048036038101906100ad91906123cf565b6101f7565b005b3480156100c057600080fd5b506100db60048036038101906100d691906123f8565b6101fa565b005b3480156100e957600080fd5b506100f26102ef565b6040516100ff9190612b93565b60405180910390f35b34801561011457600080fd5b5061011d6105bb565b60405161012a9190612d75565b60405180910390f35b34801561013f57600080fd5b5061015a600480360381019061015591906123cf565b6105ca565b005b34801561016857600080fd5b5061017161095f565b60405161017e9190612b93565b60405180910390f35b6101a1600480360381019061019c91906123cf565b610e6b565b005b3480156101af57600080fd5b506101b8611104565b6040516101c59190612b93565b60405180910390f35b3480156101da57600080fd5b506101f560048036038101906101f091906123cf565b611608565b005b50565b6000604051806101000160405280600081526020018781526020018673ffffffffffffffffffffffffffffffffffffffff1681526020013373ffffffffffffffffffffffffffffffffffffffff1681526020018561ffff1681526020018461ffff1681526020018381526020016040518060400160405280600073ffffffffffffffffffffffffffffffffffffffff168152602001600081525081525090506102a2816119bd565b6102ab81611b59565b507ffb3c9be84e060b16665f2ed71b9e1f625d2104e176926bbe34b79f4382dbb44881602001516040516102df9190612d75565b60405180910390a1505050505050565b606060006102fb611d08565b90506000815167ffffffffffffffff811115610340577f4e487b7100000000000000000000000000000000000000000000000000000000600052604160045260246000fd5b60405190808252806020026020018201604052801561037957816020015b6103666122e1565b81526020019060019003908161035e5790505b50905060005b82518110156105b2576103d18382815181106103c4577f4e487b7100000000000000000000000000000000000000000000000000000000600052603260045260246000fd5b6020026020010151611e0b565b6040518061010001604052908160008201548152602001600182015481526020016002820160009054906101000a900473ffffffffffffffffffffffffffffffffffffffff1673ffffffffffffffffffffffffffffffffffffffff1673ffffffffffffffffffffffffffffffffffffffff1681526020016003820160009054906101000a900473ffffffffffffffffffffffffffffffffffffffff1673ffffffffffffffffffffffffffffffffffffffff1673ffffffffffffffffffffffffffffffffffffffff1681526020016003820160149054906101000a900461ffff1661ffff1661ffff1681526020016003820160169054906101000a900461ffff1661ffff1661ffff16815260200160048201548152602001600582016040518060400160405290816000820160009054906101000a900473ffffffffffffffffffffffffffffffffffffffff1673ffffffffffffffffffffffffffffffffffffffff1673ffffffffffffffffffffffffffffffffffffffff16815260200160018201548152505081525050828281518110610594577f4e487b7100000000000000000000000000000000000000000000000000000000600052603260045260246000fd5b602002602001018190525080806105aa90612fd8565b91505061037f565b50809250505090565b60006105c5611e27565b905090565b60006105d582611e0b565b6040518061010001604052908160008201548152602001600182015481526020016002820160009054906101000a900473ffffffffffffffffffffffffffffffffffffffff1673ffffffffffffffffffffffffffffffffffffffff1673ffffffffffffffffffffffffffffffffffffffff1681526020016003820160009054906101000a900473ffffffffffffffffffffffffffffffffffffffff1673ffffffffffffffffffffffffffffffffffffffff1673ffffffffffffffffffffffffffffffffffffffff1681526020016003820160149054906101000a900461ffff1661ffff1661ffff1681526020016003820160169054906101000a900461ffff1661ffff1661ffff16815260200160048201548152602001600582016040518060400160405290816000820160009054906101000a900473ffffffffffffffffffffffffffffffffffffffff1673ffffffffffffffffffffffffffffffffffffffff1673ffffffffffffffffffffffffffffffffffffffff1681526020016001820154815250508152505090506000816000015114156107a9576040517f08c379a00000000000000000000000000000000000000000000000000000000081526004016107a090612c95565b60405180910390fd5b806040015173ffffffffffffffffffffffffffffffffffffffff166342842e0e8260e0015160000151836060015184602001516040518463ffffffff1660e01b81526004016107fa93929190612b25565b600060405180830381600087803b15801561081457600080fd5b505af1158015610828573d6000803e3d6000fd5b5050505060008160e001516000015173ffffffffffffffffffffffffffffffffffffffff168260c0015160405161085e90612b10565b60006040518083038185875af1925050503d806000811461089b576040519150601f19603f3d011682016040523d82523d6000602084013e6108a0565b606091505b50509050806108e4576040517f08c379a00000000000000000000000000000000000000000000000000000000081526004016108db90612d35565b60405180910390fd5b60008260e0015160200151426108fa9190612f03565b9050600061091061090a86611e0b565b83611e38565b905083606001515061092185611e8d565b7ff8c86c3655fab14dd6996efe90c18eec2193e12c9e41f83d8a7645284f12e91c856040516109509190612d75565b60405180910390a15050505050565b60606000805b61096f6002611f81565b811015610b7f57600061099461098f836002611f9690919063ffffffff16565b611e0b565b6040518061010001604052908160008201548152602001600182015481526020016002820160009054906101000a900473ffffffffffffffffffffffffffffffffffffffff1673ffffffffffffffffffffffffffffffffffffffff1673ffffffffffffffffffffffffffffffffffffffff1681526020016003820160009054906101000a900473ffffffffffffffffffffffffffffffffffffffff1673ffffffffffffffffffffffffffffffffffffffff1673ffffffffffffffffffffffffffffffffffffffff1681526020016003820160149054906101000a900461ffff1661ffff1661ffff1681526020016003820160169054906101000a900461ffff1661ffff1661ffff16815260200160048201548152602001600582016040518060400160405290816000820160009054906101000a900473ffffffffffffffffffffffffffffffffffffffff1673ffffffffffffffffffffffffffffffffffffffff1673ffffffffffffffffffffffffffffffffffffffff1681526020016001820154815250508152505090503373ffffffffffffffffffffffffffffffffffffffff168160e001516000015173ffffffffffffffffffffffffffffffffffffffff161415610b6b578280610b6790612fd8565b9350505b508080610b7790612fd8565b915050610965565b5060008167ffffffffffffffff811115610bc2577f4e487b7100000000000000000000000000000000000000000000000000000000600052604160045260246000fd5b604051908082528060200260200182016040528015610bfb57816020015b610be86122e1565b815260200190600190039081610be05790505b5090506000805b610c0c6002611f81565b811015610e61576000610c31610c2c836002611f9690919063ffffffff16565b611e0b565b6040518061010001604052908160008201548152602001600182015481526020016002820160009054906101000a900473ffffffffffffffffffffffffffffffffffffffff1673ffffffffffffffffffffffffffffffffffffffff1673ffffffffffffffffffffffffffffffffffffffff1681526020016003820160009054906101000a900473ffffffffffffffffffffffffffffffffffffffff1673ffffffffffffffffffffffffffffffffffffffff1673ffffffffffffffffffffffffffffffffffffffff1681526020016003820160149054906101000a900461ffff1661ffff1661ffff1681526020016003820160169054906101000a900461ffff1661ffff1661ffff16815260200160048201548152602001600582016040518060400160405290816000820160009054906101000a900473ffffffffffffffffffffffffffffffffffffffff1673ffffffffffffffffffffffffffffffffffffffff1673ffffffffffffffffffffffffffffffffffffffff1681526020016001820154815250508152505090503373ffffffffffffffffffffffffffffffffffffffff168160e001516000015173ffffffffffffffffffffffffffffffffffffffff161415610e4d5780848481518110610e33577f4e487b7100000000000000000000000000000000000000000000000000000000600052603260045260246000fd5b60200260200101819052508280610e4990612fd8565b9350505b508080610e5990612fd8565b915050610c02565b5081935050505090565b610e7481611fb0565b610eb3576040517f08c379a0000000000000000000000000000000000000000000000000000000008152600401610eaa90612c55565b60405180910390fd5b6000610ebe82611e0b565b90506000816005016001015414610f0a576040517f08c379a0000000000000000000000000000000000000000000000000000000008152600401610f0190612cd5565b60405180910390fd5b3373ffffffffffffffffffffffffffffffffffffffff168160030160009054906101000a900473ffffffffffffffffffffffffffffffffffffffff1673ffffffffffffffffffffffffffffffffffffffff161415610f9d576040517f08c379a0000000000000000000000000000000000000000000000000000000008152600401610f9490612c35565b60405180910390fd5b6000610fa882611fcd565b9050803414610fec576040517f08c379a0000000000000000000000000000000000000000000000000000000008152600401610fe390612d55565b60405180910390fd5b338260050160000160006101000a81548173ffffffffffffffffffffffffffffffffffffffff021916908373ffffffffffffffffffffffffffffffffffffffff16021790555042826005016001018190555060008260020160009054906101000a900473ffffffffffffffffffffffffffffffffffffffff1690508073ffffffffffffffffffffffffffffffffffffffff166342842e0e8460030160009054906101000a900473ffffffffffffffffffffffffffffffffffffffff163386600101546040518463ffffffff1660e01b81526004016110cc93929190612b5c565b600060405180830381600087803b1580156110e657600080fd5b505af11580156110fa573d6000803e3d6000fd5b5050505050505050565b60606000805b6111146002611f81565b811015611320576000611139611134836002611f9690919063ffffffff16565b611e0b565b6040518061010001604052908160008201548152602001600182015481526020016002820160009054906101000a900473ffffffffffffffffffffffffffffffffffffffff1673ffffffffffffffffffffffffffffffffffffffff1673ffffffffffffffffffffffffffffffffffffffff1681526020016003820160009054906101000a900473ffffffffffffffffffffffffffffffffffffffff1673ffffffffffffffffffffffffffffffffffffffff1673ffffffffffffffffffffffffffffffffffffffff1681526020016003820160149054906101000a900461ffff1661ffff1661ffff1681526020016003820160169054906101000a900461ffff1661ffff1661ffff16815260200160048201548152602001600582016040518060400160405290816000820160009054906101000a900473ffffffffffffffffffffffffffffffffffffffff1673ffffffffffffffffffffffffffffffffffffffff1673ffffffffffffffffffffffffffffffffffffffff1681526020016001820154815250508152505090503373ffffffffffffffffffffffffffffffffffffffff16816060015173ffffffffffffffffffffffffffffffffffffffff16141561130c57828061130890612fd8565b9350505b50808061131890612fd8565b91505061110a565b5060008167ffffffffffffffff811115611363577f4e487b7100000000000000000000000000000000000000000000000000000000600052604160045260246000fd5b60405190808252806020026020018201604052801561139c57816020015b6113896122e1565b8152602001906001900390816113815790505b5090506000805b6113ad6002611f81565b8110156115fe5760006113d26113cd836002611f9690919063ffffffff16565b611e0b565b6040518061010001604052908160008201548152602001600182015481526020016002820160009054906101000a900473ffffffffffffffffffffffffffffffffffffffff1673ffffffffffffffffffffffffffffffffffffffff1673ffffffffffffffffffffffffffffffffffffffff1681526020016003820160009054906101000a900473ffffffffffffffffffffffffffffffffffffffff1673ffffffffffffffffffffffffffffffffffffffff1673ffffffffffffffffffffffffffffffffffffffff1681526020016003820160149054906101000a900461ffff1661ffff1661ffff1681526020016003820160169054906101000a900461ffff1661ffff1661ffff16815260200160048201548152602001600582016040518060400160405290816000820160009054906101000a900473ffffffffffffffffffffffffffffffffffffffff1673ffffffffffffffffffffffffffffffffffffffff1673ffffffffffffffffffffffffffffffffffffffff1681526020016001820154815250508152505090503373ffffffffffffffffffffffffffffffffffffffff16816060015173ffffffffffffffffffffffffffffffffffffffff1614156115ea57808484815181106115d0577f4e487b7100000000000000000000000000000000000000000000000000000000600052603260045260246000fd5b602002602001018190525082806115e690612fd8565b9350505b5080806115f690612fd8565b9150506113a3565b5081935050505090565b600061161382611e0b565b90506117a8816040518061010001604052908160008201548152602001600182015481526020016002820160009054906101000a900473ffffffffffffffffffffffffffffffffffffffff1673ffffffffffffffffffffffffffffffffffffffff1673ffffffffffffffffffffffffffffffffffffffff1681526020016003820160009054906101000a900473ffffffffffffffffffffffffffffffffffffffff1673ffffffffffffffffffffffffffffffffffffffff1673ffffffffffffffffffffffffffffffffffffffff1681526020016003820160149054906101000a900461ffff1661ffff1661ffff1681526020016003820160169054906101000a900461ffff1661ffff1661ffff16815260200160048201548152602001600582016040518060400160405290816000820160009054906101000a900473ffffffffffffffffffffffffffffffffffffffff1673ffffffffffffffffffffffffffffffffffffffff1673ffffffffffffffffffffffffffffffffffffffff168152602001600182015481525050815250506119bd565b3373ffffffffffffffffffffffffffffffffffffffff168160030160009054906101000a900473ffffffffffffffffffffffffffffffffffffffff1673ffffffffffffffffffffffffffffffffffffffff161461183a576040517f08c379a000000000000000000000000000000000000000000000000000000000815260040161183190612cb5565b60405180910390fd5b6000620151808260030160149054906101000a900461ffff1661ffff166118619190612e6c565b62ffffff1682600501600101546118789190612de5565b9050804210156118bd576040517f08c379a00000000000000000000000000000000000000000000000000000000081526004016118b490612c15565b60405180910390fd5b60006118c883611fcd565b90506118d384611e8d565b60003373ffffffffffffffffffffffffffffffffffffffff16826040516118f990612b10565b60006040518083038185875af1925050503d8060008114611936576040519150601f19603f3d011682016040523d82523d6000602084013e61193b565b606091505b505090508061197f576040517f08c379a000000000000000000000000000000000000000000000000000000000815260040161197690612d15565b60405180910390fd5b7ff4b6d8e6d67e89eda2471635f9ba22585be1274f88e88143a6f0454aff128c15856040516119ae9190612d75565b60405180910390a15050505050565b600081602001511415611a05576040517f08c379a00000000000000000000000000000000000000000000000000000000081526004016119fc90612bf5565b60405180910390fd5b600073ffffffffffffffffffffffffffffffffffffffff16816040015173ffffffffffffffffffffffffffffffffffffffff161415611a79576040517f08c379a0000000000000000000000000000000000000000000000000000000008152600401611a7090612c75565b60405180910390fd5b6000816080015161ffff1611611ac4576040517f08c379a0000000000000000000000000000000000000000000000000000000008152600401611abb90612bd5565b60405180910390fd5b60008160a0015161ffff1611611b0f576040517f08c379a0000000000000000000000000000000000000000000000000000000008152600401611b0690612cf5565b60405180910390fd5b60008160c0015111611b56576040517f08c379a0000000000000000000000000000000000000000000000000000000008152600401611b4d90612bb5565b60405180910390fd5b50565b6000806000815480929190611b6d90612fd8565b91905055826000018181525050816001600084600001518152602001908152602001600020600082015181600001556020820151816001015560408201518160020160006101000a81548173ffffffffffffffffffffffffffffffffffffffff021916908373ffffffffffffffffffffffffffffffffffffffff16021790555060608201518160030160006101000a81548173ffffffffffffffffffffffffffffffffffffffff021916908373ffffffffffffffffffffffffffffffffffffffff16021790555060808201518160030160146101000a81548161ffff021916908361ffff16021790555060a08201518160030160166101000a81548161ffff021916908361ffff16021790555060c0820151816004015560e08201518160050160008201518160000160006101000a81548173ffffffffffffffffffffffffffffffffffffffff021916908373ffffffffffffffffffffffffffffffffffffffff160217905550602082015181600101555050905050611cfb8260000151600261201890919063ffffffff16565b5081600001519050919050565b60606000611d166002611f81565b905060008167ffffffffffffffff811115611d5a577f4e487b7100000000000000000000000000000000000000000000000000000000600052604160045260246000fd5b604051908082528060200260200182016040528015611d885781602001602082028036833780820191505090505b50905060005b82811015611e0257611daa816002611f9690919063ffffffff16565b828281518110611de3577f4e487b7100000000000000000000000000000000000000000000000000000000600052603260045260246000fd5b6020026020010181815250508080611dfa90612fd8565b915050611d8e565b50809250505090565b6000600160008381526020019081526020016000209050919050565b6000611e336002611f81565b905090565b60006064620151808385600401548660030160169054906101000a900461ffff1661ffff16611e679190612ea9565b611e719190612ea9565b611e7b9190612e3b565b611e859190612e3b565b905092915050565b6001600082815260200190815260200160002060008082016000905560018201600090556002820160006101000a81549073ffffffffffffffffffffffffffffffffffffffff02191690556003820160006101000a81549073ffffffffffffffffffffffffffffffffffffffff02191690556003820160146101000a81549061ffff02191690556003820160166101000a81549061ffff0219169055600482016000905560058201600080820160006101000a81549073ffffffffffffffffffffffffffffffffffffffff0219169055600182016000905550505050611f7d81600261203290919063ffffffff16565b5050565b6000611f8f8260000161204c565b9050919050565b6000611fa5836000018361205d565b60001c905092915050565b6000611fc68260026120ae90919063ffffffff16565b9050919050565b600061200282620151808460030160149054906101000a900461ffff1661ffff16611ff89190612e6c565b62ffffff16611e38565b82600401546120119190612de5565b9050919050565b600061202a836000018360001b6120c8565b905092915050565b6000612044836000018360001b612138565b905092915050565b600081600001805490509050919050565b600082600001828154811061209b577f4e487b7100000000000000000000000000000000000000000000000000000000600052603260045260246000fd5b9060005260206000200154905092915050565b60006120c0836000018360001b6122be565b905092915050565b60006120d483836122be565b61212d578260000182908060018154018082558091505060019003906000526020600020016000909190919091505582600001805490508360010160008481526020019081526020016000208190555060019050612132565b600090505b92915050565b600080836001016000848152602001908152602001600020549050600081146122b257600060018261216a9190612f03565b90506000600186600001805490506121829190612f03565b905081811461223d5760008660000182815481106121c9577f4e487b7100000000000000000000000000000000000000000000000000000000600052603260045260246000fd5b9060005260206000200154905080876000018481548110612213577f4e487b7100000000000000000000000000000000000000000000000000000000600052603260045260246000fd5b90600052602060002001819055508387600101600083815260200190815260200160002081905550505b85600001805480612277577f4e487b7100000000000000000000000000000000000000000000000000000000600052603160045260246000fd5b6001900381819060005260206000200160009055905585600101600086815260200190815260200160002060009055600193505050506122b8565b60009150505b92915050565b600080836001016000848152602001908152602001600020541415905092915050565b6040518061010001604052806000815260200160008152602001600073ffffffffffffffffffffffffffffffffffffffff168152602001600073ffffffffffffffffffffffffffffffffffffffff168152602001600061ffff168152602001600061ffff1681526020016000815260200161235a612360565b81525090565b6040518060400160405280600073ffffffffffffffffffffffffffffffffffffffff168152602001600081525090565b60008135905061239f8161307f565b92915050565b6000813590506123b481613096565b92915050565b6000813590506123c9816130ad565b92915050565b6000602082840312156123e157600080fd5b60006123ef848285016123ba565b91505092915050565b600080600080600060a0868803121561241057600080fd5b600061241e888289016123ba565b955050602061242f88828901612390565b9450506040612440888289016123a5565b9350506060612451888289016123a5565b9250506080612462888289016123ba565b9150509295509295909350565b600061247b8383612a12565b6101208301905092915050565b61249181612fa2565b82525050565b6124a081612f49565b82525050565b6124af81612f37565b82525050565b6124be81612f37565b82525050565b60006124cf82612da0565b6124d98185612db8565b93506124e483612d90565b8060005b838110156125155781516124fc888261246f565b975061250783612dab565b9250506001810190506124e8565b5085935050505092915050565b600061252f602e83612dd4565b91507f76616c69646174654c697374696e674e46543a3a20436f6c6c61746572616c2060008301527f63616e6e6f74206265207a65726f0000000000000000000000000000000000006020830152604082019050919050565b6000612595602c83612dd4565b91507f76616c69646174654c697374696e674e46543a3a204475726174696f6e20636160008301527f6e6e6f74206265207a65726f00000000000000000000000000000000000000006020830152604082019050919050565b60006125fb602c83612dd4565b91507f76616c69646174654c697374696e674e46543a3a20546f6b656e49642063616e60008301527f6e6f7420626520656d70747900000000000000000000000000000000000000006020830152604082019050919050565b6000612661602b83612dd4565b91507f63616e6e6f74207465726d696e6174652072656e74616c20746861742069732060008301527f6e6f7420796574206475650000000000000000000000000000000000000000006020830152604082019050919050565b60006126c7601a83612dd4565b91507f63616e6e6f742072656e7420796f7572206f776e20746f6b656e0000000000006000830152602082019050919050565b6000612707601683612dd4565b91507f6c697374696e6720646f6573206e6f74206578697374000000000000000000006000830152602082019050919050565b6000612747603183612dd4565b91507f76616c69646174654c697374696e674e46543a3a20546f6b656e41646472657360008301527f732063616e6e6f7420626520656d7074790000000000000000000000000000006020830152604082019050919050565b60006127ad601183612dd4565b91507f496e76616c6964206c697374696e6749640000000000000000000000000000006000830152602082019050919050565b60006127ed602883612dd4565b91507f6f6e6c7920746865206c656e6465722063616e207465726d696e61746520746860008301527f652072656e74616c0000000000000000000000000000000000000000000000006020830152604082019050919050565b6000612853601883612dd4565b91507f6e6f7420616e20617661696c61626c65206c697374696e6700000000000000006000830152602082019050919050565b6000612893603783612dd4565b91507f76616c69646174654c697374696e674e46543a3a204461696c7920696e74657260008301527f65737420726174652063616e6e6f74206265207a65726f0000000000000000006020830152604082019050919050565b60006128f9602883612dd4565b91507f6661696c656420746f2073656e6420636f6c6c61746572616c206261636b207460008301527f6f206c656e6465720000000000000000000000000000000000000000000000006020830152604082019050919050565b600061295f600083612dc9565b9150600082019050919050565b6000612979602a83612dd4565b91507f6661696c656420746f2073656e6420636f6c6c61746572616c206261636b207460008301527f6f20626f72726f776572000000000000000000000000000000000000000000006020830152604082019050919050565b60006129df601b83612dd4565b91507f6d7573742073656e6420746865206578616374207061796d656e7400000000006000830152602082019050919050565b61012082016000820151612a296000850182612af2565b506020820151612a3c6020850182612af2565b506040820151612a4f60408501826124a6565b506060820151612a626060850182612497565b506080820151612a756080850182612ae3565b5060a0820151612a8860a0850182612ae3565b5060c0820151612a9b60c0850182612af2565b5060e0820151612aae60e0850182612ab4565b50505050565b604082016000820151612aca6000850182612497565b506020820151612add6020850182612af2565b50505050565b612aec81612f5b565b82525050565b612afb81612f98565b82525050565b612b0a81612f98565b82525050565b6000612b1b82612952565b9150819050919050565b6000606082019050612b3a6000830186612488565b612b476020830185612488565b612b546040830184612b01565b949350505050565b6000606082019050612b716000830186612488565b612b7e60208301856124b5565b612b8b6040830184612b01565b949350505050565b60006020820190508181036000830152612bad81846124c4565b905092915050565b60006020820190508181036000830152612bce81612522565b9050919050565b60006020820190508181036000830152612bee81612588565b9050919050565b60006020820190508181036000830152612c0e816125ee565b9050919050565b60006020820190508181036000830152612c2e81612654565b9050919050565b60006020820190508181036000830152612c4e816126ba565b9050919050565b60006020820190508181036000830152612c6e816126fa565b9050919050565b60006020820190508181036000830152612c8e8161273a565b9050919050565b60006020820190508181036000830152612cae816127a0565b9050919050565b60006020820190508181036000830152612cce816127e0565b9050919050565b60006020820190508181036000830152612cee81612846565b9050919050565b60006020820190508181036000830152612d0e81612886565b9050919050565b60006020820190508181036000830152612d2e816128ec565b9050919050565b60006020820190508181036000830152612d4e8161296c565b9050919050565b60006020820190508181036000830152612d6e816129d2565b9050919050565b6000602082019050612d8a6000830184612b01565b92915050565b6000819050602082019050919050565b600081519050919050565b6000602082019050919050565b600082825260208201905092915050565b600081905092915050565b600082825260208201905092915050565b6000612df082612f98565b9150612dfb83612f98565b9250827fffffffffffffffffffffffffffffffffffffffffffffffffffffffffffffffff03821115612e3057612e2f613021565b5b828201905092915050565b6000612e4682612f98565b9150612e5183612f98565b925082612e6157612e60613050565b5b828204905092915050565b6000612e7782612f89565b9150612e8283612f89565b92508162ffffff0483118215151615612e9e57612e9d613021565b5b828202905092915050565b6000612eb482612f98565b9150612ebf83612f98565b9250817fffffffffffffffffffffffffffffffffffffffffffffffffffffffffffffffff0483118215151615612ef857612ef7613021565b5b828202905092915050565b6000612f0e82612f98565b9150612f1983612f98565b925082821015612f2c57612f2b613021565b5b828203905092915050565b6000612f4282612f69565b9050919050565b6000612f5482612f69565b9050919050565b600061ffff82169050919050565b600073ffffffffffffffffffffffffffffffffffffffff82169050919050565b600062ffffff82169050919050565b6000819050919050565b6000612fad82612fb4565b9050919050565b6000612fbf82612fc6565b9050919050565b6000612fd182612f69565b9050919050565b6000612fe382612f98565b91507fffffffffffffffffffffffffffffffffffffffffffffffffffffffffffffffff82141561301657613015613021565b5b600182019050919050565b7f4e487b7100000000000000000000000000000000000000000000000000000000600052601160045260246000fd5b7f4e487b7100000000000000000000000000000000000000000000000000000000600052601260045260246000fd5b61308881612f37565b811461309357600080fd5b50565b61309f81612f5b565b81146130aa57600080fd5b50565b6130b681612f98565b81146130c157600080fd5b5056fea2646970667358221220ff748797995b2ae5a504028632475bd4cd67033eeedd5763f803dbbf2c62a78a64736f6c63430008000033",
  "linkReferences": {},
  "deployedLinkReferences": {}
}